:020000040800F2
:10000000809000206902000871020008D53D0008B8
:10001000750200087702000879020008000000005D
:10002000000000000000000000000000AD0100081A
:100030007D0200080000000001020008515B00087A
:10004000830200088302000883020008830200087C
:10005000830200088302000883020008B11600082A
:10006000830200088302000883020008830200085C
:10007000830200088302000883020008830200084C
:1000800083020008830200088302000800000000C9
:1000900000000000000000000000000083020008D3
:1000A000830200088302000883020008830200081C
:1000B000830200088302000883020008830200080C
:1000C00083020008830200088302000883020008FC
:1000D0008302000809620008830200080000000093
:1000E0008302000883020008830200080000000069
:1000F0000000000000000000000000008302000873
:100100000000000083020008830200088302000848
:1001100000000000000000000000000000000000DF
:1001200039160008830200088302000883020008D1
:100130008302000800000000000000000000000032
:100140000000000000000000000000008302000822
:10015000830200088302000883020008830200086B
:100160008302000883020008000000000000000075
:10017000000000000000000000000000000000007F
:1001800000000000830200080000000000000000E2
:100190008302000883020008DFF80CD000F0B4FBF3
:1001A00000480047C5830008809000202B4B196849
:1001B0000868B0E8F04F80F30988BFF36F8F4FF005
:1001C000000080F3118870470000000006480068B6
:1001D000006880F3088862B661B6BFF34F8FBFF343
:1001E0006F8F00DF00BF00BF08ED00E0DFF80C00FC
:1001F000016841F470010160704700BF88ED00E0C4
:10020000EFF30980BFF36F8F144B1A681EF0100FC5
:1002100008BF20ED108A20E9F04F106008B44FF0BD
:10022000500080F31188BFF34F8FBFF36F8F09F039
:10023000F7F94FF0000080F3118808BC19680868CE
:10024000B0E8F04F1EF0100F08BFB0EC108A80F33A
:100250000988BFF36F8F704700BF00BF58030020AD
:10026000EFF30580704700000648804706480047C6
:10027000FEE7FEE7FEE7FEE7FEE7FEE7FEE7FEE756
:10028000FEE7FEE7ED5B00089901000840EA010384
:100290009B0703D009E008C9121F08C0042AFAD23C
:1002A00003E011F8013B00F8013B521EF9D2704700
:1002B000D2B201E000F8012B491EFBD270470022A8
:1002C000F6E710B513460A4604461946FFF7F0FF55
:1002D000204610BD2DE9FE4F804681EA0300C00F85
:1002E0000C46009021F0004123F00045B8EB0200DD
:1002F000A94105D24046214690461C460B4602467F
:1003000023F00040104347D0270DC7F30A00C3F382
:100310000A510290401A019040286BDAC3F313008F
:1003200040F4801B0098924620B10023D2EB030AD0
:1003300063EB0B0B01985946C0F14002504600F0A8
:100340009EF906460D4650465946019A00F0B6F908
:1003500010EB08006141002487EA115284EAE77338
:100360001A4340D0009A62B3019A012A4FEA075219
:1003700015DC001B61EB02014FF0004202EA07525C
:10038000CDE90042001C41F5801132462B4600F0B9
:10039000EDF903B0BDE8F08F40462146F9E7001BB8
:1003A00061EB0201001C41F5801300185B4120182D
:1003B000A2F5001747EB030140EAD570B6196D416D
:1003C00011E06D084FEA360645EAC0754FEA07525C
:1003D000001B61EB0201001C41F5801149084FEA46
:1003E00030000019514132462B4603B0BDE8F04FB2
:1003F00000F0ADB90098012240000023D0EB0202CA
:1004000063EBE073009821464FEAE074B8EB00001C
:1004100061EB0401E9E783F000435BE781F0004111
:1004200058E72DE9FE4F81EA030404F0004421F06F
:10043000004100944FF0000B23F0004350EA010408
:100440005ED052EA03045BD0C3F30A54C1F30A55E9
:100450002C44A4F2F3340194A0FB0254C1F3130121
:1004600041F48011C3F3130343F4801301FB0244EE
:1004700000FB034E840A970A44EA815447EA8357F3
:10048000A4FB076802958D0A05FB07854FEA932CAC
:1004900004FB0C542705029D4FEA065847EA16371D
:1004A000B5EB08056EEB070C870E920E47EA811735
:1004B00042EA8312A7FB0201B6EB0B0164EB0004D6
:1004C0002B0D43EA0C335E1844EB1C50DA465146C0
:1004D000E7FB0201C5F313044FEA0B3343EA14535D
:1004E0004FEA0432019C43EA0603A4F10C0402948F
:1004F000009CCDE900B400F039F903B0BDE8F08FFD
:1005000000200146F9E72DE9F04D81EA030404F0EB
:10051000004B21F0004514464FF0000A23F0004143
:1005200050EA050220D054EA01021DD0C5F30A5753
:100530000246C5F31303C1F31300C1F30A5640F496
:10054000801543F48013A7EB0608101BD64608F26B
:10055000FD3873EB050002D308F1010801E09218A1
:100560005B41B8F1000F03DA00200146BDE8F08DD1
:1005700000204FF48011064684460EE0171B73EBF3
:10058000050705D3121B63EB050306434CEA010C78
:1005900049084FEA300092185B4150EA0107EDD15B
:1005A00052EA030012D082EA040083EA05010843FC
:1005B00005D0101BAB4106D20122002306E0002229
:1005C0004FF0004302E06FF0010253101AEB0600F7
:1005D0004CEB085110EB0A0041EB0B01BDE8F04D6C
:1005E00000F0B5B80EB5C10F80EAE0700844CA0744
:1005F000002140F233438DE80E000A460B4600F01E
:10060000B5F803B000BD0EB540F2334102910021B0
:10061000CDE900110A460B4600F0A8F803B000BD72
:1006200000F0004230F000400AD0C10D01F56071C9
:10063000C0F3160042EA0151C20840071143704757
:1006400000200146704701F0004330B421F0004122
:1006500050EA010206D00A0DA2F56072C1F313013F
:10066000002A02DC30BC00207047440F44EAC10479
:10067000C100E01830BC00EBC25000F031B8202AB5
:1006800004DB203A00FA02F1002070479140C2F1E9
:10069000200320FA03F3194390407047202A04DB1B
:1006A000203A21FA02F00021704721FA02F3D040EB
:1006B000C2F120029140084319467047202A06DB08
:1006C000CB17203A41FA02F043EAE07306E041FA20
:1006D00002F3D040C2F1200291400843194670470E
:1006E0000029A8BF7047401C490008BF20F0010046
:1006F000704710B4B0FA80FC00FA0CF050EA010424
:1007000004BF10BC704749B1CCF1200421FA04F4B5
:1007100011FA0CF118BF012121430843A3EB0C018E
:10072000CB1D4FEA00614FEA102042BF002010BCF1
:10073000704700EBC35010440029A4BF10BC7047A1
:10074000401C490008BF20F0010010BC704710B5E4
:10075000141E73F1000408DA401C41F100019218E4
:100760005B411A4301D120F0010010BD2DE9F04D8D
:1007700092469B4611B1B1FA81F202E0B0FA80F2E2
:1007800020329046FFF77BFF04460F4640EA0A00FE
:1007900041EA0B0153465A46084313D0114653EA27
:1007A000010019D0C8F140025046FFF777FF054617
:1007B0000E46504659464246FFF761FF084305D0B2
:1007C000012004E020463946BDE8F08D00200543B5
:1007D00046EAE0762C4337430A986305E40AA0EB27
:1007E00008000022FD0A44EA47540A3002D50020DE
:1007F0000146E9E7010510196941DDE908450019DD
:100800006941BDE8F04DA2E770B521F00043034314
:100810000CD0C1F30A550024D5EB040564EB0403A6
:10082000D617AD1AB34102DB0020014670BD201877
:1008300041EB025170BD2DE9F04D00231A461B1A01
:100840008A4103DB00200146BDE8F08DC1F30A5266
:10085000C1F3130141F480154FF0000BD10702D111
:1008600000186D41521E0027044640F2FF11384621
:1008700001EB620A3E468046024600204FF480119A
:10088000FFF70CFFC2197141BB1846EB0100B4EB36
:10089000030C75EB000C04D3E41A65EB0005174656
:1008A0000E46241908F101006D4180463428E3DD2D
:1008B000F91946EB0600091BA84103D24FF0FF329D
:1008C000134601E0002213461BEB070046EB0A51DA
:1008D000BDE8F04DFFF73BBF30B5041E71F10004D9
:1008E00004DB4FF00044404264EB0101141E73F13D
:1008F000000405DB1C464FF00043524263EB040347
:10090000994208BF904230BD064C074D06E0E068B2
:1009100040F0010394E8070098471034AC42F6D346
:10092000FFF73EFC8CA40008ACA4000870B58C183E
:1009300010F8015B15F0070301D110F8013B2A11F3
:1009400006D110F8012B03E010F8016B01F8016BE0
:100950005B1EF9D12B0705D40023521E0DD401F8DC
:10096000013BFAE710F8013BCB1A921C03E013F8A5
:10097000015B01F8015B521EF9D5A142D8D30020DA
:1009800070BD00002DE9F00327484168491C416013
:100990000020274CDFF894C0DFF89880DFED260AAE
:1009A00040F6FF76A4F10805A4F110070CF5A0733A
:1009B0000022002101EB81090CEB490939F8109064
:1009C0004A44491C2029F5D326EA521124F8101074
:1009D00035F810204FF06409891A01FB09F100294C
:1009E00000DA002137F81090A9EB020200EE101A8D
:1009F000B8EEC01A00EE102AF8EEC01A81EE210AF5
:100A000010EE101A414504DD03EB800181ED000A70
:100A100003E003EB8001C1ED000A401CC0B20328D3
:100A2000C6D9BDE8F00370470802002088070020FF
:100A3000280200200000A040000000001748F0EE4F
:100A4000000A008900EE100A1748B8EE400A20EEAE
:100A5000200ADFED130A20EE200ADFED120A20EE55
:100A6000200A80ED030ADFED110A30EE600ADFEDA7
:100A7000100A80EE201A9FED0F0A21EE000A80ED89
:100A8000020AD0ED000A9FED0C1A60EE810A9FED7C
:100A90000B1A40EE010AC0ED000A704788070020DB
:100AA00000008039333353400802002066666640F8
:100AB000D0CC0C3F0000C842B6F37D3F6F12033C20
:100AC00010B5806B90F83D10252905D0152180F8D0
:100AD0003D1000F0AFFE10BD352180F83D10F8E765
:100AE00010B5806B042180F83D10016C41F00201CB
:100AF000016400F0A1FE10BD10B5806B00F09BFEFC
:100B000010BD000010B500241048002101614161B2
:100B10004FF6FF7208211830FFF7CAFB0C4901F1AC
:100B2000080201F1100331F814C033F814006045D5
:100B300001D921F8140032F814C0604501D222F81E
:100B40001400601CC4B2042CEDD310BD08020020B8
:100B5000180200204C490A6822F440320A600A68F0
:100B600043681A430A6001684A6822F480724A6046
:100B700001684A68036942EA03224A6001684A68D8
:100B800022F040724A6001684A6883681A434A60EA
:100B900001688A6822F400628A6001688A68C36812
:100BA0001A438A60C16A6FF07062D14214D0016842
:100BB0008A6822F070628A6001688A68C36A1A4390
:100BC0008A6001688A6822F040528A6001688A68F7
:100BD000036B1A438A6009E001688A6822F0706238
:100BE0008A6001688A6822F040528A6001688A68D7
:100BF00022F002028A6001688A68836942EA43023D
:100C00008A60416AC1B101684A6842F400624A6080
:100C100001684A6822F460424A6001684A68836A4F
:100C20004FF4604C9CFAACFC5B1EBCFA8CFC03FAE3
:100C30000CF31A434A6004E001684A6822F4006237
:100C40004A600168CA6A22F47002CA620168CA6A0C
:100C5000038C5B1E42EA0352CA6201688A6822F46E
:100C600000728A6001688A68C36942EA43228A6026
:100C700001688A6822F480628A6001688A68406933
:100C800042EA802088607047042301402DE9F0414A
:100C90002DED028B84B0002001900290039007F0AC
:100CA000B9FB664CDFED662AE16949B1411A00EEF5
:100CB000101AB8EE400ADFED630A80EE208A01E0E8
:100CC000B0EE628AE061604DD4ED010A95ED000A54
:100CD000F1EE600A70EEC00AC4ED030A5B4B5C4F94
:100CE00093ED140A97ED001A30EE410A83ED140AD1
:100CF00093ED150A97ED011A30EE410A83ED150ABE
:100D000093ED160A97ED021A30EE410A83ED160AAA
:100D10000021DFF840C10CEB8102C2ED002A002067
:100D200000EB400603EB860606EB810692ED001A07
:100D3000D6ED1D1A03EB800696ED142A01EE821AF9
:100D400082ED001A401CC0B20328E9D3481CC1B28E
:100D50000329E0D39CED020AB1EE400A8CED020AB1
:100D60009FED3D1A3D4E30EE010A95ED021A30EE30
:100D7000410A86ED020A94ED040A9DED031A60EE25
:100D8000800A00EEC01A8DED031A002101AAB0EE10
:100D9000621A002001EB410C03EB8C0C0CEB800879
:100DA000D8ED1D1A02EB800898ED002A01EE821A98
:100DB000401CC0B20328F1D394ED060A07EB810072
:100DC00021EE001AD0ED001A41EE081AC0ED001A0B
:100DD000481CC1B20329DAD397ED020AB1EE400AEA
:100DE00087ED020A1848B0EE480A07F0A7FA94ED1A
:100DF000041A00211448F0EE480A94ED030A07F0A3
:100E000071FA96ED020A94ED051A02210E48F0EEF1
:100E1000480A07F067FA124895ED000A80ED020AC9
:100E200095ED010A80ED050A95ED020A80ED080AAC
:100E300004B0BDEC028BBDE8F0810000100300207F
:100E40000000000000247449CC040020AC03002002
:100E5000CC0A0020180000200AE81C41D80A002013
:100E6000A80400200000000010B507F067F8204833
:100E7000204C90ED040A94ED001AF8EE400A80EE42
:100E8000810A10EE100AFFF7CBFB41EC100B9FED2F
:100E90001A1B05F0F5FE9FED1A1B51EC100B53ECDD
:100EA000112BFFF7BBFA9FED181B53EC112BFFF72B
:100EB000B8FA9FED171B53EC112BFFF7B2FAFFF7AF
:100EC000C2FB00EE900A94ED010A9FED131A20EE8A
:100ED000010A9FED121A00EE810A84ED010AD4ED99
:100EE000080A70EE600AC4ED020A84ED080A10BD1B
:100EF000100B00201003002000000020C05BC83F42
:100F0000000000000000F03F000000001AE950411E
:100F100000000040E17A843F52B87E3F0AD7A33BED
:100F200010B504F093FC0D4807F086F8642007F034
:100F30008BFA032007F0EEF8642007F085FA04200E
:100F400007F02EF9642007F07FFA002007F002F97D
:100F5000BDE81040642007F077BA0000E40A0020E2
:100F6000F8B50D46164640F080000090094C002070
:100F70002080642301226946074801F074FD642340
:100F800032462946044801F067FC012020800020F9
:100F9000F8BD0000B0824042280A002008461146F1
:100FA0001A46FFF7DDBF01F07F001946AFF300805E
:100FB000F7B50D4616460A4C002020806423012216
:100FC0006946084801F04FFD64232A46314605482A
:100FD00001F049FD0120208003B00020F0BD000099
:100FE000B0824042280A002007F02EBA022803D21D
:100FF000024900B11420086070470000400800401A
:1010000070B52DED028B1E259FED158B0024164E1D
:1010100006F094FF3069FFF7F6FA53EC182BFFF750
:1010200059F941EC180B1E2007F00EFA641CAC4273
:10103000EED32846FFF7E7FA41EC100B51EC180B02
:1010400053EC102BFFF75FFAFFF7FDFA0749086032
:101050009FED070A81ED010ABDEC028B70BD000017
:101060000000000000000000100B00201003002012
:1010700000000000012007F0E7F9FBE770B53E4DE6
:10108000286C401C2864C00701D000F051F900F022
:10109000CDF995ED080A3948F8EEC00AD0ED071AE7
:1010A00000F5A07071EEA00A90ED071AA03830EE9E
:1010B000C12AD0ED070A00F5A070A0F5F87472EE11
:1010C000602A90ED072A72EE822AFDEEE22A12EEE5
:1010D000901AF8EEC02A216072EEE12A72EEC12A5F
:1010E00072EEA02A72EE822AFDEEE22AC4ED012AF7
:1010F000F8EEC02AB8EEC00A72EEE12A31EE800A9C
:1011000072EE812A30EE010A72EEE02A30EE200AF9
:1011100072EE822A30EE020AFDEEE22ABDEEC00A2D
:10112000C4ED022A84ED030AE86910B12878032887
:1011300014D0287800281ED10021084603F026FE8E
:101140000021012003F022FE0021022003F01EFEF8
:101150000021BDE87040032003F018BE002003F01A
:1011600015FE0120616803F011FE0220A16803F062
:101170000DFEE168EDE770BD3C010020F4040020A5
:1011800010B55B482DED028B04F05AFA594804F073
:1011900057FA5748A03004F053FA5648A03004F0EC
:1011A0004FFA5348503804F04BFA5248503804F084
:1011B00047FA4F48503004F043FA4E48503004F09C
:1011C0003FFA9FED4D8AB0EE080A4948B0EE483A22
:1011D000F0EE482AB0EE482AF0EE481AB0EE481A6F
:1011E000F0EE480A04F02FFAB0EE483AF0EE482A42
:1011F000B0EE482AF0EE481AB0EE481AF0EE480A6F
:10120000B0EE080A3B4804F01EFA3948B0EE483AFE
:10121000F0EE482AB0EE482AF0EE481AB0EE481A2E
:10122000F0EE480AB7EE000AA03004F00CFA31489C
:10123000B0EE483AF0EE482AB0EE482AF0EE481AEE
:10124000B0EE481AF0EE480AB2EE040AA03004F0FC
:10125000FAF9DFED2A8A2648B0EE483AF0EE482A3D
:10126000B0EE482AF2EE041AB0EE681AF0EE480A20
:10127000B1EE0C0A503804F0E6F91E48B0EE483AD8
:10128000F0EE482AB0EE482AF2EE041AB0EE681AE0
:10129000F0EE480AB1EE0C0A503804F0D4F91448C4
:1012A000B0EE483AF0EE482AB0EE482AF0EE481A7E
:1012B0009FED131AF0EE480AB3EE040A503004F022
:1012C000C2F9B0EE483AF0EE482AB0EE482AF0EE05
:1012D000481AF0EE480ABDEC028BB2EE040A05484B
:1012E000BDE810409FED071A503004F0ACB9000083
:1012F0004405002084060020000000000000484350
:1013000000803B450060EA4682B008F075FD019020
:10131000064C322101A807F039FF20780028F8D0C8
:101320000128F6D100F0EEF8F3E700003C010020C0
:1013300070B52DED028BDFED368A07F06BF800EE0D
:10134000100A344CB8EE400AA06B30B100EE900A9F
:10135000F8EE600A70EE601A01E0F0EE681ABCEE7A
:10136000C00AB6EE002A84ED0E0A94ED120A20EEB1
:10137000020A00F041F9284D85ED000A94ED110AAA
:1013800020EE020A00F038F9254885ED010A234EC7
:1013900090ED001ABDEEE18AD6ED2B0A30EE010A7F
:1013A00094ED021A18EE101A05F16C0030EE010AE5
:1013B00004F088F81B4895ED000AD6ED2A0A90ED56
:1013C000001A18EE101A05F5D67030EE010A94EDE9
:1013D000031A30EE010A04F075F8D6ED2C0A18EE67
:1013E000101AB0EE680A05F5867004F06BF80E4826
:1013F00018EE101A90ED000A05F51370F1EE400A90
:1014000094ED060ABDEC028BBDE8704004F05AB8BA
:10141000000000003C010020D8040020AC030020A4
:10142000A8010020AC010020CC04002010B52DED57
:10143000048B9FED2C8A06F0EDFF00EE100A2A497E
:10144000B8EE400AC86B28B100EE900AF8EE600AC8
:1014500030EE608ABCEEC00A244CDFED258A81EDB7
:101460000F0A94ED1B0A9FED239A234820EE280AC9
:10147000BDEEC88AC0EE090A90ED070A18EE101AF0
:10148000503804F01FF894ED1A0A1C4818EE101A90
:1014900020EE280AC0EE090A90ED070A503804F041
:1014A00011F894ED1C0A144818EE101A20EE280AC0
:1014B000A030C0EE090A90ED070A503804F002F897
:1014C0000F4818EE101A90ED010A0C48A030F1EE0A
:1014D000400A90ED070A5038BDEC048BBDE810407F
:1014E00003F0F0BF000000003C010020AC0300202E
:1014F00000003443DB0F49404405002084060020EF
:10150000CC04002070B5394C3A4901209FED380ACF
:10151000207081ED130A503942F20F7581ED130AE4
:10152000F03981ED130A503981ED130AF03181ED64
:10153000130A503981ED130A01F5C87181ED130AC0
:10154000503981ED130AE0612946002003F01EFCAA
:101550002946012003F01AFC2946022003F016FC5C
:101560002946032003F012FC322006F06DFF002113
:10157000084603F00BFC0021012003F007FC0021CA
:10158000022003F003FC0021032003F0FFFB4FF4D3
:101590009675284606F058FF41F2883631460020FD
:1015A00003F0F4FB3146012003F0F0FB314602204A
:1015B00003F0ECFB3146032003F0E8FB322006F099
:1015C00043FF0021084603F0E1FB0021012003F066
:1015D000DDFB0021022003F0D9FB0021032003F0F2
:1015E000D5FB03202562207070BD00003C01002067
:1015F00000000000840600200E48B5EEC00AD0EDC1
:10160000090AF1EE10FA02D220EE401A01E020EEB3
:10161000001A81EE200AB4EEE00AF1EE10FA06DCC0
:10162000F1EE600AB4EEE00AF1EE10FA01D2B0EE8B
:10163000600A70473C010020014800F0C1B9000079
:101640001C09002001680A4BCAB2103AA3FB0232FF
:101650001209084B9B5C4365032A04D96FF3090107
:10166000091D016502E06FF309010165006D704716
:10167000ABAAAAAAC6A2000810B4D0F800C0DCF831
:10168000004024F48024CCF80040D0F800C0CCF80E
:1016900004308368402B05D0036899600068C260FD
:1016A00010BC704703689A600068C16010BC704746
:1016B000022000F0E9BA000038B44FF0000CCDF879
:1016C00000C090F83C20012A1BD0012280F83C2069
:1016D0000A680724092A17D90368DD680A3A02EB69
:1016E000420204FA02F225EA0202DA600A788B6802
:1016F0000A3A02EB420293400268D4682343D36063
:1017000014E038BC0220704703681D6902EB4202F6
:1017100004FA02F225EA02021A610A788B6802EBE7
:101720004202934002681469234313614A681F24EC
:10173000072A15D203685D6B521E02EB820204FA7F
:1017400002F225EA02025A630A8893B20A79521E0B
:1017500002EB820293400268546B234353632CE0F4
:101760000D2A15D203681D6BD21F02EB820204FA08
:1017700002F225EA02021A630A8893B20A79D21F9A
:1017800002EB820293400268146B2343136314E05C
:101790000368DD6A0D3A02EB820204FA02F225EADE
:1017A0000202DA620A8893B20A790D3A02EB8202E7
:1017B00093400268D46A2343D3621A4B02689A4268
:1017C00008D10A68122A05D1D3F8042342F4800212
:1017D000C3F8042302689A421FD1134C0A68A2423C
:1017E00001D0112A19D1D3F8042342F40002C3F81E
:1017F00004230968A14210D10C490D4A0968B1FBC4
:10180000F2F101EB810149000091009929B10099A1
:10181000491E009100990029F9D180F83CC038BCDC
:10182000002070470020014012000010A403002097
:1018300040420F0070477047704770B50446002C57
:1018400004D094F83D00002510B106E0012070BDE1
:1018500084F83C50204600F00FF8022084F83D0048
:101860002046FFF777F92564012084F83D0084F8CD
:101870003C50002070BD000070B586B00546286859
:10188000A0F18041B1F5903130D11948016841F49F
:1018900080710160006800F480700090F020019079
:1018A000032402940026039601A9124800F0F8F9D7
:1018B000012001900294039601A90F4800F0F0F96D
:1018C0000F4C0E4820606660A660E660001520613F
:1018D000400060618000A0614011E0614002206230
:1018E0006662204600F05CF9AC63A56306B070BD8B
:1018F00044380240000002400004024010640240EC
:101900001C09002038B504468C460025009594F843
:101910003C00012828D0012084F83C002068416860
:1019200041F0806141602068816841F4807181608C
:10193000A16B1E48C863A16B1D480864A16B1D48BC
:1019400088642068134600F14C016246A06B00F0E9
:1019500071F9122084F83D0084F83C5020688168B9
:1019600011F0010F02D015E0022038BD816841F06E
:1019700001018160104811490068B0FBF1F000EBF3
:1019800040000090009828B10098401E00900098F8
:101990000028F9D12068816811F0405F03D1816887
:1019A00041F080418160002038BD0000C10A00087C
:1019B000F90A0008E10A0008A403002040420F00D1
:1019C0002DE9F0410446256D286894F8542008213B
:1019D00001FA02F210424FF004074FF0000619D04E
:1019E0002068026812F0040F14D0026822F004028A
:1019F000026094F8540001FA00F0A860E06C40F036
:101A00000100E06484F8357084F83460A16C09B199
:101A100020468847286894F854205F4901FA02F26A
:101A2000104219D02068426912F0800F14D0426928
:101A300022F08002426194F8540001FA00F0A8609C
:101A4000E06C40F00200E06484F8357084F83460A3
:101A5000A16C09B120468847286894F854204F4962
:101A600001FA02F2104219D02068026812F0020F47
:101A700014D0026822F00202026094F8540001FAC5
:101A800000F0A860E06C40F00400E06484F8357079
:101A900084F83460A16C09B120468847286894F81E
:101AA0005410102202FA01F108422ED02068036877
:101AB00013F0080F29D0036813F4802F4FF031037F
:101AC00010D0A9602068016811F4002F07D00068C9
:101AD00010F4002F15D0412084F8350011E084F86F
:101AE00035300EE0016811F4807F03D1016821F0E8
:101AF0000801016094F8540002FA00F0A86084F82C
:101B00003530216C09B120468847286894F8541074
:101B1000202202FA01F108423BD02068036813F04A
:101B2000100F36D0036813F4802F17D0A9602068F7
:101B3000016811F4002F0AD0006810F4002F28D09B
:101B4000E16B002925D02046BDE8F0410847616CD3
:101B500000291ED02046BDE8F0410847016811F475
:101B6000807F03D1016821F01001016094F85400D6
:101B700002FA00F0A860E06CE064112084F83500FF
:101B800084F83460E16B002903D02046BDE8F041C1
:101B90000847BDE8F08100000100800004008000DB
:101BA00070B50446002C27D0616A022084F8350005
:101BB000226810681E4B1840D4F808C06368256975
:101BC00043EA0C03D4F80CC04CEA050C43EA0C03BE
:101BD000D4F814C043EA0C03D4F818C043EA0C0349
:101BE000D4F81CC043EA0C03D4F820C043EA0C0329
:101BF0001843042902D005E0012070BD236BE16A7F
:101C00001943084310602268506920F00700616A98
:101C10000843042901D1A16A084350612046FFF717
:101C200011FD0020E064012084F83500002070BD23
:101C30003F8010F010B5044694F83400012820D0FD
:101C4000012084F83400022084F835002068D0F8A0
:101C500000C02CF0010CC0F800C02046FFF70CFDBE
:101C60002068016841F01E0101602068416941F06F
:101C7000800141612068016841F00101016000209C
:101C800010BD022010BD704710B504490A68024219
:101C900002D00860FFF7F7FF10BD0000143C0140C0
:101CA0002DE9F84F0022DFF8C491DFF8BC814FF036
:101CB000030E0F2709F1040A012303FA02F50B684A
:101CC0002B40AB427ED1D1F804C0BCF1020F02D050
:101CD000BCF1120F12D14FEAD20C00EB8C0CDCF8E5
:101CE00020605407E40E07FA04FB26EA0B06D1F83D
:101CF00010B00BFA04F43443CCF8204006684FEAE5
:101D0000420C0EFA0CF4A64391F804B00BF0030B4E
:101D10000BFA0CFB4BEA060606604E68012E05D056
:101D2000022E03D0112E01D0122E11D18668A643A7
:101D3000D1F80CB00BFA0CFB4BEA0606866046683D
:101D400026EA05050E79C6F3001696403543456030
:101D5000C56825EA04048D6805FA0CFC4CEA040CFD
:101D6000C0F80CC0D1F804C01CF0805F66D0D8F871
:101D700000C04CF4804CC8F800C0D8F800C00CF487
:101D8000804CCDF800C022F0030C0CF1804505F525
:101D90009835D5F808C89407240F07FA04F62CEAFA
:101DA0000606A0F1804CBCF5003C4DD0BCF5806C23
:101DB0004DD0BCF5806C4DD0BCF5806C4DD0BCF5E1
:101DC000806C00E03AE04BD04FF0050C0CFA04FCBC
:101DD0004CEA060CC5F808C8D9F800C02CEA030C78
:101DE0004C6814F4803F01D04CEA030CC9F800C0E1
:101DF000DAF800C02CEA030C4C6814F4003F01D060
:101E00004CEA030CCAF800C0194CD4F800C02CEA04
:101E1000030C4D6815F4801F01D04CEA030CC4F884
:101E200000C0144CD4F800C02CEA030C4D6815F423
:101E3000001F01D04CEA030CC4F800C0521C102A49
:101E4000FFF43AAFBDE8F88F4FF0000CBEE74FF05B
:101E5000010CBBE74FF0020CB8E74FF0030CB5E7FD
:101E60004FF0040CB2E7000044380240003C01404F
:101E7000083C01400C3C01404269514041617047BF
:101E8000002A01D081617047090481617047000018
:101E90000148006870470000A00300200248016864
:101EA000491C016070470000A003002010B50B48DA
:101EB000016841F400710160016841F480610160D2
:101EC000016841F480710160032000F065F8002092
:101ED00000F006F800F015F8002010BD003C0240AC
:101EE00010B5044600F0AAF94FF47A72B0FBF2F094
:101EF00001F012F800222146501E00F019F80020CF
:101F000010BD10B5032000F047F80022BDE81040D6
:101F10001146501E00F00CB800F01F01012202FA19
:101F200001F14009800000F1E020C0F80011704785
:101F300010B4184B1B68C3F30223C3F1070CBCF1A8
:101F4000040F01D94FF0040C1C1D072C01D20023F3
:101F500000E0DB1E012404FA0CFCACF1010C0CEADD
:101F60000101994004FA03F35B1E1A401143002853
:101F700008DA00F00F0000F1E020090180F8141DDC
:101F800010BC704700F1E020090180F8001410BC7B
:101F9000704700000CED00E000F00700064A1168F1
:101FA0004FF6FF03194041EA002040F0FD7040F079
:101FB00080601060704700000CED00E02DE9F047F4
:101FC00004460E46DFF868A2DAF80000994900F0EE
:101FD0000F00994F06F0FF0941F28838B04270D2E5
:101FE0008AF80090DAF8000000F00F00B04202D04A
:101FF0000120BDE8F087207810F0020F05D0386886
:10200000A26820F0F00010433860207810F0010F33
:1020100049D06068012808D002280DD003280BD0D1
:10202000096811F0020F29D00AE0096811F4003F95
:1020300006D10120BDE8F087096811F0007F1AD0B1
:10204000396821F0030108433860FFF721FF054696
:102050006068012815D0022826D003283BD03868B4
:1020600010F00C0F1FD0FFF713FF401B404539D96C
:102070000320BDE8F0870120BDE8F0870120BDE81E
:10208000F087386800F00C0004280CD0FFF700FF40
:10209000401B404502D90320BDE8F087386800F0B6
:1020A0000C000428F2D1A8E0386800F00C000828E1
:1020B00070D0FFF7EDFE401B404503D90320BDE87B
:1020C000F08714E0386800F00C000828F1D194E0A3
:1020D0000320BDE8F0873868FFF7DAFE401B404573
:1020E000F9D9F5E7386810F00C0FBCD185E02078FD
:1020F00010F0020F05D03868A26820F0F0001043FD
:102100003860207810F0010F6CD06068012808D08A
:1021100002280DD003280BD0096811F0020F29D036
:102120000AE0096811F4003F06D10120BDE8F087FC
:10213000096811F0007F1AD0396821F003010843C3
:102140003860FFF7A5FE05466068012815D0022813
:1021500027D003283BD0386810F00C0F42D0FFF78F
:1021600097FE401B404539D90320BDE8F087012088
:10217000BDE8F0870120BDE8F087386800F00C006A
:1021800004282FD0FFF784FE401B404503D90320CD
:10219000BDE8F08731E0386800F00C000428F1D188
:1021A00020E0386800F00C0008281BD0FFF770FE14
:1021B000401B404502D90320BDE8F087386800F095
:1021C0000C000828F2D10DE00320BDE8F087386844
:1021D000FFF75EFE401B4045F9D9F5E7386810F07F
:1021E0000C0FBCD18AF80090DAF8000000F00F0064
:1021F000B04202D00120BDE8F087207810F0040F33
:1022000005D03868E16820F4E05008433860207851
:1022100010F0080F06D03868216920F4604040EAC9
:10222000C10038600020FFF75BFE0020BDE8F087AA
:10223000003C0240003802400838024010B500F06F
:1022400043F808490968F02292FAA2F201F0F0017D
:10225000B2FA82F2D140044A515CC8400349086096
:1022600010BD000008380240CEA20008A4030020E0
:1022700010B5FFF7E3FF074909684FF4E05292FAFF
:10228000A2F201F4E051B2FA82F2D140024A515C6A
:10229000C84010BD08380240CEA2000810B5FFF7B4
:1022A000CDFF074909684FF4604292FAA2F201F4A7
:1022B0006041B2FA82F2D140024A515CC84010BD7E
:1022C00008380240CEA2000810B41F48006810F081
:1022D0000C011E481BD04FEA600C042916D00829B7
:1022E00015D11B4A116801F03F01136813F4800FE8
:1022F00047F6C0730DD0BCFBF1F01168194093FA9A
:10230000A3F3B3FA83F3D94048430CE0604610BC12
:102310007047B0FBF1F01168194093FAA3F3B3FAD8
:1023200083F3D940484311684FF4403292FAA2F245
:1023300001F44031B2FA82F2D140491C4900B0FBAD
:10234000F1F010BC70470000083802400024F4008F
:10235000043802402DE9F84F0446DFF8E8B320784E
:10236000F94D10F0010F4FF0000741F2883660D0B0
:10237000DBF8000000F00C0004280AD0DBF80000B5
:1023800000F00C0008280DD1281D006810F4800F03
:1023900008D0286810F4003F4BD0606878BB01205B
:1023A000BDE8F88FDFF8A49389F80070FFF770FD9F
:1023B0008046286810F4003F0CD0FFF769FDA0EBC1
:1023C0000800B04202D90320BDE8F88F286810F455
:1023D000003FF2D1207989F800006068A8B1FFF7CA
:1023E00057FD8046286810F4003F22D1FFF750FDCA
:1023F000A0EB0800B04203D90320BDE8F88F18E035
:10240000286810F4003FF1D013E0FFF741FD80464B
:10241000286810F4003F0CD0FFF73AFDA0EB08004D
:10242000B04202D90320BDE8F88F286810F4003FBD
:10243000F2D12078DFF8188310F0020F64D0DBF8B7
:1024400000004FF0F80A10F00C0F17D0DBF8000076
:1024500000F00C00082804D1BE48006810F4800F7A
:102460000CD0E068C8B30120C8F80000FFF710FDE9
:102470008146286810F0020F16D022E0286810F07C
:10248000020F05D0E068012802D00120BDE8F88FD6
:1024900028689AFAAAF22169B2FA82F220F0F800CA
:1024A0009140084328602FE0FFF7F2FCA0EB090001
:1024B000642802D90320BDE8F88F286810F0020FC5
:1024C000F2D028689AFAAAF22169B2FA82F220F0D0
:1024D000F80091400843286016E0FFE7C8F8007054
:1024E000FFF7D6FC8146286810F0020F0CD0FFF7EA
:1024F000CFFCA0EB0900642802D90320BDE8F88FC7
:10250000286810F0020FF2D1207810F0080F34D0B4
:102510009148DFF848A26169C1B101210160FFF76C
:10252000B7FC8146DAF8000010F0020F25D1FFF762
:10253000AFFCA0EB0900642802D90320BDE8F88FA6
:10254000DAF8000010F0020FF1D016E00760FFF794
:102550009FFC8146DAF8000010F0020F0DD0FFF763
:1025600097FCA0EB0900642802D90320BDE8F88F8E
:10257000DAF8000010F0020FF1D1207810F0040F0B
:1025800072D07748016841F080510160006800F026
:1025900080500090DFF8CCA1DAF8000040F48070A1
:1025A000CAF80000FFF774FC8146DAF8000010F466
:1025B000807F0DD1FFF76CFCA0EB0900642802D9E5
:1025C0000320BDE8F88FDAF8000010F4807FF1D026
:1025D000DFF894A18AF80070FFF75AFC8146DAF818
:1025E000000010F0020F0DD0FFF752FCA0EB090025
:1025F000B04202D90320BDE8F88FDAF8000010F0ED
:10260000020FF1D1207A8AF80000A068B0B1FFF77C
:102610003FFC8146DAF8000010F0020F24D1FFF7EA
:1026200037FCA0EB0900B04202D90320BDE8F88FC7
:10263000DAF8000010F0020FF1D015E0FFF728FCE7
:102640008146DAF8000010F0020F0DD0FFF720FCF1
:10265000A0EB0900B04202D90320BDE8F88FDAF8F8
:10266000000010F0020FF1D1A069E8B3DBF8001010
:1026700001F00C01082979D0022810D0C8F8607048
:10268000FFF706FC0446286810F0007F74D0FFF7BF
:10269000FFFB001B64286BD90320BDE8F88FC8F846
:1026A0006070FFF7F5FB0646286810F0007F0BD03E
:1026B000FFF7EEFB801B642802D90320BDE8F88FEA
:1026C000286810F0007FF3D1216AE069626A014353
:1026D00047F6C07090FAA0F0B0FA80F002FA00F06D
:1026E0004FF0FF33A26A00E046E003EB52024FF4E2
:1026F000403393FAA3F3B3FA83F39A4010430843A9
:102700004FF0706292FAA2F2E16AB2FA82F291405C
:102710000143104801600120C8F86000FFF7B8FBD2
:102720000446286810F0007F26D1FFF7B1FB001B9C
:10273000642802D90320BDE8F88F286810F0007FD4
:10274000F3D019E008380240003802400238024055
:102750000000474204380240800E4742743802406D
:1027600040380240007000407038024007E0FFE748
:10277000286810F0007F8AD10020BDE8F88F012082
:10278000BDE8F88F70B50446002C04D094F85100D1
:10279000002510B106E0012070BD84F8505020469D
:1027A00000F034F8022084F851002068016821F01C
:1027B00040010160A168606822690843E168114333
:1027C000084361690843218B01F400710843E16902
:1027D0000843216A0843A16A084321680860A06988
:1027E000042101EA1040616A0843216848602168B9
:1027F000E06A08612068C16921F40061C161656512
:10280000012084F85100002070BD000000B587B0A1
:102810000068A0F18041B1F5605117D10C48016802
:1028200041F480410160006800F4804001904FF461
:102830006040029002200390012004900320059044
:102840000520069002A90348FFF72AFA07B000BD49
:102850004038024000040240F0B583B004461F46F1
:1028600094F85100012802D003B00220F0BDC1B19C
:10287000BAB194F85000012816D0012684F85060AF
:10288000222084F8510000256565A163A287E287B4
:10289000A564E564A586E586A068B0F5004F06D07E
:1028A0000AE003B00120F0BD03B00220F0BD2068B3
:1028B000036823F480430360A06AB0F5005F09D188
:1028C0002068036823F4005303602068036843F41E
:1028D000005303606068B0F5827F01D1A06828B121
:1028E0002068016811F0400F0AD00DE084F85050C4
:1028F00013460A462046009700F081F903B0F0BD68
:10290000016841F040010160E06860B1E08F01289A
:1029100039D93B4600220121204602F01DFF28B391
:1029200003B00320F0BDE08F012815D93B460022FB
:102930000121204602F010FF10B103B00320F0BDCA
:102940002068C168A06B421CA2630170E08F401E2A
:1029500080B2E0870128E9D8A06AB0F5005F1BD1FA
:102960002068016841F48051016015E02068C0686A
:10297000A16B0880A06B801CA063E08F401E80B21A
:10298000E0870128C5D8A06AB0F5005F04D12068AF
:10299000016841F4805101603B460022012120463C
:1029A00002F0DAFE10B103B00320F0BDE06870B1B0
:1029B0002068C068A16B0880A06B801CA063E08FBA
:1029C000401EE087A06AB0F5005F07D019E02068DC
:1029D000C168A06B421CA2630170F0E73B46002275
:1029E0000121204602F0B8FE30B1606D40F00200D7
:1029F000606503B00320F0BD2068C0680290BDF898
:102A000008006068B0F5827F0BD1A068B0F5004F78
:102A100002D0B0F5806F04D12068016821F0400138
:102A2000016084F8516020688168C1F30011A26AD6
:102A3000B2F5005F12D189B1616D41F002016165AB
:102A4000016821F4005101602068016841F40051DF
:102A5000016084F8505003B00120F0BD84F850505C
:102A600003B00020F0BDF8B504461F4694F85100AD
:102A7000012801D00220F8BDC1B1BAB194F85000CC
:102A8000012815D0012684F85060122084F85100E6
:102A9000002565652163A286E286E564A564A587B5
:102AA000E587A06AB0F5005F04D00DE00120F8BD15
:102AB0000220F8BD2068016821F4005101602068FF
:102AC000016841F400510160A068B0F5004F04D1E5
:102AD0002068016841F4804101602068016811F0BC
:102AE000400F03D1016841F040010160E06828B166
:102AF000606890B3E08E012830D039E0606810B192
:102B0000E08E012808D1206B411C216321680078E8
:102B1000C860E08E401EE086E08EA0B13B460022F9
:102B20000221204602F018FE08B10320F8BD206BF8
:102B3000411C216321680078C860E08E401E80B28D
:102B4000E0860028EAD1A06AB0F5005F31D12068A4
:102B5000016841F4805101602BE0FFE7206B2168A0
:102B60000088C860206B801C2063E08E401EE086D9
:102B7000E08EA8B13B4600220221204602F0ECFD87
:102B800008B10320F8BD206B21680088C860206B65
:102B9000801C2063E08E401E80B2E0860028E9D1D0
:102BA000A06AB0F5005F04D12068016841F480514B
:102BB00001603B4600220221204602F0CDFD28B1F3
:102BC000606D40F0200060650320F8BD3B460122A7
:102BD0008021204602F0C0FD28B1606D40F0200049
:102BE00060650320F8BDA06818B92068C1688068D6
:102BF000009084F8516084F850500020F8BDF8B57A
:102C00000446069F94F85100012803D0222801D0E1
:102C10000220F8BD69B162B15BB194F8500001289F
:102C200009D0012684F8506094F85100012804D09E
:102C300006E00120F8BD0220F8BD322084F85100E2
:102C400000256565A263A387E3872163A386E386E6
:102C5000A564E564A06AB0F5005F09D12068016849
:102C600021F4005101602068016841F400510160C5
:102C70002068016811F0400F03D1016841F0400164
:102C80000160E068B0F5006F06D06068002875D07C
:102C9000B0F5827F7FD08AE0606828B1B0F5827F8E
:102CA0000CD1E08E012809D1206B21680088C86012
:102CB000206B801C2063E08E401EE086E08EE8B929
:102CC000A06AB0F5005F04D12068016841F480512A
:102CD00001603B4600220121204602F03DFD08B183
:102CE0000320F8BD2068C068A16B0880A06B801C21
:102CF000A063E08F401EE08700F0BCB83B46002296
:102D00000221204602F028FD08B10320F8BD206B07
:102D100021680088C860206B801C2063E08E401E04
:102D200080B2E08640B9A06AB0F5005F04D12068A7
:102D3000016841F4805101603B4600220121204698
:102D400002F00AFD08B10320F8BD2068C068A16B3D
:102D50000880A06B801CA063E08F401EE087E08E9F
:102D60000028CBD1606800287AD13B46002201219F
:102D7000204602F0F1FC18B10320F8BD0EE00AE095
:102D80002068C068A16B0880A06B801CA063E08FE6
:102D9000401EE0876EE0E08E012808D1206B411CC8
:102DA000216321680078C860E08E401EE086E08ED6
:102DB000C8B9A06AB0F5005F04D12068016841F489
:102DC000805101603B4600220121204602F0C4FCF4
:102DD00008B10320F8BD2068C068A16B0870E08FBF
:102DE000401EE08746E03B4600220221204602F0DA
:102DF000B3FC08B10320F8BD206B411C216321689E
:102E00000078C860E08E401E80B2E08640B9A06ABB
:102E1000B0F5005F04D12068016841F48051016081
:102E20003B4600220121204602F096FC08B1032017
:102E3000F8BD2068C168A06B421CA2630170E08FDE
:102E4000401EE087E08E0028CDD1606840B93B4647
:102E500000220121204602F07FFC10B10320F8BDC2
:102E600008E02068C168A06B421CA2630170E08F7B
:102E7000401EE087A06AB0F5005F11D13B460022FA
:102E80000121204602F068FC28B1606D40F002008C
:102E900060650320F8BD2068C0680090BDF80000A0
:102EA0003B4601228021204602F056FC28B1606D8D
:102EB00040F0200060650320F8BD84F85160206870
:102EC0008168C1F30011A26AB2F5005F11D181B12E
:102ED000616D41F002016165016821F400510160FA
:102EE0002068016841F40051016084F850500120CD
:102EF000F8BD84F850500020F8BD4FF0E0210428C0
:102F000004D0086920F0040008617047086940F0A7
:102F10000400086170470000401EB0F1807F01D3BB
:102F2000012070474FF0E0214861044AF020107002
:102F300000208861072008610020704723ED00E031
:102F400010B490F83820012A25D0012280F83820CA
:102F5000022380F83930D1F804C00B68CC6843EA0A
:102F60000C03D1F808C04CEA040C43EA0C03D1F876
:102F700010C043EA0C03D1F814C0896943EA0C037A
:102F800019430368596480F83920002180F838100B
:102F900010BC0020704710BC0220704710B490F89D
:102FA0003820012A2AD0012380F83830022280F804
:102FB00039200268D2F804C02CF0700CC2F804C0AA
:102FC0000268D2F804C00C684CEA040CC2F804C0D1
:102FD0000268D2F808C02CF0800CC2F808C0026861
:102FE000D2F808C049684CEA0101916080F8393094
:102FF000002180F8381010BC0020704710BC02205F
:10300000704710B50446002C03D094F8390010B175
:1030100007E0012010BD002084F83800204600F0B1
:103020000DF8022084F83900211D206802F00AFE04
:10303000012084F83900002010BD000010B586B0D2
:103040000168002202231B48A1F180444FF0010CCB
:10305000B4F5803417D0B1F1804F12D116490C6805
:1030600044F001040C60096801F0010100910F2196
:103070000191029303920492CDF814C001A9FEF7C6
:103080000FFE06B010BD0D490C6844F001040C6041
:10309000096801F0010100914FF470610191029300
:1030A00003920492CDF814C001A9FEF7F9FD06B011
:1030B00010BD000000000240403802404438024089
:1030C00070B5044694F83800012818D0012584F81A
:1030D0003850022084F839002068826822F0770294
:1030E00022F47F428260086850283AD00EDC202803
:1030F0005FD006DC002852D0102863D154E00220B3
:1031000070BD30285AD040285CD13EE0602832D0D3
:1031100070280CD0B0F5805F03D0B0F5005F51D1BE
:1031200013E02068816821F0070181604AE0CB68E4
:103130004A688968206802F0DAFD2068816821F019
:10314000770141F0770181603CE0CB684A6889688B
:10315000206802F0CCFD2068816841F480418160E4
:1031600030E0CA684968206802F090FE502120686B
:1031700002F0C8FD26E0CA684968206802F099FE9E
:103180006021206802F0BEFD1CE0CA684968206822
:1031900002F07CFE4021206802F0B4FD12E0002124
:1031A000206802F0AFFD0DE01021206802F0AAFDBA
:1031B00008E02021206802F0A5FD03E0302120680E
:1031C00002F0A0FD84F83950002084F8380070BD6A
:1031D00070B504460D4694F8380001280DD001263C
:1031E00084F83860022084F8390042B1042A1AD0E9
:1031F000082A2DD00C2A53D13EE0022070BD29466A
:10320000206802F087FD2068816941F00801816132
:103210002068816921F004018161206881692A693F
:10322000114381613CE02946206802F0A2FD20683C
:10323000816941F4006181612068816921F48061C4
:103240008161206881692A6941EA0221816127E060
:103250002946206802F0C0FD2068C16941F00801DC
:10326000C1612068C16921F00401C1612068C169A0
:103270002A691143C16113E02946206802F0DFFD8D
:103280002068C16941F40061C1612068C16921F40D
:103290008061C1612068C1692A6941EA0221C16176
:1032A00084F83960002084F8380070BD10B50446F9
:1032B000002C03D094F8390010B107E0012010BDB4
:1032C000002084F83800204600F00CF8022084F832
:1032D0003900211D206802F0B5FC012084F8390076
:1032E000002010BD00B587B00068A0F18041B1F5A5
:1032F000006115D10B48016841F0040101600068CC
:1033000000F0040001904FF400700290022003903E
:10331000002104910591069002A90348FEF7C0FC24
:1033200007B000BD403802400004024010B504461A
:103330000122206802F0CEFC2068A0F18041B1F5A6
:10334000803103D1416C41F400414164206801683F
:1033500041F001010160002010BD70B50446002C51
:1033600004D094F83900002510B106E0012070BDAA
:1033700084F83850204600F021F8022084F8390003
:103380002068C16821F40051C160204602F0BEFDF2
:103390002068016921F4904101612068416921F0B0
:1033A0002A0141612068C16841F40051C160E563B0
:1033B000012084F83900002070BD000000B587B0FE
:1033C0000068A0F18041B1F588311ED11048016834
:1033D00041F010010160006800F010000190C02071
:1033E0000290022003900120049003200590072002
:1033F000069002A90748FEF753FC0022072125206A
:10340000FEF796FD2520FEF787FD07B000BD000002
:10341000443802400004024090F83930012B03D0B8
:10342000122B01D00220704731B32AB390F8383004
:10343000012B23D0012380F8383081628285C28538
:103440000022C26390F83910122919D0222180F885
:1034500039100168CB6843F48073CB6001684B6915
:1034600043F001034B6180F838200068C16841F0E7
:103470002001C16000207047012070470220704782
:10348000322180F83910E4E770B5F84DF84E29780C
:10349000032905D170783070B0787070F078B07012
:1034A000F4484068C0B2705400F060FB30780128E6
:1034B0000BD17078022808D1B078032805D1F078B4
:1034C000042802D12878401C2870287809287DD14A
:1034D000307948B101280FD17079B179000400EB3F
:1034E0000120F179441807E07079B179000400EB0C
:1034F0000120F17908444442307A9FEDDF0A5528D3
:1035000000F00C8321DCA0F12000352880F01B8323
:10351000DFE800F062768AF8F6F5A0B4C8F4F3F2BA
:10352000F1F0EFEEEEEEEEEEEEEDECEEEEEEEEEEB8
:10353000EEEEEEEEEEEEEEEEEEEBEAE9E8E7E6E5D5
:10354000E4E3E2E1E0DFDEDDDC00CC49EC2800F082
:10355000578223DCE22800F0F68214DC602877D062
:103560000BDC562800F0E382C549572800F0E882BA
:10357000582840F0E88200F0E5BA612869D0642854
:1035800040F0E18219E0E338092880F0DC82DFE8CE
:1035900000F0AFAFEAE9E8E7E6E5E400ED3812282D
:1035A00080F0D182DFE800F0EFEEA4CFEDECEBEAA3
:1035B000E9E8E7E6E5E4E3E2E1E0BFF34F8FB14895
:1035C0000168B14A01F4E061114300E0BDE201602D
:1035D000BFF34F8F00BFFDE700EE904AAB48F8EE17
:1035E000E00A60EE800AC0ED000A00EE904AA848AA
:1035F000F8EEE00A20EE800A80ED000A00F0A3BA9F
:1036000000EE904AA148F8EEE00A60EE800AC0EDB4
:10361000010A00EE904A9E48F8EEE00A20EE800A89
:1036200080ED010A00F08FBA00EE904A9748F8EE5C
:10363000E00A60EE800AC0ED020A00EE904A94486B
:10364000F8EEE00A20EE800A80ED020A00F07BBA74
:103650009AE0A3E000EE904A8E48F8EEE00A60EEB1
:10366000800AC0ED000A00EE904A8B48F8EEE00AAE
:1036700020EE800A80ED000A00F065BA00EE904A64
:103680008448F8EEE00A60EE800AC0ED010A00EE20
:10369000904A8148F8EEE00A20EE800A80ED010AA7
:1036A00000F051BA00EE904A7A48F8EEE00A60EE77
:1036B000800AC0ED020A00EE904A7748F8EEE00A70
:1036C00020EE800A80ED020A00F03DBA1DE213E20E
:1036D00008E2FDE1F2E1E8E1D5E1CBE1C1E1B7E1EA
:1036E000ADE131E129E121E119E111E137E132E117
:1036F00001E2F1E0E9E0E1E0D9E0D1E0AFE017E09C
:103700000BE0FFE700EE904A6448F8EEE00A20EE96
:10371000800A80ED000A00F016BA00EE904A5F4879
:10372000F8EEE00A20EE800A80ED010A00F00BBA04
:1037300000EE904A5948F8EEE00A20EE800A80ED4B
:10374000020A00F000BA00EE904AF8EEE00A20EE1D
:10375000800A81ED000A00F0F6B94AE142E13AE15F
:1037600030E126E10AE100E1CBE0C3E0BBE06DE03F
:1037700063E059E04EE043E038E02DE022E017E05E
:103780000EE104E14AE142E100EE904AF8EEE00A7F
:1037900020EE800A81ED010A00F0D5B900EE904AD2
:1037A000F8EEE00A20EE800A81ED020A00F0CBB9C3
:1037B00000EE904AF8EEE00A20EE800A85ED010A5C
:1037C00000F0C1B900EE904AF8EEE00A20EE800A5F
:1037D00085ED020A00F0B7B900EE904AF8EEE00A73
:1037E00020EE800A85ED030A00F0ADB900EE904AA4
:1037F000F8EEE00A20EE800A85ED040A00F0A3B995
:1038000000EE904AF8EEE00A20EE800A85ED050A07
:1038100000F099B900EE904AF8EEE00A20EE800A36
:1038200085ED060A00F08FB900EE904AF8EEE00A46
:1038300020EE800A85ED070A85E100EE904AF8EE59
:10384000E00A20EE800A85ED080A7CE100EE904A4D
:10385000F8EEE00A20EE800A85ED090A73E100EE39
:10386000104AB8EEC00A85ED150A6CE1300200205E
:10387000C00A0020001001400000803A2407002008
:103880005C0100200CED00E00400FA05F4040020C7
:103890003406002044050020840600209405002002
:1038A00000EE104AB8EEC00A85ED160A4BE100EEB4
:1038B000104AB8EEC00A85ED170A44E100EE104A3E
:1038C000B8EEC00A85ED180A3DE100EE104AB8EEE8
:1038D000C00A85ED190A36E100EE104AB8EEC00ABA
:1038E00085ED1A0A2FE100EE104AB8EEC00A85ED08
:1038F0001B0A28E100EE104AB8EEC00A85ED1C0A4A
:1039000021E100EE104AB8EEC00A85ED1D0A1AE169
:1039100000EE104AB8EEC00A85ED1E0A13E100EE73
:10392000104AB8EEC00A85ED1F0A0CE100EE104AFD
:10393000B8EEC00A85ED200A05E100EE104AB8EEA7
:10394000C00A85ED210AFEE000EE104AB8EEC00A7A
:1039500085ED220AF7E07D4901200870F3E07C49FB
:103960000020086079490870EDE000EE904AF8EE1A
:10397000E00A20EE800A85ED0A0AE4E000EE904AB3
:10398000F8EEE00A20EE800A85ED0B0ADBE000EE9F
:10399000904AF8EEE00A20EE800A85ED0C0AD2E0AB
:1039A00000EE904AF8EEE00A20EE800A85ED0D0A5E
:1039B000C9E000EE904AF8EEE00A20EE800A85EDBC
:1039C0000E0AC0E000EE904AF8EEE00A20EE800A0F
:1039D00085ED0F0AB7E000EE104AB8EEC00A85ED9B
:1039E000100AB0E000EE104AB8EEC00A85ED110AE8
:1039F000A9E000EE104AB8EEC00A85ED120AA2E076
:103A000000EE104AB8EEC00A85ED130A9BE000EE06
:103A1000104AB8EEC00A85ED140A94E000EE904A10
:103A20004C48F8EEE00A20EE800A80ED000AF2EE43
:103A3000040A494880EE801A80ED001A83E000EE07
:103A4000904AF8EEE00A20EE800A85ED230A7AE03B
:103A500000EE904AF8EEE00A20EE800A85ED240A96
:103A600071E000EE904AF8EEE00A20EE800A85ED63
:103A7000250A68E000EE904AF8EEE00A20EE800A9F
:103A800085ED260A5FE000EE904AF8EEE00A60EE6F
:103A9000800AC5ED270A00EE904A3048F8EEE00AA9
:103AA00020EE800A80ED070A4DE000EE904AF8EE25
:103AB000E00A20EE800A85ED280A44E000EE904AF4
:103AC0002748F8EEE00A20EE800A80ED000A3AE08E
:103AD00000EE904A2348F8EEE00A20EE800A80EDDE
:103AE000000A30E000EE904A1F48F8EEE00A20EEAF
:103AF000800A80ED000A26E000EE904AF8EEE00A27
:103B000020EE800A85ED290A1DE000EE904AF8EECD
:103B1000E00A20EE800A85ED2A0A14E000EE904AC1
:103B2000F8EEE00A20EE800A85ED2B0A0BE000EEAD
:103B3000904AF8EEE00A20EE800A85ED2C0A02E0B9
:103B40000C6000E00C600320287070BD3C01002078
:103B500058010020200300202403002084060020B8
:103B600044010020480100209801002038B5544C41
:103B7000D4F8B410491CC4F8B410617804F1C80238
:103B8000022903D1537813709378537050541078EE
:103B9000AA2804D15078852801D1481C607060782B
:103BA00008287CD1D4F8B800401CC4F8B8001079BB
:103BB0008DF8030050798DF8020090798DF801009E
:103BC000D0798DF80000D07810B101283FD074E092
:103BD0009078A070082829D00DDCA0F103013948A5
:103BE000F2EE0E0A052990ED000A66D2DFE801F038
:103BF000080C11161A000B285FDD18285DD119E09A
:103C000031490020487058E030EE600A80ED000A2B
:103C100053E030EE200A80ED000A4EE02B49009878
:103C200008604AE00098FDF7E1F946E0284900986D
:103C3000086042E0BFF34F8F26480168264A01F42E
:103C4000E06111430160BFF34F8F00BFFDE7907843
:103C5000A0709FED220A20B1012810D002282CD19B
:103C60001EE0DDED000A1E48F8EEE00A80EE801A44
:103C700080ED001AFEF70CF9C4F8BC001DE09DEDC4
:103C8000000ADFED180A1848B8EEC00A80EE201AC4
:103C900080ED001AFEF7FCF8C4F8BC000DE00EE061
:103CA000DDED000A1148F8EEE00A80EE801A80EDA2
:103CB000001AFEF7EDF8C4F8BC000220607038BDB1
:103CC000300200209C010020AC030020B401002041
:103CD000B00100200CED00E00400FA0500007A4479
:103CE0008001002000007AC4A0010020840100208F
:103CF0002DE9F04104460D46984694F83900012814
:103D000004D0222802D00220BDE8F0811DB312B3F6
:103D100094F83800012821D0012684F83860002763
:103D2000E76394F8390022281BD0122084F8390068
:103D3000A284E284E08C401EE084A068B0F5805F3D
:103D400013D0434600228021204602F0EBF908B34D
:103D50000320BDE8F0810120BDE8F0810220BDE82C
:103D6000F081322084F83900E2E7434600228021C6
:103D7000204602F0D7F910B10320BDE8F081288871
:103D80002168C0F308004860206908B16D1C05E097
:103D9000AD1C03E0216815F8010B4860E08C002899
:103DA000C8D1434600224021204602F0BBF910B1A1
:103DB0000320BDE8F08194F83900322806D084F859
:103DC000396084F838700020BDE8F081222084F842
:103DD0003900F6E7FEE70000F0B500272DED048B73
:103DE00089B02422B6496846FCF750FA04F012FB69
:103DF000B44C05469FEDB48AA06A48B1281A00EE7B
:103E0000100AB8EE400ADFEDB10AC0EE208A01E0E8
:103E1000F0EE488AA56201F021FCAD4E70780028D2
:103E20007ED096ED1A0AD6ED110A96ED121AD6ED4D
:103E3000131A30EE600AD6ED1B0A96ED152AD6ED60
:103E4000162A70EEC10A96ED1C1AB1EE422AF1EE66
:103E5000622A31EE611AD6ED141A04EE107A03EEDE
:103E6000907AF1EE611A03EE107AF1EE622AB1EE69
:103E7000422AF1EE611AF0EE685A9FED965AF7EE7B
:103E8000004A01F081F8D4ED0C0A94ED105A94ED3B
:103E9000133AD4ED153A30EE850AF0EE002A30EEF2
:103EA000430A30EE639A8DED009A94ED032AD4ED27
:103EB000041A94ED020A94ED051A22EE214AF0EE5E
:103EC000444A00EE414A40EE014A24EE224A64EEA2
:103ED000A29A62EE014ACDED019AF0EE645A40EEEC
:103EE000214A40EE615A65EEA28ACDED028A8DED3F
:103EF000034A30EEC54A74EE030A70EEE30ACDEDD4
:103F0000040A61EE810A64EEA21AB0EE601A00EEB5
:103F1000021A21EE221A8DED051ACDED061A00E0E7
:103F20004BE040EE420A20EEA20A8DED070A34EE85
:103F3000430A70EE230AB0EE410ACDED080A02F002
:103F4000CFFCB0EE408AB0EE680A02F0CFF9F1EE95
:103F5000408AF0EE490AB0EE690A02F0C1FC002086
:103F6000694601EB8002D2ED000A06EB8002401C9C
:103F7000C0B2C2ED1D0A0928F3D386ED2D8AC6ED25
:103F80002E8A86ED2F0ADFED540A68EE201A9FED87
:103F9000531A20EE200A81EE812A68EEA01AC0EEA4
:103FA000010A86ED2A2A81EE812A86ED2B2AC6EDAA
:103FB0002C0A09B0BDEC048BF0BDE06A00B9E562E3
:103FC0004349D6ED080AE43101F10C0291ED000AF3
:103FD000DFF80CC130EE200A81ED000AD1ED010AB4
:103FE00096ED091A70EE810AC1ED010A91ED021AEF
:103FF000D6ED0A1A31EE211A81ED021AD2ED021A1B
:1040000096ED072A71EE821AC2ED021AA088401CB2
:1040100080B2A080E36A63449D42CAD901EE900A4F
:10402000F8EE611A80EE212A00EE100AB8EE400A7E
:10403000C0EE801A00EE100A86ED112AB8EE400A92
:10404000C1EE000AC6ED121AC6ED130AA78081ED73
:10405000008A81ED018A81ED028A82ED028AFCF7F5
:10406000CFFFB7EE000A84ED020A84ED038A84EDE7
:10407000048A84ED058A84ED068A84ED078A84ED3E
:10408000088A84ED098A84ED0C8A84ED0D8A84ED1A
:104090000E8A84ED0F8A84ED108A84ED118A84EDF6
:1040A000128A84ED138A84ED148A84ED158A012026
:1040B00070709FED0C0AE76286ED100A79E7000048
:1040C000E4A100082400002000000000002474493E
:1040D000AC030020CDCC4C3D00003443DB0F494005
:1040E00040420F000AD743BFFF2901DDFF2102E054
:1040F000002900DA00214FF0804238B1012807D0B2
:10410000022807D0032800D151637047916370479C
:10411000D16370471164704710B5204C2DED028BB0
:10412000F0EE408A94ED000AB5EEC00AF1EE10FA06
:1041300004D8B0EE680ABDEC028B10BD94ED060AFF
:10414000D4ED010AB0EE688A00EE608A94ED070AA9
:10415000D4ED020A00EE608A18EE100A02F0C0F8F0
:1041600020B918EE100A02F0B2F808B1B0EE688A71
:1041700094ED030AD4ED060A94ED041A28EE000A21
:10418000D4ED051A00EE810A94ED071AC4ED070A72
:1041900084ED068A01EE210ACDE700007C000020B4
:1041A00010B5204C2DED028BF0EE408A94ED080AFC
:1041B000B5EEC00AF1EE10FA04D8B0EE680ABDEC14
:1041C000028B10BD94ED0E0AD4ED090AB0EE688A98
:1041D00000EE608A94ED0F0AD4ED0A0A00EE608AC0
:1041E00018EE100A02F07CF820B918EE100A02F05E
:1041F0006EF808B1B0EE688A94ED0B0AD4ED0E0AA1
:1042000094ED0C1A28EE000AD4ED0D1A00EE810A86
:1042100094ED0F1AC4ED0F0A84ED0E8A01EE210A07
:10422000CDE700007C00002010B5204C2DED028B66
:10423000F0EE408A94ED100AB5EEC00AF1EE10FAE5
:1042400004D8B0EE680ABDEC028B10BD94ED160ADE
:10425000D4ED110AB0EE688A00EE608A94ED170A78
:10426000D4ED120A00EE608A18EE100A02F038F857
:1042700020B918EE100A02F02AF808B1B0EE688AE8
:1042800094ED130AD4ED160A94ED141A28EE000AE0
:10429000D4ED151A00EE810A94ED171AC4ED170A31
:1042A00084ED168A01EE210ACDE700007C00002093
:1042B00010B5204C2DED028BF0EE408A94ED180ADB
:1042C000B5EEC00AF1EE10FA04D8B0EE680ABDEC03
:1042D000028B10BD94ED1E0AD4ED190AB0EE688A67
:1042E00000EE608A94ED1F0AD4ED1A0A00EE608A8F
:1042F00018EE100A01F0F4FF20B918EE100A01F0D0
:10430000E6FF08B1B0EE688A94ED1B0AD4ED1E0AF0
:1043100094ED1C1A28EE000AD4ED1D1A00EE810A55
:1043200094ED1F1AC4ED1F0A84ED1E8A01EE210AC6
:10433000CDE700007C00002010B5204C2DED028B55
:10434000F0EE408A94ED000AB5EEC00AF1EE10FAE4
:1043500004D8B0EE680ABDEC028B10BD94ED060ADD
:10436000D4ED010AB0EE688A00EE608A94ED070A87
:10437000D4ED020A00EE608A18EE100A01F0B0FFD8
:1043800020B918EE100A01F0A2FF08B1B0EE688A59
:1043900094ED030AD4ED060A94ED041A28EE000AFF
:1043A000D4ED051A00EE810A94ED071AC4ED070A50
:1043B00084ED068A01EE210ACDE70000FC00002012
:1043C00010B5204C2DED028BF0EE408A94ED080ADA
:1043D000B5EEC00AF1EE10FA04D8B0EE680ABDECF2
:1043E000028B10BD94ED0E0AD4ED090AB0EE688A76
:1043F00000EE608A94ED0F0AD4ED0A0A00EE608A9E
:1044000018EE100A01F06CFF20B918EE100A01F046
:104410005EFF08B1B0EE688A94ED0B0AD4ED0E0A87
:1044200094ED0C1A28EE000AD4ED0D1A00EE810A64
:1044300094ED0F1AC4ED0F0A84ED0E8A01EE210AE5
:10444000CDE70000FC00002070B56C486D4E6E4C4E
:1044500002686B484FF4807582420DDAFDF718FD53
:104460006169884212D929463046FDF705FD606929
:1044700000F59670606109E06448824201DB002229
:1044800000E0012229463046FDF7FAFC60484078FA
:10449000002858D05F4800780028206861D00028A4
:1044A00071D0642003F0D0FFFDF7F2FCE168884290
:1044B0006AD9FF210020FFF717FEFF210120FFF737
:1044C00013FEFF210220FFF70FFEFF210320FFF75D
:1044D0000BFE322003F0B8FF00210846FFF704FE70
:1044E00000210120FFF700FE00210220FFF7FCFD64
:1044F00000210320FFF7F8FD462003F0A5FFFF2170
:104500000020FFF7F1FDFF210120FFF7EDFDFF2166
:104510000220FFF7E9FDFF210320FFF7E5FD322030
:1045200003F092FF00210846FFF7DEFD0021012085
:10453000FFF7DAFD00210220FFF7D6FD002103205E
:10454000FFF7D2FD3CE080210020FFF7CDFD802168
:104550000120FFF7C9FD80210220FFF7C5FD802162
:1045600046E080B1FDF794FCE16888422ED9A0684E
:104570000028606809D0401C6060502801DD0020E0
:10458000A060206907E026E01FE0401E606001D1C6
:104590000120A060A06903F057FF00206168FFF7C9
:1045A000A3FD01206168FFF79FFD02206168FFF70E
:1045B0009BFD03206168FFF797FD6068002804D128
:1045C000FDF766FC00F5FA60E06070BDBDE8704084
:1045D000642003F039BF00210846FFF785FD002164
:1045E0000120FFF781FD00210220FFF77DFD002162
:1045F000BDE870400320FFF777BD000008020020EF
:104600000000704100040240B40100200000C642D6
:10461000AC0300203C01002038B5012400200090AC
:104620006946752000F042F99DF80000712800D01D
:104630000024002000F02CF80090482800D000242E
:10464000204638BD30B585B00024104890E80E10E3
:1046500000698DE80E1004906D4605EB440015F8D6
:104660001410407800F05EF90A2004F057FD601C39
:10467000C4B2092CF1D3FFF7CFFF03F0DFFD05B083
:104680006420BDE8304004F049BD0000B4A2000839
:1046900030B583B005460022029201924FF4807437
:1046A0009821312000F03EF90A2004F037FD294618
:1046B000322000F037F90A2004F030FD8021342048
:1046C00000F030F90A2004F029FD02A9362000F09C
:1046D000EDF80A2004F022FD9DF8080010F0400FCC
:1046E00001D1641EF1D201A9352000F0DFF89DF858
:1046F000040003B030BDF8B505460E460022009216
:104700004FF480741821312000F00CF90A2004F0D5
:1047100005FD2946322000F005F90A2004F0FEFCD0
:104720003146332000F0FEF80A2004F0F7FC802127
:10473000342000F0F7F80A2004F0F0FC6946362037
:1047400000F0B4F80A2004F0E9FC9DF8000010F035
:10475000400F01D1641EF1D2F8BD000000B587B052
:10476000162201A93B2000F0BFF89DF805009DF836
:10477000041040EA0121494801809DF807109DF886
:10478000062041EA022141809DF809109DF8082089
:1047900041EA022181809DF80B109DF80A2041EA30
:1047A00002213F4A1288891AC1809DF80D109DF898
:1047B0000C2041EA022101819DF80F109DF80E2086
:1047C00041EA022141819DF811109DF8102041EA33
:1047D000022181819DF813109DF81420B6EE001A75
:1047E00041EA022109B200EE101A2E49F7EE002A22
:1047F000F8EEC01A0A78DFED2C0A803A00EE102A93
:10480000B8EEC00A20EE012AB0EE620A02EE200ADB
:1048100061EE801AFDEEE11A11EE902AC2819DF838
:1048200015209DF81630B0EE620A42EA032212B259
:1048300001EE902A4A78B8EEE12A803A01EE902AF9
:10484000F8EEE11A61EE811A01EEA00A62EE001A9A
:10485000FDEEE11A11EE902A02829DF817209DF8D4
:104860001830897842EA032212B201EE902A803988
:10487000B0EE620AB8EEE12A01EE901AF8EEE11A03
:1048800021EE811A01EE200A22EE000ABDEEC00AD6
:1048900010EE101A418207B000BD0000740700201E
:1048A00000020020020200200000003C38B50D4646
:1048B00040F0800000900A4C002020804FF47A7372
:1048C000012269460748FEF7CEF84FF47A730122B9
:1048D00029460448FDF7C0FF0120208038BD0000B4
:1048E000A8824042280A0020F8B50D46164640F03E
:1048F00080000090094C002020804FF47A73012240
:1049000069460748FEF7AFF84FF47A7332462946F6
:104910000348FDF7A1FF01202080F8BDA882404296
:10492000280A002038B58DF800008DF80110064CDB
:10493000002020804FF47A73022269460348FEF774
:1049400092F80120208038BDA8824042280A002029
:1049500030B585B01E481D4901604FF440314160BB
:104960000021816001240461846141620163C160AE
:1049700005250562C4614161FCF75FFF0095019464
:104980000724029469461248FCF796FE0620009020
:104990000220019069460E48FCF78EFE0094032029
:1049A000019069460A48FCF787FE0820009004241D
:1049B000019469460648FCF77FFE0094019569461C
:1049C0000348FCF779FE05B030BD0000002001402F
:1049D000D808002008B50948016841F48001016049
:1049E000006800F480000090002205213820FDF7C7
:1049F0009FFABDE808403820FDF78EBA30380240F3
:104A000030B5ABB04A4C20682A90002201212AA878
:104A100003F054FD474DA86204F10C0090E80F101C
:104A20002792CDE9283C26912590002125A803F066
:104A300027FD6860D4F830C0636A226AE16AA06A20
:104A4000CDF890C02193209223912290002120A89C
:104A500003F016FDA86004F1340090E80F101D92D9
:104A6000CDE91E3C1C911B9000211BA803F008FD02
:104A7000E860D4F858C0236DE26CA16C606DCDF88D
:104A800068C01893179216911990002116A803F088
:104A9000F7FC286104F15C0090E80F101392CDE957
:104AA000143C12911190002111A803F0E9FC6861F7
:104AB000D4F880C0636F226FE16FA06FCDF840C063
:104AC0000D930C920F910E9000210CA803F0D8FCCE
:104AD000A86104F1840090E80F100992CDE90A3C26
:104AE00008910790002107A803F0CAFCE861D4F8F8
:104AF000A8C0D4F89C30D4F89820D4F8A410D4F8E6
:104B0000A000CDF818C003930292059104900021F3
:104B100002A803F0B5FC2862A168606801910090CA
:104B20000021684603F09DFC68622BB030BD000098
:104B300008A20008D001002070B586B020480168A6
:104B400041F080010160016801F08001009101687D
:104B500041F001010160016801F00101009101686B
:104B600041F002010160006800F0020000900220A4
:104B700001901448029000240394134E01A930467A
:104B8000FDF78EF84FF4A851019101250295039489
:104B9000049401A93046FDF783F82803019002959B
:104BA0000394049401A90948FDF77AF8002205212D
:104BB0000720FDF7BDF90720FDF7AEF906B070BD7F
:104BC0003038024000001110000402400000024092
:104BD0000C480B4901604FF48271416000218160F3
:104BE000C1600222026101224261520282612022DE
:104BF000C2610162416281620A21C162FDF7C2BDE8
:104C000000380040280A002010B594B024482349F9
:104C1000016000244460846042F20F71C16004614D
:104C20004461FEF7EEF94FF48050109010A91C4833
:104C3000FEF746FA1A48FEF739FB0E940F940EA9B8
:104C40001748FEF7ABF90794089409940A940B945B
:104C50004FF400500C900D9407A91148FEF770F91D
:104C600060200090019402940394049405940694A7
:104C7000002269460A48FEF7ABFA04226946084852
:104C8000FEF7A6FA082269460548FEF7A1FA0C22AB
:104C900069460348FEF79CFA14B010BD00000140BD
:104CA0007409002010B58EB01B484FF080410160A0
:104CB0006321416000248460FF21C1600461FEF72C
:104CC000A0F94FF480500A900AA91348FEF7F8F9AA
:104CD0001148FEF7EBFA0894099408A90E48FEF76C
:104CE0005DF960200190029403940594002201A9CB
:104CF0000948FEF76DFA042201A90748FEF768FA91
:104D0000082201A90448FEF763FA0C2201A902480F
:104D1000FEF75EFA0EB010BDB009002010B58AB0E3
:104D20000F480E4901606321416000248460FF2127
:104D3000C1600461FEF7BAFA0894099408A908480A
:104D4000FEF72CF9602001900294039405940C2244
:104D500001A90348FEF73CFA0AB010BD0008004064
:104D6000EC0900200848074901604FF4E131416037
:104D700000218160C16001610C2242618161C161D9
:104D8000FEF7EBBA00100140800A002042F21072D8
:104D9000914201DD114602E0642900DA0021084A4F
:104DA00038B1012807D0022807D0032800D11164A8
:104DB00070475163704791637047D163704700003B
:104DC0000000014010B52DED088BB1EE41BAB0EEF8
:104DD000629AF0EE429AB0EE61AAF0EE60BAF0EE9E
:104DE00040AA1BEE100AFBF71BFC41EC180BB1EEBE
:104DF0006B0A10EE100AFBF713FC41EC100BB0EE3F
:104E0000481AF0EE681A01F073FC51EC100BFBF736
:104E10001AFC0BEE900A1BEE100AFBF701FC41ECAA
:104E2000180B1AEE900AFBF7FBFB41EC100BB0EEEF
:104E3000481AF0EE681A01F05BFC51EC100BFBF71E
:104E400002FC0AEE900AB0EE6B0A01F071FEB0EEC1
:104E5000408AB0EE6B0A02F03BFDF0EE408AB0EE05
:104E60006A0A01F065FEB0EE40BAB0EE6A0A02F0DE
:104E70002FFD6AEE0B0A29EEA81A41EE000A29EE70
:104E8000081A41EE000A29EE880A19EE280A01F0F4
:104E900027FDB6EE008AB0EE40BA2BEE880AB0EEDF
:104EA000409A01F045FEF0EE408AB0EE490A02F069
:104EB0000FFDF0EE409A2AEE880AB0EE409A01F01B
:104EC00037FEB0EE40AAB0EE490A02F001FDB0EEA6
:104ED000409A2BEE080AF0EE40AA01F029FEB0EE4F
:104EE000408AB0EE6A0A02F0F3FC29EE8A3A68EED4
:104EF000890A68EE8A2A29EE892A23EE081A2148AF
:104F000062EE881A00EEC01A60EE880A42EE001ABD
:104F100043EE000A22EE800AC0ED021A80ED031A69
:104F200002EE480A21EEA12AC0ED040A80ED050A2E
:104F300080ED0C2A21EE812A80ED0D2A21EEA02A97
:104F400061EE801A80ED0E2AC0ED0F1A61EE011A93
:104F5000C0ED101A61EE201A21EE001AC0ED111AF0
:104F600080ED121A20EEA01A60EE800A20EE000AF0
:104F700080ED131AC0ED140A80ED150ABDEC088B04
:104F800010BD00002400002010B52DED108B82B064
:104F9000B0EE65BAB0EE45EAB0EE64FAF0EE44BAAF
:104FA000B0EE63CAF0EE43CAB0EE62DAF0EE42DA77
:104FB000F0EE61EAF0EE419AB0EE60AAF0EE40AA9F
:104FC0009FEDF48AB0EE489AF0EE488AF24C2078D1
:104FD00078B9F0EE6B2AB0EE4C2AF0EE6C1AB0EE17
:104FE0004D1AF0EE6D0AB0EE6E0AFFF7EBFE0120EF
:104FF0002070F5EEC0CAF6EE00FAF1EE10FA09D113
:10500000B5EEC0CAF1EE10FA04D1F5EEC0BAF1EE79
:1050100010FA7CD02CEEAC0A0CEE0C0A0BEEAB0AAC
:1050200003F0A6F9D4ED133A6CEE80CA2CEE00CA58
:105030006BEE80BA3FEEE30AD4ED152A94ED111A17
:10504000D4ED0F1A30EE620A94ED0E2A20EE2C3ABF
:1050500031EE610A31EE211AD4ED101A0CEE003A4D
:1050600094ED120A21EE2C1A70EE020A30EE420A7A
:105070000BEEA03AF0EE000A2CEE202A23EE204A96
:105080003FEEE13A73EE621AD4ED0D2A0CEE211ACE
:10509000D4ED141A71EEE24A71EEA21A0BEEA41AC4
:1050A0006CEEA04A24EE800A21EE201A6BEEA00AD4
:1050B00002EE210A73EE631A00EEA10A8DED000ADA
:1050C00024EE040A01EE010A10EE100AFBF7A8FA1A
:1050D00041EC100B02F0C4FC51EC100BFBF7B3FADF
:1050E00094ED132AD4ED151A00EE900A3FEEC21A81
:1050F000D4ED122A94ED0E3A9DED000A31EE611ABC
:1051000061EE201A32EEC31A40EE011A00E02DE0E3
:1051100094ED111AD4ED0F3A73EE222A94ED144A4D
:1051200031EE631AD4ED0D3A21EE201A62EEA00A98
:10513000D4ED102A73EE843A7FEEE22A00EE231AB1
:1051400032EEC22A40EE020A2CEE200A0BEEC10A11
:1051500030EE099A2BEEA10A0CEEE00A70EE288AD6
:105160002CEE810A0CEE610A30EE088AF5EEC0EAF8
:10517000F1EE10FA09D1F5EEC0DAF1EE10FA04D131
:10518000B5EEC0DAF1EE10FA33D02EEEAE0A0DEE27
:10519000AD0A0DEE0D0A03F0EBF86EEE801A2DEE5F
:1051A000801A6DEE002A94ED120AD4ED0E0A94EDE9
:1051B000153A30EE602A94ED0D0AD4ED140A70EE23
:1051C000200A94ED0C0A30EE6F0A30EE030A21EE4D
:1051D000003A02EEE03A62EE822A41EEC02A21EE67
:1051E000A00A33EE099A01EE420A72EEA88A30EE66
:1051F000088AB5EEC09AF1EE10FA3CD0F5EEC08AFE
:10520000F1EE10FA37D0B5EEC08AF1EE10FA32D0D6
:10521000B5EEC0EA6148F1EE10FA1EDD6EEE090A45
:1052200090ED000A2EEE281A6EEE081A00EE8B0A98
:1052300080ED000AD0ED010A70EE2AAA41EE0B0AB9
:10524000C0ED010A90ED021A30EE8AAA01EE8B1A27
:1052500080ED021A71EE299A07E09FED4E0A80ED6B
:10526000000A80ED010A80ED020A4FEE09AA0FEE56
:1052700028AA4FEE089AD4ED031A94ED041AD4ED3F
:10528000050A21EEEA0A01EE4A0A00EEE90A60EE9A
:105290002F3AC4ED063A94ED020A20EE2A2A20EEB7
:1052A000293A01EE292A01EE8A3A00EECA2A01EED5
:1052B0006A3A62EE2F2A20EE0A2A0BEE230A23EE28
:1052C0002F3AC4ED072A01EEE92A4BEE221A00EE2E
:1052D000AA2A4BEE030A22EE2F2A84ED082A84ED37
:1052E000093A84ED020A20EE000A0BEE021AC4ED20
:1052F000031A01EEA10A84ED041AC4ED050A01EEB9
:10530000010A00EEA00A03F033F8D4ED020A60EEC1
:10531000801AC4ED021AD4ED030A20EE801A84ED3F
:10532000031AD4ED040A60EE800AC4ED040A94ED79
:10533000052A22EE000A21EEA12A84ED050A84ED59
:105340000C2A21EE812A84ED0D2A21EEA02A61EE9D
:10535000801A84ED0E2AC4ED0F1A61EE011AC4ED15
:10536000101A61EE201A21EE001AC4ED111A84ED14
:10537000121A20EEA01A60EE800A20EE000A84EDD8
:10538000131AC4ED140A84ED150A02B0BDEC108B9B
:1053900010BD000000000000240000206C0400206C
:1053A00000F002F8FCE70000204C64212DED028B98
:1053B0006068B0FBF1F0606018B99FED1D0A84EDE4
:1053C000030A00259FED1B8ADFED1B8A4FF47A76D6
:1053D00003F0D2FD04F060F900EE100A2061B8EE8F
:1053E000400A20EE080A84ED050A20682560A060C6
:1053F00003F0E2FD94ED020AF8EE400A94ED010A92
:10540000B8EE401A80EE810A38EEC00A84ED030A35
:10541000B5EEC00AF1EE10FA01DAB1EE400A84ED01
:10542000030A304603F07AFED2E7000000000020B5
:10543000000000000000803A0000C84270B5012260
:105440001B4D140321462846FCF71AFD052002F0E7
:10545000FBFF1848FBF796FA002221462846FCF786
:105460000FFD0F2002F0F0FF1248FBF7E7FA124998
:10547000C868B8B1086818B1BDE87040FBF742BB16
:105480000E4890ED000AD0ED020A30EE600A81ED80
:10549000010A90ED030AD0ED010A30EE600A81EDB9
:1054A000020A70BD9FED060A81ED010AF7E70000D0
:1054B00000000240D8080020A4010020C8080020F5
:1054C0000000000010B504462DED048BB0EE609A8C
:1054D000F0EE408ADFED539A0846B0EE698AFBF79A
:1054E00081F89FED510B53EC102BFBF70CF8FBF7F9
:1054F000AAF801EE100A78EEC91AC4ED0A8AB5EED0
:10550000C01AC4ED0D1AF1EE10FA84ED109A7CD099
:1055100094ED000A464920EE212A94ED010A61EE3D
:10552000800A94ED130A00EE810A10EE100A84ED51
:10553000130A884202DD9FED3F0A06E010EE100AD2
:105540003D49884203D99FED3D0A84ED130A94ED4D
:10555000030AB5EEC00AF1EE10FA0BD0F4EEC01A51
:10556000F1EE10FA08D8B1EE400AF4EEC01AF1EEEE
:1055700010FA01DB94ED138AB5EEC08AF1EE10FA51
:1055800003D1B0EE698A84ED138A206920B194EDCD
:105590000F0A79EE400A03E094ED0C0A71EEC00A9E
:1055A000F0EE003A32EE082A80EE810AD4ED020ACB
:1055B00060EE800A94ED090A38EEC03A72EE200AD5
:1055C000C3EE012A94ED113A62EE832AB0EE683AF6
:1055D00000EE633AD4ED083A70EEA20A33EE233AB5
:1055E000C3EE013A94ED121A23EE811A70EE810A8D
:1055F000C4ED070AC4ED050A84ED080AC4ED098A62
:1056000094ED0C0A84ED0B0A00E007E0C4ED0C1ADF
:1056100094ED0F0A84ED0E0A84ED0F9ABDEC048B15
:1056200010BD0000000000000000000000408F409E
:105630000000FA440000FA440000FAC40000FAC472
:105640005021FAF73CBE80EC040ABDEEC20A80EDA0
:10565000040AC0ED122A80ED113A704710B5FFF729
:105660007DF83648364CDFED370A01886180418885
:10567000A1808188E18001892181418961818089BE
:10568000A0819FED310A9FED311ADFED311A9FEDB8
:10569000312A002004EB4002B2F9021002EE901A07
:1056A00004EB8001401CF8EEE22AC0B2032862EE4F
:1056B000A02A62EE802AC1ED052AB2F9082002EE86
:1056C000902AF8EEE22A62EE812A62EEA12A82EEA8
:1056D000823A81ED083ADDD394ED050AD4ED0E0A45
:1056E00030EE600AFEF718FD84ED140A94ED060A08
:1056F000D4ED0F0A30EE600AFEF752FD84ED150A74
:1057000094ED070AD4ED100A30EE600AFEF78CFD26
:1057100084ED160A94ED080AFEF7CAFD84ED1A0A14
:1057200094ED090AFEF708FE84ED1B0A94ED0A0ABF
:10573000FEF746FE84ED1C0A10BD00007407002031
:10574000AC030020000080390AE81C4100007A3DCB
:10575000DB0F4940000034432DE9F04704460E4674
:1057600092461D46FCF794FB07464FF000084FF0A9
:105770000109BAF1000F05D02068806836EA000000
:1057800033D05FE02068806836EA00005AD0B5F177
:10579000FF3F24D025B1FCF77BFBC01BA8421ED9DC
:1057A0002068416821F0E00141602068016821F033
:1057B00040010160A06AB0F5005F09D1206801686E
:1057C00021F4005101602068016841F4005101603A
:1057D00084F8519084F850800320BDE8F087206859
:1057E000806836EA0000D2D12CE0B5F1FF3F24D02A
:1057F00025B1FCF74DFBC01BA8421ED920684168AB
:1058000021F0E00141602068016821F04001016061
:10581000A06AB0F5005F09D12068016821F4005149
:1058200001602068016841F40051016084F85190E2
:1058300084F850800320BDE8F0872068806836EA4D
:105840000000D2D00020BDE8F087000005480449E0
:1058500001620549416205498162002070470000EC
:10586000A70F0008E40A00209D0F0008E90F0008B8
:105870000A46014664230148FEF73ABA800A00202E
:10588000DFED2C0A20EE200ABDEEC00A10EE102A31
:105890002949002A03DA52420023CB7001E0012398
:1058A000CB700A3811283CD2DFE800F0090C0F1E3B
:1058B00012152124272A2D30181B33363900C02019
:1058C00008712EE0C12008712BE0C220087128E089
:1058D000C320087125E0C420087122E0D52008719A
:1058E0001FE0D62008711CE0C520087119E0C62011
:1058F000087116E0C720087113E0C820087110E095
:10590000C92008710DE0CA2008710AE0CB20087197
:1059100007E0D720087104E0D820087101E0D92001
:105920000871CA71100A8871100C48710921024867
:10593000FFF79EBF000080440003002082B004F007
:105940005BFA0190642003F0E9FB084C022101A8F6
:1059500003F01CFCE06A401CE062FEF73DFAFBF736
:1059600083FAFBF793F9FBF789FBEFE7D0010020FF
:1059700082B004F041FA0190282101A803F006FC4E
:10598000FFF75CFDF8E700002DED068B0027F0EE39
:10599000009A584CDFF860B1584DDFF86481DFF8A9
:1059A00064919FED59AADFED598A594E9FED598AAE
:1059B0009FED599ADFED59AADFF864A1A06803F0C2
:1059C000CBFD606803F0C8FDE06803F0C5FD206909
:1059D00003F0C2FD606903F0BFFD00224FF4805167
:1059E0005846FCF74DFA03F0C7FA2F6003F0E4FACB
:1059F0004FF47A7003F092FB03F0BEFA2868C8F8FF
:105A0000000003F0D9FAA0223E494648FBF77AFF8E
:105A1000FF210020FEF768FBFF210120FEF764FB59
:105A2000FF210220FEF760FBFF210320FEF75CFB55
:105A30003221A06A02F052FD01223B493B48FDF7AA
:105A4000EBFC00213A48FDF771FC04213848FDF7D2
:105A50006DFC08213648FDF769FC0C213448FDF740
:105A600065FC00213348FDF761FC04213148FDF756
:105A70005DFC08212F48FDF759FC0C212D48FDF74E
:105A800055FC0C212C48FDF751FCFBF749FAFEF7B9
:105A9000D9FDFBF7B5FAB9F8080000EE100AB8EE28
:105AA000400A20EE290A20EE0A0A20EE280A86ED96
:105AB000000A70EE480A80EE890A20EE2A0A8AED72
:105AC000000AFBF75DFB606803F0BAFCA06803F016
:105AD000B7FCE06803F0B4FC206903F0B1FC606936
