:020000040800F2
:10000000B04A002069020008710200086534000847
:10001000750200087702000879020008000000005D
:10002000000000000000000000000000AD0100081A
:100030007D0200080000000001020008114D0008C8
:10004000830200088302000883020008830200087C
:10005000830200088302000883020008B90F000829
:10006000830200088302000883020008830200085C
:10007000830200088302000883020008830200084C
:1000800083020008830200088302000800000000C9
:1000900000000000000000000000000083020008D3
:1000A000830200088302000883020008830200081C
:1000B000830200088302000883020008830200080C
:1000C00083020008830200088302000883020008FC
:1000D0008302000895530008830200080000000016
:1000E0008302000883020008830200080000000069
:1000F0000000000000000000000000008302000873
:100100000000000083020008830200088302000848
:1001100000000000000000000000000000000000DF
:10012000410F0008830200088302000883020008D0
:100130008302000800000000000000000000000032
:100140000000000000000000000000008302000822
:10015000830200088302000883020008830200086B
:100160008302000883020008000000000000000075
:10017000000000000000000000000000000000007F
:1001800000000000830200080000000000000000E2
:100190008302000883020008DFF80CD000F066FB41
:1001A00000480047F1670008B04A00202B4B19684F
:1001B0000868B0E8F04F80F30988BFF36F8F4FF005
:1001C000000080F3118870470000000006480068B6
:1001D000006880F3088862B661B6BFF34F8FBFF343
:1001E0006F8F00DF00BF00BF08ED00E0DFF80C00FC
:1001F000016841F470010160704700BF88ED00E0C4
:10020000EFF30980BFF36F8F144B1A681EF0100FC5
:1002100008BF20ED108A20E9F04F106008B44FF0BD
:10022000500080F31188BFF34F8FBFF36F8F07F03B
:1002300011F84FF0000080F3118808BC19680868B5
:10024000B0E8F04F1EF0100F08BFB0EC108A80F33A
:100250000988BFF36F8F704700BF00BF7002002096
:10026000EFF30580704700000648804706480047C6
:10027000FEE7FEE7FEE7FEE7FEE7FEE7FEE7FEE756
:10028000FEE7FEE7AD4D000899010008D2B201E09B
:1002900000F8012B491EFBD270470022F6E710B58B
:1002A00013460A4604461946FFF7F0FF204610BDE4
:1002B0002DE9FE4F804681EA0300C00F0C460090F6
:1002C00021F0004123F00045B8EB0200A94105D21E
:1002D0004046214690461C460B46024623F000400D
:1002E000104347D0270DC7F30A00C3F30A51029009
:1002F000401A019040286BDAC3F3130040F4801BCE
:100300000098924620B10023D2EB030A63EB0B0B5B
:1003100001985946C0F14002504600F091F9064656
:100320000D4650465946019A00F0A9F910EB080015
:100330006141002487EA115284EAE7731A4340D0EE
:10034000009A62B3019A012A4FEA075215DC001B9A
:1003500061EB02014FF0004202EA0752CDE9004290
:10036000001C41F5801132462B4600F0E0F903B045
:10037000BDE8F08F40462146F9E7001B61EB020122
:10038000001C41F5801300185B412018A2F50017EE
:1003900047EB030140EAD570B6196D4111E06D08D5
:1003A0004FEA360645EAC0754FEA0752001B61EB7B
:1003B0000201001C41F5801149084FEA3000001984
:1003C000514132462B4603B0BDE8F04F00F0A0B9D2
:1003D0000098012240000023D0EB020263EBE0739F
:1003E000009821464FEAE074B8EB000061EB04018D
:1003F000E9E783F000435BE781F0004158E72DE92E
:10040000FE4F81EA030404F0004421F0004100940F
:100410004FF0000B23F0004350EA01045ED052EA93
:1004200003045BD0C3F30A54C1F30A552C44A4F26D
:10043000F3340194A0FB0254C1F3130141F4801181
:10044000C3F3130343F4801301FB024400FB034E88
:10045000840A970A44EA815447EA8357A4FB076851
:1004600002958D0A05FB07854FEA932C04FB0C547B
:100470002705029D4FEA065847EA1637B5EB0805EF
:100480006EEB070C870E920E47EA811742EA831241
:10049000A7FB0201B6EB0B0164EB00042B0D43EA52
:1004A0000C335E1844EB1C50DA465146E7FB020160
:1004B000C5F313044FEA0B3343EA14534FEA0432F3
:1004C000019C43EA0603A4F10C040294009CCDE9CC
:1004D00000B400F02CF903B0BDE8F08F0020014615
:1004E000F9E72DE9F04D81EA030404F0004B21F017
:1004F000004514464FF0000A23F0004150EA05027F
:1005000020D054EA01021DD0C5F30A570246C5F3B4
:100510001303C1F31300C1F30A5640F4801543F4EA
:100520008013A7EB0608101BD64608F2FD3873EBC4
:10053000050002D308F1010801E092185B41B8F10F
:10054000000F03DA00200146BDE8F08D00204FF4D3
:100550008011064684460EE0171B73EB050705D392
:10056000121B63EB050306434CEA010C49084FEAF2
:10057000300092185B4150EA0107EDD152EA0300C6
:1005800012D082EA040083EA0501084305D0101B5B
:10059000AB4106D20122002306E000224FF00043C7
:1005A00002E06FF0010253101AEB06004CEB085109
:1005B00010EB0A0041EB0B01BDE8F04D00F0A8B8CC
:1005C0000EB5C10F80EAE0700844CA07002140F26E
:1005D00033438DE80E000A460B4600F0A8F803B03E
:1005E00000BD00F0004230F000400AD0C10D01F51E
:1005F0006071C0F3160042EA0151C208400711437E
:10060000704700200146704701F0004330B421F0EC
:10061000004150EA010206D00A0DA2F56072C1F352
:100620001301002A02DC30BC00207047440F44EA6A
:10063000C104C100E01830BC00EBC25000F031B87A
:10064000202A04DB203A00FA02F100207047914092
:10065000C2F1200320FA03F3194390407047202A87
:1006600004DB203A21FA02F00021704721FA02F35C
:10067000D040C2F120029140084319467047202A19
:1006800006DBCB17203A41FA02F043EAE07306E0BA
:1006900041FA02F3D040C2F12002914008431946CA
:1006A00070470029A8BF7047401C490008BF20F0D0
:1006B0000100704710B4B0FA80FC00FA0CF050EA68
:1006C000010404BF10BC704749B1CCF1200421FAE9
:1006D00004F411FA0CF118BF012121430843A3EBE4
:1006E0000C01CB1D4FEA00614FEA102042BF0020F1
:1006F00010BC704700EBC35010440029A4BF10BCCD
:100700007047401C490008BF20F0010010BC704732
:1007100010B5141E73F1000408DA401C41F1000109
:1007200092185B411A4301D120F0010010BD2DE960
:10073000F04D92469B4611B1B1FA81F202E0B0FA57
:1007400080F220329046FFF77BFF04460F4640EAD6
:100750000A0041EA0B0153465A46084313D011469A
:1007600053EA010019D0C8F140025046FFF777FF65
:1007700005460E46504659464246FFF761FF08437C
:1007800005D0012004E020463946BDE8F08D002068
:10079000054346EAE0762C4337430A986305E40AAA
:1007A000A0EB08000022FD0A44EA47540A3002D5B3
:1007B00000200146E9E7010510196941DDE9084516
:1007C00000196941BDE8F04DA2E72DE9F04D002385
:1007D0001A461B1A8A4103DB00200146BDE8F08D52
:1007E000C1F30A52C1F3130141F480154FF0000B1D
:1007F000D10702D100186D41521E0027044640F275
:10080000FF11384601EB620A3E4680460246002050
:100810004FF48011FFF723FFC2197141BB1846EB5B
:100820000100B4EB030C75EB000C04D3E41A65EB88
:10083000000517460E46241908F101006D41804657
:100840003428E3DDF91946EB0600091BA84103D261
:100850004FF0FF32134601E0002213461BEB070066
:1008600046EB0A51BDE8F04DFFF752BF064C074D6D
:1008700006E0E06840F0010394E807009847103470
:10088000AC42F6D3FFF78CFCA0780008C0780008D3
:1008900070B58C1810F8015B15F0070301D110F842
:1008A000013B2A1106D110F8012B03E010F8016B6F
:1008B00001F8016B5B1EF9D12B0705D40023521EF2
:1008C0000DD401F8013BFAE710F8013BCB1A921C5A
:1008D00003E013F8015B01F8015B521EF9D5A14258
:1008E000D8D3002070BD000070B412484168491C84
:1008F00041600021104BDFF844C040F6FF7400F166
:1009000010050022002000EB800603EB460636F8B7
:1009100011603244401C2028F5D33CF81100201A05
:1009200020EA521025F81100481CC1B20329E8D969
:1009300070BC704738000020C802002050770008C3
:100940001748F0EE000A008900EE100A1748B8EECA
:10095000400A20EE200ADFED130A20EE200ADFED28
:10096000120A20EE200A80ED030ADFED110A30EEB4
:10097000600ADFED100A80EE201A9FED0F0A21EECB
:10098000000A80ED020AD0ED000A9FED0C1A60EE1D
:10099000810A9FED0B1A40EE010AC0ED000A704774
:1009A000C802002000008039333353403800002053
:1009B000CDCC6C406866E63E0000C842B6F37D3F91
:1009C0006F12033C10B5806B90F83D10252905D0BF
:1009D000152180F83D1000F0B1FB10BD352180F8E5
:1009E0003D10F8E710B5806B042180F83D10016CD4
:1009F00041F00201016400F0A3FB10BD10B5806B53
:100A000000F09DFB10BD00004C490A6822F4403202
:100A10000A600A6843681A430A6001684A6822F457
:100A200080724A6001684A68036942EA03224A60A8
:100A300001684A6822F040724A6001684A68836827
:100A40001A434A6001688A6822F400628A60016879
:100A50008A68C3681A438A60C16A6FF07062D142C3
:100A600014D001688A6822F070628A6001688A681E
:100A7000C36A1A438A6001688A6822F040528A6019
:100A800001688A68036B1A438A6009E001688A6812
:100A900022F070628A6001688A6822F040528A609F
:100AA00001688A6822F002028A6001688A688369A4
:100AB00042EA43028A60416AC1B101684A6842F46D
:100AC00000624A6001684A6822F460424A60016834
:100AD0004A68836A4FF4604C9CFAACFC5B1EBCFA1B
:100AE0008CFC03FA0CF31A434A6004E001684A687C
:100AF00022F400624A600168CA6A22F47002CA6283
:100B00000168CA6A038C5B1E42EA0352CA6201682A
:100B10008A6822F400728A6001688A68C36942EABE
:100B200043228A6001688A6822F480628A600168D0
:100B30008A68406942EA8020886070470423014047
:100B400010B503F0F5FE054805F002FD012005F0A3
:100B50006DFDBDE81040042005F088BDEC060020C6
:100B6000F8B50D46164640F080000090094C002074
:100B70002080642301226946074801F0F8FB6423C2
:100B800032462946044801F0EBFA0120208000207B
:100B9000F8BD0000B082404298050020084611468A
:100BA0001A46FFF7DDBF01F07F001946AFF3008062
:100BB000F7B50D4616460A4C00202080642301221A
:100BC0006946084801F0D3FB64232A4631460548AC
:100BD00001F0CDFB0120208003B00020F0BD00001B
:100BE000B08240429805002005F03EBE10B500F0EE
:100BF00039F900F065F937483849394CD0ED070A22
:100C00003548D1ED071AA03990ED010AB8EEC01AA7
:100C100030EE811A31EE612A91ED071A01F5C871A3
:100C200072EE412A91ED072A72EE822AFDEEE22A47
:100C300012EE901A2160F8EEC02A72EEE02A72EEEF
:100C4000E12A72EE812A72EE822AFDEEE22AC4EDDA
:100C5000012AF8EEC02A72EEE02A72EEA12A72EEA4
:100C6000C12A72EE822AFDEEE22AC4ED022AB8EE13
:100C7000C00A30EE800A30EE210A30EE010A30EE72
:100C8000020ABDEEC00A84ED030A006880B10020AC
:100C900003F030F90120616803F02CF90220A1680B
:100CA00003F028F9E168BDE81040032003F022B901
:100CB0000021084603F01EF90021012003F01AF973
:100CC0000021022003F016F90021BDE810400320A6
:100CD00003F010B9400700203C02002080080020EB
:100CE0003007002010B52DED028B544803F014FDA1
:100CF000534803F011FD534803F00EFD524803F032
:100D00000BFD524803F008FD514803F005FD514822
:100D100003F002FD504803F0FFFC9FED508AB7EE50
:100D2000000A4648B0EE483AF0EE482AB0EE482AAB
:100D3000F0EE481AB0EE481AF0EE480A03F0EFFC65
:100D4000B0EE483AF0EE482AB0EE482AF0EE481AE3
:100D5000B0EE481AF0EE480AB7EE000A384803F041
:100D6000DEFCB0EE483AF0EE482AB0EE482AF0EE4B
:100D7000481AB0EE481AF0EE480AB0EE480A314878
:100D800003F0CDFCB0EE483AF0EE482AB0EE482A27
:100D9000F0EE481AB0EE481AF0EE480AB0EE480AF3
:100DA000294803F0BCFCDFED2E8AB0EE483AF0EEA5
:100DB000482AB0EE482AF0EE481AB0EE681AF0EE73
:100DC000480AB1EE080A214803F0A9FCB0EE483AFF
:100DD000F0EE482AB0EE482AF0EE481AB0EE681A53
:100DE000F0EE480AB1EE080A194803F098FCB0EE9C
:100DF000483AF0EE482AB0EE482AF0EE481AB0EE33
:100E0000481AF0EE480AB0EE480A124803F087FC90
:100E1000B0EE483AF0EE482AB0EE482AF0EE481A12
:100E2000B0EE481AF0EE480AB0EE480ABDEC028B6C
:100E30000948BDE8104003F072BC00009007002094
:100E4000D008002030080020700900204007002052
:100E500080080020E007002020090020000000009A
:100E60009A99193E30B52DED028B83B00020009089
:100E700001909FED0E8A0F4C0D4D052194ED020A55
:100E8000D5ED2B0A0C4838EE000A03F091FB94EDE7
:100E9000030AD5ED2A0A03B038EE000ABDEC028B36
:100EA0000521BDE83040054803F082BB000000008A
:100EB000F00500203C02002090070020D008002010
:100EC00010B52DED028B0521174C9FED188ADFED33
:100ED000188A94ED1B0A174820EE080AC0EE280A6B
:100EE00090ED070A503803F063FB94ED1A0A12489C
:100EF000052120EE080AC0EE280A90ED070A5038B6
:100F000003F056FB94ED1C0A0C48052120EE080A5C
:100F1000C0EE280A90ED070A5038BDEC028BBDE800
:100F2000104003F045BB0000F005002000003443F2
:100F3000DB0F494090070020D00800203008002037
:100F4000014800F0C1B900004C04002001680A4BC0
:100F5000CAB2103AA3FB02321209084B9B5C4365EC
:100F6000032A04D96FF30901091D016502E06FF33B
:100F700009010165006D7047ABAAAAAA8077000835
:100F800010B4D0F800C0DCF8004024F48024CCF881
:100F90000040D0F800C0CCF804308368402B05D066
:100FA000036899600068C26010BC704703689A606B
:100FB0000068C16010BC7047022000F0E9BA000070
:100FC00038B44FF0000CCDF800C090F83C20012A56
:100FD0001BD0012280F83C200A680724092A17D96F
:100FE0000368DD680A3A02EB420204FA02F225EADB
:100FF0000202DA600A788B680A3A02EB42029340F6
:101000000268D4682343D36014E038BC02207047E0
:1010100003681D6902EB420204FA02F225EA0202A9
:101020001A610A788B6802EB4202934002681469E5
:10103000234313614A681F24072A15D203685D6B96
:10104000521E02EB820204FA02F225EA02025A63FD
:101050000A8893B20A79521E02EB82029340026818
:10106000546B234353632CE00D2A15D203681D6B88
:10107000D21F02EB820204FA02F225EA02021A638C
:101080000A8893B20A79D21F02EB82029340026867
:10109000146B2343136314E00368DD6A0D3A02EB1B
:1010A000820204FA02F225EA0202DA620A8893B2A4
:1010B0000A790D3A02EB820293400268D46A234314
:1010C000D3621A4B02689A4208D10A68122A05D1E3
:1010D000D3F8042342F48002C3F8042302689A423E
:1010E0001FD1134C0A68A24201D0112A19D1D3F89A
:1010F000042342F40002C3F804230968A14210D17A
:101100000C490D4A0968B1FBF2F101EB810149007C
:101110000091009929B10099491E00910099002978
:10112000F9D180F83CC038BC002070470020014055
:1011300012000010AC02002040420F0070477047C0
:10114000704770B50446002C04D094F83D0000258B
:1011500010B106E0012070BD84F83C50204600F03C
:101160000FF8022084F83D002046FFF74DFC25646F
:10117000012084F83D0084F83C50002070BD000040
:1011800070B586B005462868A0F18041B1F5903170
:1011900030D11948016841F480710160006800F4A1
:1011A00080700090F02001900324029400260396A2
:1011B00001A9124800F0F8F9012001900294039669
:1011C00001A90F4800F0F0F90F4C0E48206066604E
:1011D000A660E66000152061400060618000A061AB
:1011E0004011E061400220626662204600F05CF936
:1011F000AC63A56306B070BD4438024000000240F5
:1012000000040240106402404C04002038B504463B
:101210008C460025009594F83C00012828D0012038
:1012200084F83C002068416841F08061416020689A
:10123000816841F480718160A16B1E48C863A16B15
:101240001D480864A16B1D4888642068134600F19E
:101250004C016246A06B00F071F9122084F83D0049
:1012600084F83C502068816811F0010F02D015E02D
:10127000022038BD816841F00101816010481149A8
:101280000068B0FBF1F000EB40000090009828B13E
:101290000098401E009000980028F9D120688168CD
:1012A00011F0405F03D1816841F0804181600020EE
:1012B00038BD0000C5090008FD090008E50900085F
:1012C000AC02002040420F002DE9F0410446256D9C
:1012D000286894F85420082101FA02F210424FF0D5
:1012E00004074FF0000619D02068026812F0040FBE
:1012F00014D0026822F00402026094F8540001FA4B
:1013000000F0A860E06C40F00100E06484F8357003
:1013100084F83460A16C09B120468847286894F8A5
:1013200054205F4901FA02F2104219D02068426944
:1013300012F0800F14D0426922F08002426194F8CA
:10134000540001FA00F0A860E06C40F00200E06494
:1013500084F8357084F83460A16C09B12046884760
:10136000286894F854204F4901FA02F2104219D02B
:101370002068026812F0020F14D0026822F0020204
:10138000026094F8540001FA00F0A860E06C40F0AC
:101390000400E06484F8357084F83460A16C09B10D
:1013A00020468847286894F85410102202FA01F168
:1013B00008422ED02068036813F0080F29D0036874
:1013C00013F4802F4FF0310310D0A960206801681A
:1013D00011F4002F07D0006810F4002F15D0412021
:1013E00084F8350011E084F835300EE0016811F41E
:1013F000807F03D1016821F00801016094F8540056
:1014000002FA00F0A86084F83530216C09B120465A
:101410008847286894F85410202202FA01F1084203
:101420003BD02068036813F0100F36D0036813F424
:10143000802F17D0A9602068016811F4002F0AD00E
:10144000006810F4002F28D0E16B002925D0204639
:10145000BDE8F0410847616C00291ED02046BDE878
:10146000F0410847016811F4807F03D1016821F041
:101470001001016094F8540002FA00F0A860E06CDA
:10148000E064112084F8350084F83460E16B0029B1
:1014900003D02046BDE8F0410847BDE8F0810000D8
:1014A000010080000400800070B50446002C27D0A5
:1014B000616A022084F83500226810681E4B1840CB
:1014C000D4F808C06368256943EA0C03D4F80CC05B
:1014D0004CEA050C43EA0C03D4F814C043EA0C03AD
:1014E000D4F818C043EA0C03D4F81CC043EA0C0338
:1014F000D4F820C043EA0C031843042902D005E0C5
:10150000012070BD236BE16A194308431060226813
:10151000506920F00700616A0843042901D1A16ADB
:10152000084350612046FFF711FD0020E0640120D0
:1015300084F83500002070BD3F8010F010B50446DF
:1015400094F83400012820D0012084F834000220CF
:1015500084F835002068D0F800C02CF0010CC0F8E9
:1015600000C02046FFF70CFD2068016841F01E0115
:1015700001602068416941F0800141612068016893
:1015800041F001010160002010BD022010BD704734
:1015900010B504490A68024202D00860FFF7F7FF5D
:1015A00010BD0000143C01402DE9F84F0022DFF887
:1015B000C491DFF8BC814FF0030E0F2709F1040A34
:1015C000012303FA02F50B682B40AB427ED1D1F820
:1015D00004C0BCF1020F02D0BCF1120F12D14FEACD
:1015E000D20C00EB8C0CDCF820605407E40E07FAF8
:1015F00004FB26EA0B06D1F810B00BFA04F43443CE
:10160000CCF8204006684FEA420C0EFA0CF4A643D0
:1016100091F804B00BF0030B0BFA0CFB4BEA060637
:1016200006604E68012E05D0022E03D0112E01D087
:10163000122E11D18668A643D1F80CB00BFA0CFB20
:101640004BEA06068660466826EA05050E79C6F36B
:101650000016964035434560C56825EA04048D6848
:1016600005FA0CFC4CEA040CC0F80CC0D1F804C01C
:101670001CF0805F66D0D8F800C04CF4804CC8F8ED
:1016800000C0D8F800C00CF4804CCDF800C022F0A7
:10169000030C0CF1804505F59835D5F808C894077A
:1016A000240F07FA04F62CEA0606A0F1804CBCF5DC
:1016B000003C4DD0BCF5806C4DD0BCF5806C4DD05D
:1016C000BCF5806C4DD0BCF5806C00E03AE04BD0AE
:1016D0004FF0050C0CFA04FC4CEA060CC5F808C8DF
:1016E000D9F800C02CEA030C4C6814F4803F01D0F8
:1016F0004CEA030CC9F800C0DAF800C02CEA030C6D
:101700004C6814F4003F01D04CEA030CCAF800C046
:10171000194CD4F800C02CEA030C4D6815F4801F56
:1017200001D04CEA030CC4F800C0144CD4F800C03B
:101730002CEA030C4D6815F4001F01D04CEA030C91
:10174000C4F800C0521C102AFFF43AAFBDE8F88F6D
:101750004FF0000CBEE74FF0010CBBE74FF0020C5E
:10176000B8E74FF0030CB5E74FF0040CB2E7000008
:1017700044380240003C0140083C01400C3C014020
:101780004269514041617047002A01D08161704730
:10179000090481617047000001480068704700003B
:1017A000A802002002480168491C0160704700003F
:1017B000A802002010B50B48016841F400710160D7
:1017C000016841F480610160016841F48071016049
:1017D000032000F065F8002000F006F800F015F88E
:1017E000002010BD003C024010B5044600F0AAF9EC
:1017F0004FF47A72B0FBF2F001F012F800222146A9
:10180000501E00F019F8002010BD10B5032000F0A4
:1018100047F80022BDE810401146501E00F00CB8F9
:1018200000F01F01012202FA01F14009800000F1DD
:10183000E020C0F80011704710B4184B1B68C3F3C8
:101840000223C3F1070CBCF1040F01D94FF0040CC3
:101850001C1D072C01D2002300E0DB1E012404FA2A
:101860000CFCACF1010C0CEA0101994004FA03F301
:101870005B1E1A401143002808DA00F00F0000F147
:10188000E020090180F8141D10BC704700F1E02031
:10189000090180F8001410BC704700000CED00E056
:1018A00000F00700064A11684FF6FF03194041EAAD
:1018B000002040F0FD7040F0806010607047000034
:1018C0000CED00E02DE9F04704460E46DFF868A273
:1018D000DAF80000994900F00F00994F06F0FF096F
:1018E00041F28838B04270D28AF80090DAF80000ED
:1018F00000F00F00B04202D00120BDE8F087207850
:1019000010F0020F05D03868A26820F0F0001043F4
:101910003860207810F0010F49D06068012808D0A5
:1019200002280DD003280BD0096811F0020F29D02E
:101930000AE0096811F4003F06D10120BDE8F087F4
:10194000096811F0007F1AD0396821F003010843BB
:101950003860FFF721FF05466068012815D002288E
:1019600026D003283BD0386810F00C0F1FD0FFF7AB
:1019700013FF401B404539D90320BDE8F087012003
:10198000BDE8F0870120BDE8F087386800F00C0062
:1019900004280CD0FFF700FF401B404502D903206C
:1019A000BDE8F087386800F00C000428F2D1A8E008
:1019B000386800F00C00082870D0FFF7EDFE401BDF
:1019C000404503D90320BDE8F08714E0386800F0F3
:1019D0000C000828F1D194E00320BDE8F0873868B6
:1019E000FFF7DAFE401B4045F9D9F5E7386810F0FB
:1019F0000C0FBCD185E0207810F0020F05D03868BC
:101A0000A26820F0F00010433860207810F0010F39
:101A10006CD06068012808D002280DD003280BD0B4
:101A2000096811F0020F29D00AE0096811F4003F9B
:101A300006D10120BDE8F087096811F0007F1AD0B7
:101A4000396821F0030108433860FFF7A5FE054619
:101A50006068012815D0022827D003283BD03868B9
:101A600010F00C0F42D0FFF797FE401B404539D9CC
:101A70000320BDE8F0870120BDE8F0870120BDE824
:101A8000F087386800F00C0004282FD0FFF784FEA0
:101A9000401B404503D90320BDE8F08731E038689A
:101AA00000F00C000428F1D120E0386800F00C00B0
:101AB00008281BD0FFF770FE401B404502D90320C9
:101AC000BDE8F087386800F00C000828F2D10DE07E
:101AD0000320BDE8F0873868FFF75EFE401B4045F5
:101AE000F9D9F5E7386810F00C0FBCD18AF80090EE
:101AF000DAF8000000F00F00B04202D00120BDE88B
:101B0000F087207810F0040F05D03868E16820F4E1
:101B1000E05008433860207810F0080F06D038688D
:101B2000216920F4604040EAC10038600020FFF7DE
:101B30005BFE0020BDE8F087003C02400038024018
:101B40000838024010B500F043F808490968F0224F
:101B500092FAA2F201F0F001B2FA82F2D140044A04
:101B6000515CC8400349086010BD000008380240BD
:101B700088770008AC02002010B5FFF7E3FF0749A3
:101B800009684FF4E05292FAA2F201F4E051B2FA7D
:101B900082F2D140024A515CC84010BD0838024070
:101BA0008877000810B5FFF7CDFF074909684FF4A3
:101BB000604292FAA2F201F46041B2FA82F2D1409C
:101BC000024A515CC84010BD0838024088770008BE
:101BD00010B41F48006810F00C011E481BD04FEADB
:101BE000600C042916D0082915D11B4A116801F090
:101BF0003F01136813F4800F47F6C0730DD0BCFB90
:101C0000F1F01168194093FAA3F3B3FA83F3D940C2
:101C100048430CE0604610BC7047B0FBF1F011681F
:101C2000194093FAA3F3B3FA83F3D94048431168F8
:101C30004FF4403292FAA2F201F44031B2FA82F249
:101C4000D140491C4900B0FBF1F010BC70470000C6
:101C5000083802400024F400043802402DE9F84F0F
:101C60000446DFF8E8B32078F94D10F0010F4FF08B
:101C7000000741F2883660D0DBF8000000F00C006D
:101C800004280AD0DBF8000000F00C0008280DD171
:101C9000281D006810F4800F08D0286810F4003F59
:101CA0004BD0606878BB0120BDE8F88FDFF8A493C3
:101CB00089F80070FFF770FD8046286810F4003F37
:101CC0000CD0FFF769FDA0EB0800B04202D9032059
:101CD000BDE8F88F286810F4003FF2D1207989F828
:101CE00000006068A8B1FFF757FD8046286810F42F
:101CF000003F22D1FFF750FDA0EB0800B04203D90E
:101D00000320BDE8F88F18E0286810F4003FF1D0F8
:101D100013E0FFF741FD8046286810F4003F0CD027
:101D2000FFF73AFDA0EB0800B04202D90320BDE85E
:101D3000F88F286810F4003FF2D12078DFF818837C
:101D400010F0020F64D0DBF800004FF0F80A10F03A
:101D50000C0F17D0DBF8000000F00C00082804D1AD
:101D6000BE48006810F4800F0CD0E068C8B30120B2
:101D7000C8F80000FFF710FD8146286810F0020F38
:101D800016D022E0286810F0020F05D0E068012884
:101D900002D00120BDE8F88F28689AFAAAF22169DA
:101DA000B2FA82F220F0F8009140084328602FE058
:101DB000FFF7F2FCA0EB0900642802D90320BDE87C
:101DC000F88F286810F0020FF2D028689AFAAAF269
:101DD0002169B2FA82F220F0F800914008432860AD
:101DE00016E0FFE7C8F80070FFF7D6FC81462868C8
:101DF00010F0020F0CD0FFF7CFFCA0EB0900642815
:101E000002D90320BDE8F88F286810F0020FF2D144
:101E1000207810F0080F34D09148DFF848A26169AB
:101E2000C1B101210160FFF7B7FC8146DAF800007B
:101E300010F0020F25D1FFF7AFFCA0EB09006428DA
:101E400002D90320BDE8F88FDAF8000010F0020F85
:101E5000F1D016E00760FFF79FFC8146DAF800003A
:101E600010F0020F0DD0FFF797FCA0EB09006428DB
:101E700002D90320BDE8F88FDAF8000010F0020F55
:101E8000F1D1207810F0040F72D07748016841F04A
:101E900080510160006800F080500090DFF8CCA114
:101EA000DAF8000040F48070CAF80000FFF774FC14
:101EB0008146DAF8000010F4807F0DD1FFF76CFC4A
:101EC000A0EB0900642802D90320BDE8F88FDAF8F6
:101ED000000010F4807FF1D0DFF894A18AF8007040
:101EE000FFF75AFC8146DAF8000010F0020F0DD01F
:101EF000FFF752FCA0EB0900B04202D90320BDE875
:101F0000F88FDAF8000010F0020FF1D1207A8AF889
:101F10000000A068B0B1FFF73FFC8146DAF800008E
:101F200010F0020F24D1FFF737FCA0EB0900B042FC
:101F300002D90320BDE8F88FDAF8000010F0020F94
:101F4000F1D015E0FFF728FC8146DAF8000010F028
:101F5000020F0DD0FFF720FCA0EB0900B04202D920
:101F60000320BDE8F88FDAF8000010F0020FF1D17D
:101F7000A069E8B3DBF8001001F00C01082979D062
:101F8000022810D0C8F86070FFF706FC04462868E5
:101F900010F0007F74D0FFF7FFFB001B64286BD9A3
:101FA0000320BDE8F88FC8F86070FFF7F5FB064620
:101FB000286810F0007F0BD0FFF7EEFB801B642831
:101FC00002D90320BDE8F88F286810F0007FF3D114
:101FD000216AE069626A014347F6C07090FAA0F096
:101FE000B0FA80F002FA00F04FF0FF33A26A00E08E
:101FF00046E003EB52024FF4403393FAA3F3B3FAF3
:1020000083F39A40104308434FF0706292FAA2F2B1
:10201000E16AB2FA82F29140014310480160012066
:10202000C8F86000FFF7B8FB0446286810F0007F8E
:1020300026D1FFF7B1FB001B642802D90320BDE8BD
:10204000F88F286810F0007FF3D019E008380240BC
:102050000038024002380240000047420438024083
:10206000800E474274380240403802400070004001
:102070007038024007E0FFE7286810F0007F8AD13F
:102080000020BDE8F88F0120BDE8F88F70B5044648
:10209000002C04D094F85100002510B106E0012076
:1020A00070BD84F85050204600F034F8022084F8C7
:1020B00051002068016821F040010160A16860685A
:1020C00022690843E1681143084361690843218B91
:1020D00001F400710843E1690843216A0843A16AD9
:1020E000084321680860A069042101EA1040616A80
:1020F0000843216848602168E06A08612068C16976
:1021000021F40061C1616565012084F8510000205F
:1021100070BD000000B587B00068A0F18041B1F546
:10212000605117D10C48016841F48041016000689A
:1021300000F4804001904FF4604002900220039030
:1021400001200490032005900520069002A9034871
:10215000FFF72AFA07B000BD4038024000040240F1
:10216000F0B583B004461F4694F85100012802D010
:1021700003B00220F0BDC1B1BAB194F850000128FB
:1021800016D0012684F85060222084F851000025E2
:102190006565A163A287E287A564E564A586E586F7
:1021A000A068B0F5004F06D00AE003B00120F0BDF2
:1021B00003B00220F0BD2068036823F4804303606D
:1021C000A06AB0F5005F09D12068036823F40053CA
:1021D00003602068036843F4005303606068B0F54F
:1021E000827F01D1A06828B12068016811F0400FFA
:1021F0000AD00DE084F8505013460A462046009756
:1022000000F081F903B0F0BD016841F040010160C8
:10221000E06860B1E08F012839D93B4600220121F6
:10222000204602F00BFB28B303B00320F0BDE08F83
:10223000012815D93B4600220121204602F0FEFA72
:1022400010B103B00320F0BD2068C168A06B421C30
:10225000A2630170E08F401E80B2E0870128E9D8B8
:10226000A06AB0F5005F1BD12068016841F480517D
:10227000016015E02068C068A16B0880A06B801C1D
:10228000A063E08F401E80B2E0870128C5D8A06A15
:10229000B0F5005F04D12068016841F4805101600D
:1022A0003B4600220121204602F0C8FA10B103B0DB
:1022B0000320F0BDE06870B12068C068A16B0880A1
:1022C000A06B801CA063E08F401EE087A06AB0F581
:1022D000005F07D019E02068C168A06B421CA263B0
:1022E0000170F0E73B4600220121204602F0A6FAE9
:1022F00030B1606D40F00200606503B00320F0BDB6
:102300002068C0680290BDF808006068B0F5827F60
:102310000BD1A068B0F5004F02D0B0F5806F04D1AA
:102320002068016821F04001016084F85160206854
:102330008168C1F30011A26AB2F5005F12D189B1C0
:10234000616D41F002016165016821F40051016095
:102350002068016841F40051016084F8505003B0D6
:102360000120F0BD84F8505003B00020F0BDF8B556
:1023700004461F4694F85100012801D00220F8BD00
:10238000C1B1BAB194F85000012815D0012684F8E3
:102390005060122084F85100002565652163A286F3
:1023A000E286E564A564A587E587A06AB0F5005FCD
:1023B00004D00DE00120F8BD0220F8BD20680168BE
:1023C00021F4005101602068016841F4005101606E
:1023D000A068B0F5004F04D12068016841F4804145
:1023E00001602068016811F0400F03D1016841F0DD
:1023F00040010160E06828B1606890B3E08E012878
:1024000030D039E0606810B1E08E012808D1206B2F
:10241000411C216321680078C860E08E401EE08680
:10242000E08EA0B13B4600220221204602F006FACF
:1024300008B10320F8BD206B411C2163216800789E
:10244000C860E08E401E80B2E0860028EAD1A06A13
:10245000B0F5005F31D12068016841F4805101601E
:102460002BE0FFE7206B21680088C860206B801C90
:102470002063E08E401EE086E08EA8B13B4600223D
:102480000221204602F0DAF908B10320F8BD206BE2
:1024900021680088C860206B801C2063E08E401E8D
:1024A00080B2E0860028E9D1A06AB0F5005F04D1CF
:1024B0002068016841F4805101603B4600220221FE
:1024C000204602F0BBF928B1606D40F02000606545
:1024D0000320F8BD3B4601228021204602F0AEF9E0
:1024E00028B1606D40F0200060650320F8BDA06851
:1024F00018B92068C1688068009084F8516084F839
:1025000050500020F8BDF8B50446069F94F85100DD
:10251000012803D0222801D00220F8BD69B162B1A0
:102520005BB194F85000012809D0012684F850606E
:1025300094F85100012804D006E00120F8BD0220E3
:10254000F8BD322084F8510000256565A263A38799
:10255000E3872163A386E386A564E564A06AB0F5FA
:10256000005F09D12068016821F4005101602068F2
:10257000016841F4005101602068016811F0400FCA
:1025800003D1016841F040010160E068B0F5006FDF
:1025900006D06068002875D0B0F5827F7FD08AE0D1
:1025A000606828B1B0F5827F0CD1E08E012809D196
:1025B000206B21680088C860206B801C2063E08E3F
:1025C000401EE086E08EE8B9A06AB0F5005F04D155
:1025D0002068016841F4805101603B4600220121DE
:1025E000204602F02BF908B10320F8BD2068C0682E
:1025F000A16B0880A06B801CA063E08F401EE08769
:1026000000F0BCB83B4600220221204602F016F939
:1026100008B10320F8BD206B21680088C860206BDA
:10262000801C2063E08E401E80B2E08640B9A06A24
:10263000B0F5005F04D12068016841F48051016069
:102640003B4600220121204602F0F8F808B10320A1
:10265000F8BD2068C068A16B0880A06B801CA063D7
:10266000E08F401EE087E08E0028CBD16068002814
:102670007AD13B4600220121204602F0DFF818B152
:102680000320F8BD0EE00AE02068C068A16B088056
:10269000A06B801CA063E08F401EE0876EE0E08EA0
:1026A000012808D1206B411C216321680078C86093
:1026B000E08E401EE086E08EC8B9A06AB0F5005FEB
:1026C00004D12068016841F4805101603B4600223A
:1026D0000121204602F0B2F808B10320F8BD2068BD
:1026E000C068A16B0870E08F401EE08746E03B4663
:1026F00000220221204602F0A1F808B10320F8BD13
:10270000206B411C216321680078C860E08E401E68
:1027100080B2E08640B9A06AB0F5005F04D12068BD
:10272000016841F4805101603B46002201212046AE
:1027300002F084F808B10320F8BD2068C168A06BDE
:10274000421CA2630170E08F401EE087E08E0028EB
:10275000CDD1606840B93B4600220121204602F0FD
:102760006DF810B10320F8BD08E02068C168A06BC7
:10277000421CA2630170E08F401EE087A06AB0F5A2
:10278000005F11D13B4600220121204602F056F89D
:1027900028B1606D40F0020060650320F8BD20683C
:1027A000C0680090BDF800003B4601228021204611
:1027B00002F044F828B1606D40F02000606503200D
:1027C000F8BD84F8516020688168C1F30011A26AE5
:1027D000B2F5005F11D181B1616D41F00201616517
:1027E000016821F4005101602068016841F4005142
:1027F000016084F850500120F8BD84F8505000204A
:10280000F8BD4FF0E021042804D0086920F004004E
:1028100008617047086940F00400086170470000D3
:10282000401EB0F1807F01D3012070474FF0E021BE
:102830004861044AF0201070002088610720086178
:102840000020704723ED00E010B490F83820012AF2
:1028500025D0012280F83820022380F83930D1F8C1
:1028600004C00B68CC6843EA0C03D1F808C04CEAFA
:10287000040C43EA0C03D1F810C043EA0C03D1F86E
:1028800014C0896943EA0C0319430368596480F84A
:102890003920002180F8381010BC0020704710BC8F
:1028A0000220704710B490F83820012A2AD0012362
:1028B00080F83830022280F839200268D2F804C04B
:1028C0002CF0700CC2F804C00268D2F804C00C6886
:1028D0004CEA040CC2F804C00268D2F808C02CF01C
:1028E000800CC2F808C00268D2F808C049684CEAF7
:1028F0000101916080F83930002180F8381010BC57
:102900000020704710BC0220704710B50446002C10
:1029100003D094F8390010B107E0012010BD002069
:1029200084F83800204600F00DF8022084F83900C1
:10293000211D206802F066FA012084F83900002089
:1029400010BD000010B586B00168002202231B48AC
:10295000A1F180444FF0010CB4F5803417D0B1F1EF
:10296000804F12D116490C6844F001040C600968CC
:1029700001F0010100910F21019102930392049251
:10298000CDF814C001A9FEF70FFE06B010BD0D4929
:102990000C6844F001040C60096801F00101009129
:1029A0004FF470610191029303920492CDF814C028
:1029B00001A9FEF7F9FD06B010BD000000000240BD
:1029C000403802404438024070B5044694F838005C
:1029D000012818D0012584F83850022084F83900E5
:1029E0002068826822F0770222F47F4282600868C1
:1029F00050283AD00EDC20285FD006DC002852D0C8
:102A0000102863D154E0022070BD30285AD04028ED
:102A10005CD13EE0602832D070280CD0B0F5805FE9
:102A200003D0B0F5005F51D113E02068816821F038
:102A3000070181604AE0CB684A688968206802F033
:102A400036FA2068816821F0770141F077018160D2
:102A50003CE0CB684A688968206802F028FA206860
:102A6000816841F48041816030E0CA68496820682B
:102A700002F0ECFA5021206802F024FA26E0CA683D
:102A80004968206802F0F5FA6021206802F01AFA1D
:102A90001CE0CA684968206802F0D8FA4021206822
:102AA00002F010FA12E00021206802F00BFA0DE0AB
:102AB0001021206802F006FA08E02021206802F0C8
:102AC00001FA03E03021206802F0FCF984F8395063
:102AD000002084F8380070BD70B504460D4694F8A7
:102AE000380001280DD0012684F83860022084F8CF
:102AF000390042B1042A1AD0082A2DD00C2A53D109
:102B00003EE0022070BD2946206802F0E3F920680B
:102B1000816941F0080181612068816921F0040127
:102B20008161206881692A69114381613CE02946FD
:102B3000206802F0FEF92068816941F4006181613A
:102B40002068816921F480618161206881692A6936
:102B500041EA0221816127E02946206802F01CFA3F
:102B60002068C16941F00801C1612068C16921F094
:102B70000401C1612068C1692A691143C16113E080
:102B80002946206802F03BFA2068C16941F40061DF
:102B9000C1612068C16921F48061C1612068C16997
:102BA0002A6941EA0221C16184F83960002084F871
:102BB000380070BD10B50446002C03D094F83900DD
:102BC00010B107E0012010BD002084F83800204635
:102BD00000F00CF8022084F83900211D206802F072
:102BE00011F9012084F83900002010BD00B587B02C
:102BF0000068A0F18041B1F5006115D10B48016872
:102C000041F004010160006800F0040001904FF4FD
:102C1000007002900220039000210491059106901B
:102C200002A90348FEF7C0FC07B000BD40380240CF
:102C30000004024010B504460122206802F02AF97F
:102C40002068A0F18041B1F5803103D1416C41F49D
:102C5000004141642068016841F0010101600020E9
:102C600010BD70B50446002C04D094F8390000253E
:102C700010B106E0012070BD84F83850204600F005
:102C800021F8022084F839002068C16821F400513D
:102C9000C160204602F000FA2068016921F49041E9
:102CA00001612068416921F02A0141612068C16801
:102CB00041F40051C160E563012084F8390000202F
:102CC00070BD000000B587B00068A0F18041B1F58B
:102CD00088311ED11048016841F010010160006880
:102CE00000F010000190C02002900220039001200B
:102CF0000490032005900720069002A90748FEF7DC
:102D000053FC002207212520FEF796FD2520FEF723
:102D100087FD07B000BD00004438024000040240B7
:102D200090F83930012B03D0122B01D002207047CC
:102D300031B32AB390F83830012B23D0012380F827
:102D4000383081628285C2850022C26390F83910D2
:102D5000122919D0222180F839100168CB6843F478
:102D60008073CB6001684B6943F001034B6180F8CD
:102D700038200068C16841F02001C1600020704720
:102D80000120704702207047322180F83910E4E7B3
:102D9000FA4AFB4B117803290BD193F801C083F851
:102DA00000C093F802C083F801C093F803C083F811
:102DB00002C0DFF8D0C3DCF804C003F801C093F808
:102DC00000C0BCF1010F10D193F801C0BCF1020F9B
:102DD0000BD193F802C0BCF1030F06D193F803C0E6
:102DE000BCF1040F01D1491C1170117809297DD162
:102DF000197949B101290FD158799979000400EB6B
:102E00000120D979084407E058799979000400EB4A
:102E10000120D97908444042197A9FEDDB0A5529EF
:102E200000F08E8221DCA1F12001352980F09D8205
:102E3000DFE801F0626D78F0F0F0838E9AEFEEED4E
:102E4000ECEBEAF0F0F0F0F0F0E9E8F0F0F0F0F0A0
:102E5000F0F0F0F0F0F0F0F0F0E7E6E5E4E3E2E1C6
:102E6000E0DFDEDDDCDBDAD9D800C84BEC2900F08E
:102E7000EC8123DCE22900F0788214DC602972D036
:102E80000BDC562900F06582C14B572900F06A829D
:102E9000582940F06A8200F067BA61296FD064292E
:102EA00040F0638219E0E339092980F05E82DFE8AF
:102EB00001F0B1B1F0EFEEEDECEBEA00ED391229E3
:102EC00080F05382DFE801F0EDECA65CEBEA7A8457
:102ED000A7B1BBC4CDD6EEE8E7E6BFF34F8FAD4850
:102EE0000168AD4A01F4E061114300E03FE2016096
:102EF000BFF34F8F00BFFDE700EE900AA748F8EE42
:102F0000E00A20EE800A80ED000A00F02EBA00EE02
:102F1000900AA248F8EEE00A20EE800A80ED010A4D
:102F200000F023BA00EE900A9C48F8EEE00A20EE8A
:102F3000800A80ED020A00F018BA00EE900A984864
:102F4000F8EEE00A20EE800A80ED000A00F00DBAEB
:102F500000EE900A9248F8EEE00A20EE800A80ED3A
:102F6000010A00F002BA15E000EE900A8C48F8EE73
:102F7000E00A20EE800A80ED020A00F0F6B913E0C4
:102F800000EE900AF8EEE00A20EE800A83ED000AD7
:102F900000F0EBB900EE900AF8EEE00A20EE800AAD
:102FA00083ED010A00F0E1B900EE900AF8EEE00AC4
:102FB00020EE800A83ED020A00F0D7B900EE900AF5
:102FC000F8EEE00A20EE800A82ED010A00F0CDB9A9
:102FD00000EE900AF8EEE00A20EE800A82ED020A86
:102FE00000F0C3B9A3E199E18EE183E178E16EE1FC
:102FF00064E15AE150E146E13CE1B7E0AFE0A7E02F
:103000009FE097E0D2E0CDE078E070E068E060E03B
:1030100058E050E0A9E100EE900AF8EEE00A20EE58
:10302000800A82ED030A00F0A0B900EE900AF8EEE3
:10303000E00A20EE800A82ED040A00F096B900EE64
:10304000900AF8EEE00A20EE800A82ED050A8CE193
:1030500000EE900AF8EEE00A20EE800A82ED060A01
:1030600083E100EE900AF8EEE00A20EE800A82ED9D
:10307000070A7AE100EE900AF8EEE00A20EE800AF4
:1030800082ED080A71E1D9E0D1E0C9E0BFE0B5E026
:1030900099E08FE047E03FE037E003E0A5E09BE008
:1030A000E1E0D9E000EE900AF8EEE00A20EE800AB6
:1030B00082ED090A59E100EE100AB8EEC00A82ED6D
:1030C000160A52E100EE100AB8EEC00A82ED170AA5
:1030D0004BE100EE100AB8EEC00A82ED180A44E196
:1030E00000EE100AB8EEC00A82ED190A3DE100EECA
:1030F000100AB8EEC00A82ED1A0A36E100EE100A94
:10310000B8EEC00A82ED1B0A2FE100EE100AB8EEFD
:10311000C00A82ED1C0A28E100EE100AB8EEC00ACF
:1031200082ED1D0A21E100EE100AB8EEC00A82ED20
:103130001E0A1AE100EE100AB8EEC00A82ED1F0A5C
:1031400013E100EE100AB8EEC00A82ED200A0CE18D
:1031500000EE100AB8EEC00A82ED210A05E100EE89
:10316000100AB8EEC00A82ED220AFEE000EE100A54
:10317000B8EEC00A82ED230AF7E00000A8000020A4
:10318000E0060020001001400000803A7009002095
:10319000400200200CED00E00400FA05400700208A
:1031A00090070020724901200860DEE0704900208D
:1031B0000860DAE000EE900AF8EEE00A20EE800AFD
:1031C00082ED0A0AD1E000EE900AF8EEE00A20EE65
:1031D000800A82ED0B0AC8E000EE900AF8EEE00AE1
:1031E00020EE800A82ED0C0ABFE000EE900AF8EEB5
:1031F000E00A20EE800A82ED0D0AB6E000EE900AA9
:10320000F8EEE00A20EE800A82ED0E0AADE000EE54
:10321000900AF8EEE00A20EE800A82ED0F0AA4E0A0
:1032200000EE100AB8EEC00A82ED100A9DE000EE32
:10323000100AB8EEC00A82ED110A96E000EE100AFC
:10324000B8EEC00A82ED120A8FE000EE100AB8EE66
:10325000C00A82ED130A88E000EE100AB8EEC00A38
:1032600082ED140A81E000EE100AB8EEC00A82ED89
:10327000150A7AE000EE900AF8EEE00A20EE800AE5
:1032800082ED240A71E000EE900AF8EEE00A20EEEA
:10329000800A82ED250A68E000EE900AF8EEE00A66
:1032A00020EE800A82ED260A5FE000EE900AF8EE3A
:1032B000E00A20EE800A82ED270A56E000EE900A2E
:1032C000F8EEE00A20EE800A82ED280A4DE000EEDA
:1032D000900AF8EEE00A20EE800A82ED290A44E026
:1032E00000EE900A2348F8EEE00A20EE800A80ED16
:1032F000000A3AE000EE900A1F48F8EEE00A20EEDD
:10330000800A80ED000A30E000EE900A1B48F8EEDB
:10331000E00A20EE800A80ED000A26E000EE900A26
:10332000F8EEE00A20EE800A82ED2A0A1DE000EEA7
:10333000900AF8EEE00A20EE800A82ED2B0A14E0F3
:1033400000EE900AF8EEE00A20EE800A82ED2C0AE8
:103350000BE000EE900AF8EEE00A20EE800A82ED23
:103360002D0A02E0186000E018600320107070471A
:103370003C020020300200203402002038020020ED
:103380002DE9F04104460D46984694F8390001288D
:1033900004D0222802D00220BDE8F0811DB312B370
:1033A00094F83800012821D0012684F838600027DD
:1033B000E76394F8390022281BD0122084F83900E2
:1033C000A284E284E08C401EE084A068B0F5805FB7
:1033D00013D0434600228021204601F069FF08B344
:1033E0000320BDE8F0810120BDE8F0810220BDE8A6
:1033F000F081322084F83900E2E743460022802140
:10340000204601F055FF10B10320BDE8F081288867
:103410002168C0F308004860206908B16D1C05E010
:10342000AD1C03E0216815F8010B4860E08C002812
:10343000C8D1434600224021204601F039FF10B197
:103440000320BDE8F08194F83900322806D084F8D2
:10345000396084F838700020BDE8F081222084F8BB
:103460003900F6E7FEE700002DE9F0412DED048B71
:1034700096B000261396149615968A4890E80E107A
:10348000D0E9067804694569CDE90DC4CDF84480DA
:1034900010970F950C930B920A91006A1290079661
:1034A0000896099604960596069601960296039646
:1034B00003F0BEF905467C4FDFED7C8AB86A48B15F
:1034C000281A00EE100AB8EE400ADFED790A80EE05
:1034D000208A01E0B0EE688ABD6201F031F9754CD6
:1034E000607800287CD094ED1A0AD4ED110A30EEF1
:1034F000600AD4ED1B0A94ED121A70EEC10A94ED25
:103500001C1AD4ED131A31EE611AD4ED141AF1EE2F
:10351000611A94ED152AB1EE422AD4ED162AF1EE85
:10352000622A9DED034ADDED023A9DED013AF1EE8E
:10353000622AB1EE422AF1EE611AF0EE485A9FED8E
:103540005E5AF7EE004A00F0D5FDD7ED0C2A97ED54
:10355000103AD7ED133A97ED154A32EE830A30EE62
:10356000630A30EE449A97ED030A97ED041AD7EDFB
:10357000021A97ED052A60EE010AF0EE004A41EECC
:10358000820A60EEA49A60EE020A41EEC10A60EE81
:10359000A48A72EEC30A21EE021A01EE801A21EE0D
:1035A000240A70EEE30A70EE840A02F085FAB0EEA7
:1035B000408AB0EE680A01F085FFF1EE408AF0EE35
:1035C000490AB0EE690A02F077FA84ED2D8AC4ED5B
:1035D0002E8A84ED2F0ADFED390A68EE201A00E00A
:1035E00016E09FED371A81EE812A84ED2A2A68EED3
:1035F000A01A81EE812A84ED2B2A20EE200AC0EE4B
:10360000010AC4ED2C0A16B0BDEC048BBDE8F081B4
:10361000F86A00B9FD622B48D4ED080A90ED000A63
:1036200030EE200A80ED000AD0ED010A94ED091A6F
:1036300070EE810AC0ED010A90ED021AD4ED0A1A6B
:1036400031EE211A80ED021AF988491C89B2F980FD
:10365000FA6A02F5371202F5D8629542D3D901EE23
:10366000901AF8EE611A80EE212A84ED112A00EEFC
:10367000101AB8EE400AC0EE801AC4ED121A00EE1D
:10368000101AB8EE400AC1EE000AC4ED130AFE801B
:10369000C0ED008AC0ED018AC0ED028A0120607091
:1036A000FE62B0E75C7700085000002000000000D8
:1036B00000247449F0050020CDCC4C3D000034437B
:1036C000DB0F4940D4060020FF2901DDFF2102E085
:1036D000002900DA00214FF0804238B1012807D0DC
:1036E000022807D0032800D15163704791637047C7
:1036F000D1637047116470471D49D1ED000AF5EEA2
:10370000C00AF1EE10FA32D991ED061AD1ED011A84
:10371000F0EE400A91ED022A41EE610AD1ED071A5E
:1037200041EEC20A10EE900A20F00040C0F1FF40C6
:10373000C00F50B910EE900A4FF07F42B2EB400F2D
:1037400001D1012000E0002008B1F0EE400A91ED27
:10375000030A91ED042A20EE800A01EE020A91ED9F
:10376000052A01EE820A81ED071AC1ED060A7047AB
:10377000700100201D49D1ED080AF5EEC00AF1EEF6
:1037800010FA32D991ED0E1AD1ED091AF0EE400A75
:1037900091ED0A2A41EE610AD1ED0F1A41EEC20AFB
:1037A00010EE900A20F00040C0F1FF40C00F50B969
:1037B00010EE900A4FF07F42B2EB400F01D1012092
:1037C00000E0002008B1F0EE400A91ED0B0A91ED07
:1037D0000C2A20EE800A01EE020A91ED0D2A01EE7C
:1037E000820A81ED0F1AC1ED0E0A704770010020A8
:1037F0001D49D1ED100AF5EEC00AF1EE10FA32D9EA
:1038000091ED161AD1ED111AF0EE400A91ED122A3F
:1038100041EE610AD1ED171A41EEC20A10EE900A8C
:1038200020F00040C0F1FF40C00F50B910EE900AE8
:103830004FF07F42B2EB400F01D1012000E00020A9
:1038400008B1F0EE400A91ED130A91ED142A20EE32
:10385000800A01EE020A91ED152A01EE820A81ED3D
:10386000171AC1ED160A7047700100201D49D1EDED
:10387000180AF5EEC00AF1EE10FA32D991ED1E1ACF
:10388000D1ED191AF0EE400A91ED1A2A41EE610AC3
:10389000D1ED1F1A41EEC20A10EE900A20F000404E
:1038A000C0F1FF40C00F50B910EE900A4FF07F42B8
:1038B000B2EB400F01D1012000E0002008B1F0EE92
:1038C000400A91ED1B0A91ED1C2A20EE800A01EEC0
:1038D000020A91ED1D2A01EE820A81ED1F1AC1ED47
:1038E0001E0A7047700100201D49D1ED200AF5EE37
:1038F000C00AF1EE10FA32D991ED261AD1ED211A53
:10390000F0EE400A91ED222A41EE610AD1ED271A2C
:1039100041EEC20A10EE900A20F00040C0F1FF40D4
:10392000C00F50B910EE900A4FF07F42B2EB400F3B
:1039300001D1012000E0002008B1F0EE400A91ED35
:10394000230A91ED242A20EE800A01EE020A91ED6D
:10395000252A01EE820A81ED271AC1ED260A704759
:10396000700100201D49D1ED280AF5EEC00AF1EEE4
:1039700010FA32D991ED2E1AD1ED291AF0EE400A43
:1039800091ED2A2A41EE610AD1ED2F1A41EEC20AC9
:1039900010EE900A20F00040C0F1FF40C00F50B977
:1039A00010EE900A4FF07F42B2EB400F01D10120A0
:1039B00000E0002008B1F0EE400A91ED2B0A91EDF5
:1039C0002C2A20EE800A01EE020A91ED2D2A01EE4A
:1039D000820A81ED2F1AC1ED2E0A70477001002076
:1039E00030B585B000240F4890E80E1000698DE8CE
:1039F0000E1004906D4605EB440015F81410407845
:103A000000F07EF8012003F065FA601CC4B20A2CB5
:103A1000F1D302F079FE05B06420BDE8304003F038
:103A200059BA00003C77000800B585B00E226946FF
:103A30003B2000F047F80DF10E0003F04BF99DF824
:103A400001009DF8001040EA01211C4801809DF80A
:103A500003109DF8022041EA022141809DF80510E3
:103A60009DF8042041EA022181809DF807109DF80D
:103A7000062041EA0221124A1288891AC1809DF863
:103A800009109DF8082041EA022101819DF80B10E0
:103A90009DF80A2041EA022141819DF80D109DF810
:103AA0000C2041EA022181819DF813109DF812201B
:103AB00041EA0221C18105B000BD0000B40200202E
:103AC00034000020F8B50D46164640F08000009006
:103AD000094C002020804FF47A7301226946074880
:103AE000FEF745FC4FF47A73324629460348FEF749
:103AF00037FB01202080F8BDA882404298050020B5
:103B000038B58DF800008DF80110064C002020809B
:103B10004FF47A73022269460348FEF728FC01201D
:103B2000208038BDA88240429805002030B585B07D
:103B30001E481D4901604FF4403141600021816001
:103B400001240461846141620163C160052505624D
:103B5000C4614161FDF7F5FA0095019407240294D0
:103B600069461248FDF72CFA0620009002200190C9
:103B700069460E48FDF724FA009403200190694637
:103B80000A48FDF71DFA08200090042401946946B4
:103B90000648FDF715FA0094019569460348FDF7BC
:103BA0000FFA05B030BD00000020014008040020DD
:103BB00008B50948016841F480010160006800F41B
:103BC00080000090002205213820FDF735FEBDE879
:103BD00008403820FDF724BE3038024030B59FB091
:103BE0002D4CD4F810C06368A2682168E068CDF855
:103BF00078C01B931C921A911D9000211AA802F004
:103C00004AFE264D286004F1140090E80F10179228
:103C1000CDE9183C16911590002115A802F03BFE45
:103C2000686004F1280090E80F10CDE9133C12926F
:103C300011911090002110A802F02DFEA860D4F878
:103C40004CC0636CA26C216CE06BCDF83CC00D9352
:103C50000E920C910B9000210BA802F01CFEE86064
:103C600004F1500090E80F10CDE9093C089207914B
:103C70000690002106A802F00EFE28616434B4E824
:103C80000F1001ACA4E80F10002101A802F003FE00
:103C900068611FB030BD0000C4760008000000203D
:103CA00070B586B02048016841F08001016001686C
:103CB00001F080010091016841F00101016001689B
:103CC00001F001010091016841F00201016000680A
:103CD00000F002000090022001901448029000249D
:103CE0000394134E01A93046FDF75EFC4FF4A85132
:103CF0000191012502950394049401A93046FDF732
:103D000053FC2803019002950394049401A90948E7
:103D1000FDF74AFC002205210720FDF78DFD072055
:103D2000FDF77EFD06B070BD303802400000111076
:103D300000040240000002400C480B4901604FF4AF
:103D40008271416000218160C16002220261012212
:103D50004261520282612022C2610162416281623B
:103D60000A21C162FEF792B9003800409805002090
:103D700010B594B024482349016000244460846055
:103D800042F20F71C16004614461FEF7BEFD4FF461
:103D90008050109010A91C48FEF716FE1A48FEF736
:103DA00009FF0E940F940EA91748FEF77BFD0794A8
:103DB000089409940A940B944FF400500C900D94BD
:103DC00007A91148FEF740FD60200090019402947D
:103DD0000394049405940694002269460A48FEF769
:103DE0007BFE042269460848FEF776FE08226946F3
:103DF0000548FEF771FE0C2269460348FEF76CFE8B
:103E000014B010BD00000140A404002010B58EB015
:103E10001B484FF0804101606321416000248460B1
:103E2000FF21C1600461FEF770FD4FF480500A90DD
:103E30000AA91348FEF7C8FD1148FEF7BBFE089417
:103E4000099408A90E48FEF72DFD60200190029408
:103E500003940594002201A90948FEF73DFE0422BF
:103E600001A90748FEF738FE082201A90448FEF719
:103E700033FE0C2201A90248FEF72EFE0EB010BD43
:103E8000E004002010B58AB00F480E49016063219C
:103E9000416000248460FF21C1600461FEF78AFE56
:103EA0000894099408A90848FEF7FCFC60200190DA
:103EB0000294039405940C2201A90348FEF70CFE1A
:103EC0000AB010BD000800401C0500200848074942
:103ED00001604FF4E131416000218160C160016106
:103EE0000C2242618161C161FEF7BBBE001001403E
:103EF0005805002042F21072914201DD114602E0A5
:103F0000642900DA0021084A38B1012807D00228C4
:103F100007D0032800D11164704751637047916343
:103F20007047D163704700000000014010B52DEDCF
:103F30000A8BB0EE40BAF0EE60BAF0EE619AF0EEA5
:103F4000428AB0EE629AB1EE418A18EE100AFCF78E
:103F500048FB41EC1A0BB1EE6B0A10EE100AFCF7AD
:103F600040FB41EC100BB0EE4A1AF0EE6A1A01F079
:103F7000ABFC51EC100BFCF747FB0AEE900A18EE75
:103F8000100AFCF72EFB41EC1C0B1BEE100AFCF791
:103F900028FB41EC100BB0EE4C1AF0EE6C1A01F05D
:103FA00093FC51EC100BFCF72FFB0BEE100AB0EE5C
:103FB0006A0A01F0A9FEB0EE408AB0EE6A0A01F08A
:103FC0004BFFB0EE40AAB0EE4B0A01F09DFEF0EEC2
:103FD00040BAB0EE4B0A01F03FFF69EEAB0A28EEA3
:103FE0008A1A41EE000A29EE081A41EE000A28EE6C
:103FF000880A09EE4A0AB1EE400A01F05DFDF0EED2
:1040000040BAB6EE00CA2AEE8C0AB0EE408A01F041
:104010007BFEF0EE408AB0EE480A01F01DFFF0EEA4
:10402000409A2BEE0C0AB0EE408A01F06DFEB0EE25
:1040300040AAB0EE480A01F00FFFB0EE409A2BEE16
:104040008C0AF0EE40AA01F05FFEB0EE408AB0EEBE
:104050006A0A01F001FF68EE8A2A29EE892A2448BB
:1040600062EE880A42EE000AC0ED020A29EE8A3AA0
:1040700068EE891A23EE081A01EEC01A80ED031AC1
:1040800061EE881A43EE001AC0ED041A22EE800A8F
:1040900002EE480A80ED050A20EEA02A80ED0C2AE7
:1040A00020EE812A80ED0D2A20EEA12A80ED0E2A35
:1040B00060EE800AC0ED0F0A61EE010AC0ED100A41
:1040C00061EE210AC0ED110A61EE000AC0ED120A8C
:1040D00061EEA10AC0ED130A61EE800AC0ED140A78
:1040E00020EE000A80ED150ABDEC0A8B10BD000021
:1040F0005000002010B52DED108B82B0B0EE408A3C
:10410000F0EE608AB0EE419AF0EE61EAB0EE42DA8B
:10411000F0EE62DAF0EE43BAB0EE63CAF0EE44CAF3
:10412000B0EE64FAB0EE45EAB0EE65BADFEDF59AAE
:10413000B0EE69AAF0EE69AAF34C207800280FD1FE
:10414000F0EE6C2AB0EE4C2AF0EE6B1AB0EE6D1A5F
:10415000F0EE4D0AB0EE6E0AFFF7E8FE0120207087
:10416000F5EEC0BAF6EE00FAF1EE10FA09D1B5EEAE
:10417000C0CAF1EE10FA04D1F5EEC0CAF1EE10FAA1
:104180007ED02BEEAB0A0CEE0C0A0CEEAC0A02F061
:10419000FBFA6BEE80BA2CEE00CA6CEE80CAD4ED4E
:1041A000133A94ED152AD4ED111A3FEEE30AD4ED3B
:1041B0000F0A94ED0E1A30EE420A60EE2B2A31EE11
:1041C000E00A4CEE002A94ED120A30EE013A4CEE71
:1041D000832AB0EE003A22EE834A71EEA00AD4EDB3
:1041E000101A7FEEE12A60EEAB0A72EEC21A94ED6D
:1041F0000D2A4CEE210AD4ED141A71EEC24A4CEE8F
:10420000A40A60EE830A6BEE834A30EE410A2CEE7C
:10421000031A71EE821A24EE800A01EE210A2CEEB6
:10422000831A72EEE31A01EE210A8DED010A24EEE3
:10423000040A00EEA00A10EE100AFCF7D2F941ECD5
:10424000100B01F0D1FE51EC100BFCF7DDF900EE84
:10425000900A9DED010A94ED132AD4ED151AD4EDC0
:10426000122A3FEEC21A94ED0E3A31EE611A72EE46
:10427000C31A21EE201A00EE211AD4ED111A00E023
:104280002BE0D4ED0F3A94ED144A71EEE31AD4ED1D
:104290000D3A61EEA01A73EE843A40EE231A73EEE3
:1042A000222A62EEA00AD4ED102A7FEEE22A32EE34
:1042B000C22A40EE020A2CEE200A0CEEE10A70EE51
:1042C000299A2CEE810A0BEEE00A30EE0AAA2BEEB8
:1042D000A10A0CEE410A70EE2AAAF5EEC0EAF1EE50
:1042E00010FA09D1B5EEC0DAF1EE10FA04D1F5EE0C
:1042F000C0DAF1EE10FA33D02EEEAE0A0DEE0D0A52
:104300000DEEAD0A02F040FA2EEE802A6DEE000AA4
:104310006DEE801A94ED120A94ED0E1A30EE410AF9
:1043200094ED0D1AD4ED142A31EE221AD4ED0C2A94
:1043300094ED153A72EEEF2A72EE832A20EEA23A3D
:1043400001EEC13A73EE299A61EE801A42EE621ACA
:1043500031EE8AAA22EE011A00EEC01A71EE2AAAE4
:10436000F5EEC09AF1EE10FA3CD0B5EEC0AAF1EE2F
:1043700010FA37D0F5EEC0AAF1EE10FA32D0B5EE51
:10438000C0EA6248F1EE10FA1EDD6EEE290A90EDE9
:10439000000A00EE8B0A80ED000A2EEE0A1AD0ED1C
:1043A000010A41EE0B0AC0ED010A6EEE2A1A90EDE9
:1043B000021A01EE8B1A80ED021A30EE088A70EEB6
:1043C000A88A31EE099A07E09FED4E0A80ED000AB7
:1043D00080ED010A80ED020A0FEE298A4FEE0A8A6B
:1043E0000FEE2A9AD4ED030A94ED041AD4ED051ABF
:1043F000B1EE600A20EE080A01EE680A01EEC90A71
:1044000060EE2F2AC4ED062A94ED020A20EE082A57
:1044100001EE092A01EEE82A22EE2F3A84ED073A4E
:1044200020EE282A00EEC92A01EE882A22EE2F2A41
:1044300084ED082A60EE093A40EEA83A41EE483A87
:1044400063EEAF3AC4ED093A0BEE220A84ED020A9C
:104450004BEE030AC4ED030A0BEE021A84ED041AB4
:104460004BEE231AC4ED051A20EE000A00EEA00A56
:1044700001EE010A01EEA10A02F086F9D4ED020A6A
:1044800060EE800AC4ED020A94ED031A21EE001AD0
:1044900084ED031AD4ED041A61EE801AC4ED041AF7
:1044A00094ED052A22EE000A84ED050A20EEA02AEA
:1044B00084ED0C2A20EE812A84ED0D2A20EEA12A1B
:1044C00084ED0E2A60EE800AC4ED0F0A61EE010A47
:1044D000C4ED100A61EE210AC4ED110A61EE000A72
:1044E000C4ED120A61EEA10AC4ED130A61EE800A5E
:1044F000C4ED140A20EE000A84ED150A02B0BDECEA
:10450000108B10BD0000000050000020B0060020FD
:1045100000F002F8FCE700002DED028B1F4C204953
:104520006068A1FB001040096060002803D19FED86
:104530001D0A84ED030A0025DFED1B8A9FED1B8A0F
:1045400002F054FC02F0C2FE00EE100A2061B8EE48
:10455000400A20EE280A84ED050A2068A060256044
:1045600002F064FC94ED020AF8EE400A94ED010AB0
:10457000B8EE401A80EE810A38EE400A84ED030A54
:10458000B5EEC00AF1EE10FA01DAB1EE400A84EDA0
:10459000030A4FF47A7002F09DFCD1E71C00002062
:1045A0001F85EB51000000000000803A0000C84267
:1045B00010B504462DED048BB0EE408AB0EE609A43
:1045C0000846DFED4D8AFBF7FBFF9FED4D2B53ECCB
:1045D000122BFBF786FFFCF717F801EE100A84EDAB
:1045E0000A8A78EE491AC4ED0D1A84ED109A94EDFA
:1045F000000A20EE213A94ED010A61EE800A94ED62
:10460000130A00EE810A84ED130A10EE100A3E49E7
:10461000884204DD9FED3D0A84ED130A08E010EEA8
:10462000100A3B49884203D99FED3A0A84ED130AE8
:1046300094ED030AB5EEC00AF1EE10FA02D1D4ED02
:10464000138A0DE0F4EEC01AF1EE10FA08D8B1EEBC
:10465000400AF4EEC01AF1EE10FA01DBD4ED138A31
:10466000206994ED020AD4ED0F0A94ED0C2A30B1C2
:1046700079EE603AC3EE812A20EE220A05E071EE5F
:10468000C23AC3EE812A20EE220AD4ED092A38EE7E
:10469000624AC4EE013A94ED114A63EE843AF0EEB8
:1046A000004AB0EE484A02EEE44AD4ED084A34EE3D
:1046B000244AC4EE014A94ED121A24EE811A33EE14
:1046C000283A33EE000A30EE230A30EE010A84ED78
:1046D000070A84ED050AC4ED082A84ED098A84EDF1
:1046E0000B2AC4ED0C1AC4ED0E0A84ED0F9ABDEC32
:1046F000048B10BD0000000000000000000000005E
:104700000000000000408F400000FA440000FA441E
:104710000000FAC40000FAC45021FBF7BEBD80EDD2
:10472000000AC0ED010A80ED021AC0ED031ABDEEC9
:10473000C20A80ED040AC0ED122A80ED113A7047DA
:1047400010B5FFF771F93648364C01886180418811
:10475000A1808188E18001892181418961818089ED
:10476000A08100209FED301A9FED300ADFED300A66
:10477000DFED301A9FED302A04EB4001B1F9022041
:1047800002EE902A04EB8002F8EEE22A62EE812A21
:1047900062EE802AC2ED052AB1F9081002EE901AE5
:1047A000F8EEE22A62EEA02A62EEA12A82EE823AB6
:1047B00082ED083A401CC0B20328DDD394ED050A0F
:1047C000D4ED0E0A30EE600AFEF796FF84ED140A6F
:1047D00094ED060AD4ED0F0A30EE600AFEF7CAFF28
:1047E00084ED150A94ED070AD4ED100A30EE600A44
:1047F000FEF7FEFF84ED160A94ED080AFFF736F87F
:1048000084ED1A0A94ED090AFFF76EF884ED1B0A8D
:1048100094ED0A0AFFF7A6F884ED1C0A10BD00000B
:10482000B4020020F0050020000080390AE81C4195
:1048300000007A3DDB0F4940000034432DE9F0478A
:1048400004460E4692461D46FCF7A6FF07464FF06B
:1048500000084FF00109BAF1000F05D02068806808
:1048600036EA000033D05FE02068806836EA000056
:104870005AD0B5F1FF3F24D025B1FCF78DFFC01B06
:10488000A8421ED92068416821F0E00141602068FB
:10489000016821F040010160A06AB0F5005F09D114
:1048A0002068016821F4005101602068016841F42A
:1048B0000051016084F8519084F850800320BDE8D5
:1048C000F0872068806836EA0000D2D12CE0B5F18C
:1048D000FF3F24D025B1FCF75FFFC01BA8421ED9C3
:1048E0002068416821F0E00141602068016821F002
:1048F00040010160A06AB0F5005F09D1206801683D
:1049000021F4005101602068016841F40051016008
:1049100084F8519084F850800320BDE8F087206827
:10492000806836EA0000D2D00020BDE8F0870000A1
:104930000548044901620549416205498162002038
:1049400070470000A70B0008EC0600209D0B000834
:10495000E90B00080A4601464FF47A730148FEF756
:104960000FBD000058050020DFED2C0A20EE200AC4
:10497000BDEEC00A10EE102A2949002A03DA52427D
:104980000023CB7001E00123CB700A3811283CD200
:10499000DFE800F0090C0F1E12152124272A2D3004
:1049A000181B33363900C02008712EE0C120087171
:1049B0002BE0C220087128E0C320087125E0C42044
:1049C000087122E0D52008711FE0D62008711CE094
:1049D000C520087119E0C620087116E0C7200871CB
:1049E00013E0C820087110E0C92008710DE0CA204A
:1049F00008710AE0CB20087107E0D720087104E0B5
:104A0000D820087101E0D9200871CA71100A887194
:104A1000100C487109210248FFF79CBF0000804438
:104A20006001002082B002F079FD0190FCF788F867
:104A3000084C052101A802F085FAA069401CA0617C
:104A4000FEF712FD012002F045FA01F003FDFCF72C
:104A5000CDF8EEE70000002082B002F05FFD01908B
:104A60002048F0EE000A008900EE100A2048B8EE57
:104A7000400A20EE200ADFED1C0A20EE200ADFEDBE
:104A80001B0A20EE200A80ED000ADFED1A0A1C48FE
:104A900030EE600ADFED180A80EE201A9FED170A4B
:104AA00021EE000A80ED000A164C282101A802F030
:104AB00049FA012211032046FCF766FE0A2001F0A4
:104AC000D3FE1148FBF710FF00224FF4805120461F
:104AD000FCF75AFE192001F0C7FE0B48FBF730FF28
:104AE000E3E70000C8020020000080393333534060
:104AF00044000020CDCC6C406866E63E0000C84211
:104B0000380000200000024008040020404CDFF87C
:104B10000481414D414E0027606802F037FB206858
:104B200002F034FBA06802F031FBE06802F02EFBDB
:104B3000206902F02BFB00224FF480514046FCF725
:104B400023FE02F053F92F6002F070F94FF47A70EF
:104B500002F0C0F902F04AF92868306002F066F904
:104B6000FEF73EFFFCF7BEF8FF210020FEF7ACFD8C
:104B7000FF210120FEF7A8FDFF210220FEF7A4FD82
:104B8000FF210320FEF7A0FD012225492548FEF75D
:104B9000C7F800212448FEF74DF804212248FEF70B
:104BA00049F808212048FEF745F80C211E48FEF779
:104BB00041F800211D48FEF73DF804211B48FEF78F
:104BC00039F808211948FEF735F80C211748FEF787
:104BD00031F80C211648FEF72DF8A0221549164889
:104BE000FCF714FB206802F05BFA606802F058FAE8
:104BF000A06802F055FAE06802F052FA206902F06B
:104C00004FFA606902F04CFA002002F0F5F983E7F0
:104C100000000020000002401C00002020000020B6
:104C20006901002058050020A4040020E0040020B1
:104C30001C050020C80200200804002082B00024C7
:104C40000125002703200190002607200090DFF8AF
:104C5000B0B0012211025846FCF796FDDFF8A4908F
:104C6000DFF8A480DFF8A4A0D8F8000048450BDAEC
:104C7000FCF792FDB04215D94FF480715846FCF70D
:104C80007FFD06F596760DE0504506DB00224FF4D9
:104C900080715846FCF778FD04E001221102584665
:104CA000FCF772FDFCF778FDB84225D93DB1641CD4
:104CB000AA2C00DD0025019801F0D6FD05E0641E58
:104CC00000D10125009801F0CFFD21460020FEF71C
:104CD000FBFC21460120FEF7F7FC21460220FEF7EF
:104CE000F3FC21460320FEF7EFFC002CBCD1FCF7BF
:104CF00053FD00F5FA67B7E7642001F0B5FDB3E7AF
:104D00000004024000007041380000200000C6424C
:104D100010B5FCF747FDBDE8104001F0B2BD000042
:104D200010B592B01F48016841F0805101600068E1
:104D300000F0805000901C48016841F4404101603F
:104D4000006800F440400090012006900790022483
:104D50000C9480050D9004200E9064210F91109406
:104D6000119006A8FCF77AFF05200190029400201C
:104D70000390E10204910590032101A8FCF7A2FD34
:104D8000FCF7E0FE4FF47A71B0FBF1F0FDF748FD5F
:104D90000420FDF736FD00221146501EFCF74CFDA5
:104DA00012B010BD40380240007000400F4801684A
:104DB00041F4700101600E48016841F00101016099
:104DC0000C4A00211160026822F4102222F0807245
:104DD0000260031D084A1A60026822F48022026001
:104DE00006480160064958060860704788ED00E0F3
:104DF0000038024008380240103000240C380240CD
:104E000008ED00E070B402681E4BDFF87CC01F4C58
:104E10001F4D984208D0B0F1804F05D0604503D0B7
:104E2000A04201D0A84203D122F070024E68324362
:104E3000984213D0B0F1804F10D060450ED0A04200
:104E40000CD0A8420AD0A0F1804CBCF5A03C05D003
:104E5000BCF5806C02D0BCF5806C05D122F44072A8
:104E6000D1F80CC04CEA020202608A68C2620A6889
:104E70008262984201D1096901630121416170BCDC
:104E8000704700000000014000040040000800409E
:104E9000000C004001238B40D0F820C02CEA030313
:104EA0000362036A02FA01F1194301627047D0F804
:104EB00008C02CF47F4C42EA0322114341EA0C0162
:104EC00081607047826822F07002114341F007014F
:104ED0008160704710B4026A22F001020262036A24
:104EE0004268D0F818C02CF0700C2CF0030C0C6841
:104EF00044EA0C0C23F002038C682343A0F18044A5
:104F0000B4F580340DD123F00803CC68234323F09B
:104F1000040322F4807222F400724C6922438C69EB
:104F200022434260C0F818C049684163036210BC64
:104F3000704710B4026A22F010020262036A4268EB
:104F4000D0F818C02CF4E04C2CF4407C0C684CEAEF
:104F5000042C23F020038C6843EA0413A0F180445E
:104F6000B4F5803410D123F08003CC6843EA0413F5
:104F700023F0400322F4806222F400624C6942EA8A
:104F800084028C6942EA84024260C0F818C0496811
:104F90008163036210BC704710B4026A22F480720D
:104FA0000262036A4268D0F81CC02CF0700C2CF02E
:104FB000030C0C6844EA0C0C23F400738C6843EA7D
:104FC0000423A0F18044B4F5803410D123F40063AD
:104FD000CC6843EA042323F4806322F4805222F451
:104FE00000524C6942EA04128C6942EA041242609F
:104FF000C0F81CC04968C163036210BC704710B49C
:10500000026A22F480520262036A4268D0F81CC02D
:105010002CF4E04C2CF4407C0C684CEA042C23F477
:1050200000538C6843EA0433A0F18044B4F5803423
:1050300004D122F480424C6942EA84124260C0F8F2
:105040001CC049680164036210BC7047036AD0F851
:1050500020C02CF0010CC0F820C0D0F818C02CF0F3
:10506000F00C4CEA021223F00A0319438261016238
:105070007047036A23F010030362D0F818C0036A74
:105080002CF4704C4CEA023223F0A00343EA0111E5
:1050900082610162704700002DE9F04104462068FA
:1050A000016921F44051E268114301612068C1683F
:1050B00021F4037121F414412369A268D4F81CC0BF
:1050C0001A43636943EA0C031A431143C160206821
:1050D000416921F44071A26911434161E069714A5B
:1050E0007149724D3226B0F5004F38D020688842A1
:1050F00001D090427ED1FCF755FD00EBC00101EBE1
:10510000001061688900B0FBF1F0A5FB00104709B1
:10511000FCF748FD00EBC00101EB0010616889005D
:10512000B0FBF1F8FCF73EFD00EBC00101EB001015
:1051300061688900B0FBF1F0A5FB001040096FF039
:105140001801484308EB800006EB0010A5FB001097
:105150002168400967F31F108860BDE8F08120686E
:10516000884201D0904233D1FCF71CFD00EBC00116
:1051700001EB001061684900B0FBF1F0A5FB0010E5
:105180004709FCF70FFD00EBC00101EB001061685F
:105190004900B0FBF1F8FCF705FD00EBC00101EBA5
:1051A000001061684900B0FBF1F0A5FB0010400958
:1051B0006FF01801484308EB800006EB0010A5FBD8
:1051C00000102168400967F31F108860BDE8F08176
:1051D000FCF7D2FC00EBC00101EB00106168490054
:1051E000B0FBF1F0A5FB00104709FCF7C5FC00EB94
:1051F000C00100E022E001EB001061684900B0FB53
:10520000F1F8FCF7B9FC00EBC00101EB001061689C
:105210004900B0FBF1F0A5FB001040096FF0180148
:10522000484308EB800006EB0010A5FB0010216846
:10523000400967F31F108860BDE8F081FCF79CFC13
:1052400000EBC00101EB001061688900B0FBF1F0D8
:10525000A5FB00104709FCF78FFC00EBC00101EB38
:10526000001061688900B0FBF1F8FCF785FC00EBE9
:10527000C00101EB001061688900B0FBF1F0A5FBF3
:10528000001040096FF01801484308EB800006EB5E
:105290000010A5FB00102168400967F31F1088600B
:1052A000BDE8F08100140140001001401F85EB5162
:1052B0002DE9F04704460E4692461D46FCF76CFA6F
:1052C00007464FF000084FF00109BAF1000F05D072
:1052D0002068006836EA00002FD057E02068006898
:1052E00036EA000052D0B5F1FF3F20D025B1FCF7DF
:1052F00053FAC01BA8421AD92068C16821F0800166
:10530000C1602068C16821F02001C1602068C168C7
:1053100021F48071C1602068416921F0010141617F
:1053200084F8399084F838800320BDE8F08720683D
:10533000006836EA0000D6D128E0B5F1FF3F20D062
:1053400025B1FCF729FAC01BA8421AD92068C16808
:1053500021F08001C1602068C16821F02001C16096
:105360002068C16821F48071C1602068416921F022
:105370000101416184F8399084F838800320BDE848
:10538000F0872068006836EA0000D6D00020BDE82B
:10539000F087000005480068016811F0200F03D075
:1053A00000680248FDF7F4BC704700005805002073
:1053B000052001F059FA0A2C4DD2DFE804F04D0522
:1053C0000C131A2128313A43244890ED2A0A0F2061
:1053D000FFF7CAFA40E0214890ED2B0A0E20FFF7B4
:1053E000C3FA39E01D4890ED2C0A0D20FFF7BCFAF6
:1053F00032E01B49102091ED000AFFF7B5FA2BE0CF
:105400001849112091ED000AFFF7AEFA24E0164882
:1054100090ED000A1220B8EEC00AFFF7A5FA1BE0D3
:10542000114890ED010A1320B8EEC00AFFF79CFA6C
:1054300012E00D4890ED020A1420B8EEC00AFFF702
:1054400093FA09E0084890ED030A1520B8EEC00A67
:10545000FFF78AFA00E00024641CA9E7F0050020A9
:1054600038000020440000203007002003B40198D9
:105470004100009850EAC12018BF04204A0D18BF0F
:1054800040F0010040F2FF72B2EB515F08BF40F004
:105490000200012808BF052002B070474100080241
:1054A00018BF04200A0E18BF40F001004FF07F42E1
:1054B00032EA010108BF40F00200012808BF0520C0
:1054C0007047000010B54FF00E402DED028BB0EE8E
:1054D000408A18EE104A00EB4400B0F1506F4AD8F1
:1054E0004FF0FC40B0EB440F22D2B0EEC80AF7EE0A
:1054F000000A30EEC00AF6EE000A60EE208A18EECE
:10550000900A01F0FCFB01EE100A14F0004F1DBFE1
:10551000DFED2D0A9FED2D0AB1EE411ADFED2C0AC9
:1055200008BF9FED2C0AF8EE001A21EE218A05E053
:10553000DFED290A68EE088AB0EE600A9FED271AAF
:10554000DFED271A30EE080A48EE811A9FED251A82
:1055500008EEA11ADFED241A48EE811A9FED231AF6
:1055600008EEA11A68EE281ABDEC028B01EE810A42
:1055700030EE200A10BD4FF0E440B0EB440F0CD9E0
:1055800018EE100AFFF78AFF042808BF00F01AFE81
:10559000B0EE480ABDEC028B10BD4FF07F40B0EB7F
:1055A000440F07D2B0EE480ABDEC028BBDE81040B4
:1055B00000F0FABD012000F0C7FEBDEC028BBDE893
:1055C000104000F0F7BD00000000C9BF22AAFDB9DD
:1055D0000000C93F22AAFD390000000024FE1C3D46
:1055E000C78AD83C1E67383D1B93993DAFAA2A3E17
:1055F00070B59B482DED020B2DED068B079D25F018
:105600000044A04218DC9748844202DC0AD1069884
:1056100040B19DED060BBDEC068B02B0BDE87040BD
:1056200000F09BBD002DCCBF9FED8F0B9FED900B2D
:10563000BDEC068B02B070BD8F48A04215DD8F48CF
:10564000A042D8BF4FF0FF3458DD9DED060B51EC62
:10565000100BFFF70BFF042808BF00F095FD9DED30
:10566000060BBDEC068B02B070BD9DED060B51EC38
:10567000100B01F07DF8CDE9060181489FED828B8A
:10568000A0423CDD8248A0421FDD00249FED82AB9A
:105690009DED060B53EC1A2B51EC100BFAF708FE9C
:1056A0009DED060B41EC190B53EC1A2B51EC100B32
:1056B000FAF7A5FE53EC182BFAF79BFE53EC192BC7
:1056C000FAF70FFFCDE9060149E09DED060B012435
:1056D00053EC182B51EC100BFAF7EAFD9DED060B7D
:1056E00041EC190B53EC182B51EC100BFAF781FE1F
:1056F00053EC192BFAF7F5FECDE906012FE06848C7
:10570000A0421FDD02249FED689B9DED060B53EC2C
:10571000192B51EC100BFAF772FE53EC182BFAF719
:10572000C7FD9DED060B41EC180B53EC192B51EC0A
:10573000100BFAF75EFE53EC182BFAF7D2FECDE908
:1057400006010CE09DED060B032453EC102B9FED9E
:10575000580B51EC100BFAF7C4FECDE906019DED94
:10576000060B53EC102B51EC100BFAF748FE41ECF2
:10577000180B53EC182BFAF742FE41EC190B4E486C
:105780000621B0EE490AF0EE690A784400F069FC9F
:1057900053EC182B51EC100BFAF731FE41EC180BBF
:1057A0004648B0EE490AF0EE690A0521784400F057
:1057B00058FC53EC192B51EC100BFAF720FE41EC7E
:1057C000100B51EC180B53EC102B002C0EDAFAF7DF
:1057D0006FFD9DED061B53EC112BFAF710FE9DEDAE
:1057E000061B53EC112BFAF707FE35E0FAF760FDC4
:1057F0009DED061B53EC112BFAF701FE41EC100B4B
:105800002F48784400EBC40090ED001B51EC100BC6
:1058100053EC112BFAF7EDFD9DED061B53EC112B0C
:10582000FAF7E7FD41EC100B2648784400EBC40082
:1058300090ED001B51EC100B53EC112BFAF7DCFD33
:1058400041EC100B002DA2BFBDEC068B02B070BD69
:1058500051EC100B81F0004141EC100B01E700000E
:10586000000010440000F07F182D4454FB21F93F44
:10587000182D4454FB21F9BF0000DC3F0000203EFE
:105880000000F33F00000000000000000000F03FB7
:105890000000E63F000000000000000000000040A3
:1058A0000080034000000000000000000000F83FFE
:1058B000000000000000F0BF72200000282000005F
:1058C000B21F00006A1F000070B56B4E2DED040B77
:1058D0002DED028B82B0DDF81CC0DDE905235C42B2
:1058E0002CF000411C4341EAD474049D22F0004096
:1058F000B44205D86C422C4340EAD474B4420BD96C
:105900009DED061B9DED040B02B0BDEC028B04B0B7
:10591000BDE8704000F02BBCACF14054A4F17F64B2
:105920001C430BD0022404EAAC7444EAD27405434D
:105930009FED538B9FED542B07D015E09DED040B8D
:1059400051EC100B00F006FD42E0002C11BF012CC1
:105950009DED040B02B0BDEC028B04BF04B070BD22
:10596000022C38D0032C3BD00B439FED491B9FEDFD
:105970004A0B0AD0B14218D1B04209D121F080417E
:1059800020F08040079105900FE0002A15DA10E022
:10599000434B7B44002C08BF93ED000B0DD0012C32
:1059A00010D0022C17D0032C1AD0B0421DD1002ADF
:1059B00003DAB0EE410AF0EE610A02B0BDEC028BF0
:1059C00004B070BD93ED000B51EC100B81F0004161
:1059D00041EC100BF1E7B0EE480AF0EE680AECE794
:1059E000B0EE420AF0EE620AE7E7401A00153C28E2
:1059F000C8BF8DED000B19DCBCF1000FBEBF10F16C
:105A00003C0F9FED290B8DED000B0FDB9DED060B81
:105A100053EC102B9DED040B51EC100BFAF761FDCC
:105A200000F0A6FE00F096FCCDE90001002C08BFB6
:105A30009DED000BC1D0012C10D0022C9FED1C0B52
:105A400053EC102B9DED000B51EC100B0DD0FAF721
:105A5000D0FC53EC182BFAF7CCFCB9E7019880F096
:105A6000004001909DED000BA7E7FAF7C2FC53EC54
:105A7000182BFAF7C1FCABE70000F07F0000000034
:105A8000182D4454FB210940182D4454FB2109C012
:105A9000182D4454FB21F9BF182D4454FB21F93F24
:105AA0009A1E00000000000000000000000000003E
:105AB000075C143326A6A13C10EE100A10B510EEB8
:105AC000901A4FF0684202EB40032DED028BB3F1C8
:105AD000654F3CBF02EB4102B2F1654F7CD200BF83
