:020000040800F2
:10000000F88E002069020008710200080D3900080E
:10001000750200087702000879020008000000005D
:10002000000000000000000000000000AD0100081A
:100030007D0200080000000001020008B95300081A
:10004000830200088302000883020008830200087C
:10005000830200088302000883020008D913000805
:10006000830200088302000883020008830200085C
:10007000830200088302000883020008830200084C
:1000800083020008830200088302000800000000C9
:1000900000000000000000000000000083020008D3
:1000A000830200088302000883020008830200081C
:1000B000830200088302000883020008830200080C
:1000C00083020008830200088302000883020008FC
:1000D000830200085959000883020008000000004C
:1000E0008302000883020008830200080000000069
:1000F0000000000000000000000000008302000873
:100100000000000083020008830200088302000848
:1001100000000000000000000000000000000000DF
:1001200061130008830200088302000883020008AC
:100130008302000800000000000000000000000032
:100140000000000000000000000000008302000822
:10015000830200088302000883020008830200086B
:100160008302000883020008000000000000000075
:10017000000000000000000000000000000000007F
:1001800000000000830200080000000000000000E2
:100190008302000883020008DFF80CD000F0C2FBE5
:1001A0000048004705820008F88E00202B4B196894
:1001B0000868B0E8F04F80F30988BFF36F8F4FF005
:1001C000000080F3118870470000000006480068B6
:1001D000006880F3088862B661B6BFF34F8FBFF343
:1001E0006F8F00DF00BF00BF08ED00E0DFF80C00FC
:1001F000016841F470010160704700BF88ED00E0C4
:10020000EFF30980BFF36F8F144B1A681EF0100FC5
:1002100008BF20ED108A20E9F04F106008B44FF0BD
:10022000500080F31188BFF34F8FBFF36F8F08F03A
:1002300045FD4FF0000080F3118808BC196808687C
:10024000B0E8F04F1EF0100F08BFB0EC108A80F33A
:100250000988BFF36F8F704700BF00BFB80200204E
:10026000EFF30580704700000648804706480047C6
:10027000FEE7FEE7FEE7FEE7FEE7FEE7FEE7FEE756
:10028000FEE7FEE75554000899010008D2B201E0EC
:1002900000F8012B491EFBD270470022F6E710B58B
:1002A00013460A4604461946FFF7F0FF204610BDE4
:1002B0002DE9FE4F804681EA0300C00F0C460090F6
:1002C00021F0004123F00045B8EB0200A94105D21E
:1002D0004046214690461C460B46024623F000400D
:1002E000104347D0270DC7F30A00C3F30A51029009
:1002F000401A019040286BDAC3F3130040F4801BCE
:100300000098924620B10023D2EB030A63EB0B0B5B
:1003100001985946C0F14002504600F0BDF906462A
:100320000D4650465946019A00F0D5F910EB0800E9
:100330006141002487EA115284EAE7731A4340D0EE
:10034000009A62B3019A012A4FEA075215DC001B9A
:1003500061EB02014FF0004202EA0752CDE9004290
:10036000001C41F5801132462B4600F00CFA03B018
:10037000BDE8F08F40462146F9E7001B61EB020122
:10038000001C41F5801300185B412018A2F50017EE
:1003900047EB030140EAD570B6196D4111E06D08D5
:1003A0004FEA360645EAC0754FEA0752001B61EB7B
:1003B0000201001C41F5801149084FEA3000001984
:1003C000514132462B4603B0BDE8F04F00F0CCB9A6
:1003D0000098012240000023D0EB020263EBE0739F
:1003E000009821464FEAE074B8EB000061EB04018D
:1003F000E9E783F000435BE781F0004158E72DE92E
:10040000FE4F81EA030404F0004421F0004100940F
:100410004FF0000B23F0004350EA01045ED052EA93
:1004200003045BD0C3F30A54C1F30A552C44A4F26D
:10043000F3340194A0FB0254C1F3130141F4801181
:10044000C3F3130343F4801301FB024400FB034E88
:10045000840A970A44EA815447EA8357A4FB076851
:1004600002958D0A05FB07854FEA932C04FB0C547B
:100470002705029D4FEA065847EA1637B5EB0805EF
:100480006EEB070C870E920E47EA811742EA831241
:10049000A7FB0201B6EB0B0164EB00042B0D43EA52
:1004A0000C335E1844EB1C50DA465146E7FB020160
:1004B000C5F313044FEA0B3343EA14534FEA0432F3
:1004C000019C43EA0603A4F10C040294009CCDE9CC
:1004D00000B400F058F903B0BDE8F08F00200146E9
:1004E000F9E72DE9F04D81EA030404F0004B21F017
:1004F000004514464FF0000A23F0004150EA05027F
:1005000020D054EA01021DD0C5F30A570246C5F3B4
:100510001303C1F31300C1F30A5640F4801543F4EA
:100520008013A7EB0608101BD64608F2FD3873EBC4
:10053000050002D308F1010801E092185B41B8F10F
:10054000000F03DA00200146BDE8F08D00204FF4D3
:100550008011064684460EE0171B73EB050705D392
:10056000121B63EB050306434CEA010C49084FEAF2
:10057000300092185B4150EA0107EDD152EA0300C6
:1005800012D082EA040083EA0501084305D0101B5B
:10059000AB4106D20122002306E000224FF00043C7
:1005A00002E06FF0010253101AEB06004CEB085109
:1005B00010EB0A0041EB0B01BDE8F04D00F0D4B8A0
:1005C0000EB5C10F80EAE0700844CA07002140F26E
:1005D00033438DE80E000A460B4600F0D4F803B012
:1005E00000BD0EB540F2334102910021CDE900116A
:1005F0000A460B4600F0C7F803B000BD70B5C1F362
:100600000A5201F000450024C1F3130140F2FF3308
:1006100041F480119A4201DA002070BD40F2334368
:100620009A42A2F2334203DC524200F044F800E066
:1006300090402C43F1D0404270BD00F0004230F0B9
:1006400000400AD0C10D01F56071C0F3160042EA06
:100650000151C2084007114370470020014670470E
:1006600001F0004330B421F0004150EA010206D00D
:100670000A0DA2F56072C1F31301002A02DC30BC3E
:1006800000207047440F44EAC104C100E01830BCA8
:1006900000EBC25000F031B8202A04DB203A00FA07
:1006A00002F1002070479140C2F1200320FA03F3C9
:1006B000194390407047202A04DB203A21FA02F0C7
:1006C0000021704721FA02F3D040C2F1200291408C
:1006D000084319467047202A06DBCB17203A41FA17
:1006E00002F043EAE07306E041FA02F3D040C2F1BF
:1006F000200291400843194670470029A8BF70475F
:10070000401C490008BF20F00100704710B4B0FA47
:1007100080FC00FA0CF050EA010404BF10BC7047E2
:1007200049B1CCF1200421FA04F411FA0CF118BFFC
:10073000012121430843A3EB0C01CB1D4FEA0061CB
:100740004FEA102042BF002010BC704700EBC3509E
:1007500010440029A4BF10BC7047401C490008BFCA
:1007600020F0010010BC704710B5141E73F1000496
:1007700008DA401C41F1000192185B411A4301D193
:1007800020F0010010BD2DE9F04D92469B4611B1BD
:10079000B1FA81F202E0B0FA80F220329046FFF71F
:1007A0007BFF04460F4640EA0A0041EA0B0153462C
:1007B0005A46084313D0114653EA010019D0C8F134
:1007C00040025046FFF777FF05460E465046594611
:1007D0004246FFF761FF084305D0012004E02046B0
:1007E0003946BDE8F08D0020054346EAE0762C430B
:1007F00037430A986305E40AA0EB08000022FD0ACB
:1008000044EA47540A3002D500200146E9E70105D1
:1008100010196941DDE9084500196941BDE8F04D4D
:10082000A2E770B521F0004303430CD0C1F30A5591
:100830000024D5EB040564EB0403D617AD1AB341CD
:1008400002DB0020014670BD201841EB025170BD53
:100850002DE9F04D00231A461B1A8A4103DB0020C4
:100860000146BDE8F08DC1F30A52C1F3130141F412
:1008700080154FF0000BD10702D100186D41521EB8
:100880000027044640F2FF11384601EB620A3E465B
:100890008046024600204FF48011FFF70CFFC2197A
:1008A0007141BB1846EB0100B4EB030C75EB000C77
:1008B00004D3E41A65EB000517460E46241908F127
:1008C00001006D4180463428E3DDF91946EB06004E
:1008D000091BA84103D24FF0FF32134601E000226A
:1008E00013461BEB070046EB0A51BDE8F04DFFF73E
:1008F0003BBF000030B5041E71F1000404DB4FF073
:100900000044404264EB0101141E73F1000405DB56
:100910001C464FF00043524263EB0403994208BF68
:10092000904230BD064C074D06E0E06840F0010300
:1009300094E8070098471034AC42F6D3FFF730FC38
:10094000D4940008F494000830B58C1810F8012BEA
:1009500012F00F0301D110F8013B120906D110F873
:10096000012B03E010F8015B01F8015B5B1EF9D17C
:1009700001E001F8013B521EFBD1A142E6D3002069
:1009800030BD000070B412484168491C416000212C
:10099000104BDFF844C040F6FF7400F11005002250
:1009A000002000EB800603EB460636F81160324467
:1009B000401C2028F5D33CF81100201A20EA5210E0
:1009C00025F81100481CC1B20329E8D970BC704752
:1009D0004000002010030020CE9100081748F0EEE0
:1009E000000A008900EE100A1748B8EE400A20EE0F
:1009F000200ADFED130A20EE200ADFED120A20EEB6
:100A0000200A80ED030ADFED110A30EE600ADFED07
:100A1000100A80EE201A9FED0F0A21EE000A80EDE9
:100A2000020AD0ED000A9FED0C1A60EE810A9FEDDC
:100A30000B1A40EE010AC0ED000A704710030020B7
:100A4000000080393333534040000020CDCC6C404F
:100A50006866E63E0000C842B6F37D3F6F12033C75
:100A600010B5806B90F83D10252905D0152180F830
:100A70003D1000F073FD10BD352180F83D10F8E702
:100A800010B5806B042180F83D10016C41F002012B
:100A9000016400F065FD10BD10B5806B00F05FFDD6
:100AA00010BD00004C490A6822F440320A600A680E
:100AB00043681A430A6001684A6822F480724A60F7
:100AC00001684A68036942EA03224A6001684A6889
:100AD00022F040724A6001684A6883681A434A609B
:100AE00001688A6822F400628A6001688A68C368C3
:100AF0001A438A60C16A6FF07062D14214D00168F3
:100B00008A6822F070628A6001688A68C36A1A4340
:100B10008A6001688A6822F040528A6001688A68A7
:100B2000036B1A438A6009E001688A6822F07062E8
:100B30008A6001688A6822F040528A6001688A6887
:100B400022F002028A6001688A68836942EA4302ED
:100B50008A60416AC1B101684A6842F400624A6031
:100B600001684A6822F460424A6001684A68836A00
:100B70004FF4604C9CFAACFC5B1EBCFA8CFC03FA94
:100B80000CF31A434A6004E001684A6822F40062E8
:100B90004A600168CA6A22F47002CA620168CA6ABD
:100BA000038C5B1E42EA0352CA6201688A6822F41F
:100BB00000728A6001688A68C36942EA43228A60D7
:100BC00001688A6822F480628A6001688A684069E4
:100BD00042EA802088607047042301400000000042
:100BE00070B52DED048B07F0EDF84948494C90EDB8
:100BF000040A94ED001AF8EE400A80EE810A10EE25
:100C0000100AFFF71AFD41EC100B9FED431B05F096
:100C10000FFC9FED431B51EC100B53EC112BFFF716
:100C2000EBFB9FED411B53EC112BFFF7E8FB9FED16
:100C3000401B53EC112BFFF7E2FBFFF711FD00EE19
:100C4000100AD4ED010A9FED3C1A60EE810A9FED77
:100C50003B1A40EE010AC4ED010A394DD5F8B40043
:100C6000FFF7EBFC41EC100B05F0D6FAB0EE408A32
:100C7000F0EE608AD5F8B800FFF7DFFC41EC100B0E
:100C800005F0CAFAB0EE409AF0EE609AE869FFF714
:100C9000D4FC53EC192BFFF724FC53EC182BFFF773
:100CA00020FCFFF7DDFC00EE100A84ED060AD4ED0F
:100CB000040A9FED241A30EE600AD4ED030A40EED8
:100CC000010AC4ED030A94ED020A00EE810A84EDE4
:100CD000020A10EE100AFFF7B0FC9FED1B1B53EC4D
:100CE000112BFFF78CFB41EC180B6068FFF7A5FC9C
:100CF0009FED171B53EC112BFFF781FB53EC182BC7
:100D0000FFF7D6FAFFF7ACFC6061BDEC048B70BD59
:100D1000600700209401002000000020C05BC83F55
:100D2000000000000000F03F000000001AE9504100
:100D300000000040E17A843F6666663FCDCCCC3D42
:100D4000380600200AD7A33B9A9999999999B93FF7
:100D5000CDCCCCCCCCCCEC3F70B52DED028B1E2590
:100D60009FED158B0024164E07F02CF83069FFF725
:100D700038FC53EC182BFFF79BFA41EC180B1E20A4
:100D800007F084FA641CAC42EED32846FFF729FC36
:100D900041EC100B51EC180B53EC102BFFF7A1FB9F
:100DA000FFF75EFC074908609FED070A81ED010A25
:100DB000BDEC028B70BD00000000000000000000D0
:100DC00060070020940100200000000010B504F02E
:100DD00007F90D4807F074F8642007F057FA03206C
:100DE00007F0DCF8642007F051FA042007F01CF942
:100DF000642007F04BFA002007F0F0F8BDE810403F
:100E0000642007F043BA000034070020F8B50D460F
:100E1000164640F080000090094C0020208064239A
:100E200001226946074801F0B2FC64233246294694
:100E3000044801F0A5FB012020800020F8BD00003F
:100E4000B0824042E0050020084611461A46FFF7EE
:100E5000DDBF01F07F001946AFF30080F7B50D4606
:100E600016460A4C00202080642301226946084867
:100E700001F08DFC64232A463146054801F087FCC9
:100E80000120208003B00020F0BD0000B08240426D
:100E9000E005002007F0FAB910B500F075F900F090
:100EA000A1F93B483C493D4CD0ED070A394890ED4B
:100EB000020AB8EEC01A70EE811A91ED071AA03935
:100EC00031EEC12AD1ED071A01F5C87172EE612A1F
:100ED00091ED072A72EE822AFDEEE22A12EE901AB6
:100EE0002160F8EEC02A72EEE02A72EEC12A72EE9C
:100EF000A12A72EE822AFDEEE22AC4ED012AF8EE62
:100F0000C02A72EEE02A72EE812A72EEE12A72EEB7
:100F1000822AFDEEE22AC4ED022AB8EEC00A30EEC3
:100F2000800A30EE010A30EE210A30EE020ABDEEF0
:100F3000C00A84ED030A426812B10278032A14D071
:100F40000078002822D10021084603F02BFB002165
:100F5000012003F027FB0021022003F023FB0021E6
:100F6000BDE81040032003F01DBB002003F01AFB76
:100F70000120616803F016FB0220A16803F012FB58
:100F8000E168BDE81040032003F00CBB10BD000079
:100F9000880700207C020020C80800207807002075
:100FA00010B52DED028B534803F00EFF524803F0AD
:100FB0000BFF524803F008FF514803F005FF51486A
:100FC00003F002FF504803F0FFFE504803F0FCFE20
:100FD0004F4803F0F9FE9FED4F8AB0EE0C0A4548EA
:100FE000B0EE483AF0EE482AB0EE482AF0EE481A41
:100FF000B0EE481AF0EE480A03F0E9FEB0EE483AC7
:10100000F0EE482AB0EE482AF0EE481AB0EE481A40
:10101000F0EE480AB0EE0C0A374803F0D8FEB0EE06
:10102000483AF0EE482AB0EE482AF0EE481AB0EE00
:10103000481AF0EE480AB0EE480A304803F0C7FEFE
:10104000B0EE483AF0EE482AB0EE482AF0EE481AE0
:10105000B0EE481AF0EE480AB0EE480A284803F00D
:10106000B6FEB0EE483AF0EE482AB0EE482AF0EE6E
:10107000481A9FED291AF0EE480AB1EE0C0A2148F1
:1010800003F0A5FEB0EE483AF0EE482AB0EE482A4A
:10109000F0EE081AB0EE481AF0EE480AB1EE0C0A6B
:1010A000194803F094FEB0EE483AF0EE482AB0EE4C
:1010B000482AF0EE481AB0EE481AF0EE480AB0EEB0
:1010C000480A124803F083FEB0EE483AF0EE482A90
:1010D000B0EE482AF0EE481AB0EE481AF0EE480A90
:1010E000B0EE480ABDEC028B0948BDE8104003F0A1
:1010F0006EBE0000D80700201809002078080020E4
:10110000B809002088070020C8080020280800200F
:1011100068090020000000009A99993E82B007F00B
:1011200031FF0190154DDFF85880164C012640F62E
:10113000B8374FF00009322101A807F037FC2078BA
:1011400080B1012816D00228F5D00328F3D1C8F8C1
:10115000007000F031FD2968C8318842EBD984F86D
:101160000090E8E700F028FD2968C8318842E2D203
:101170002670E0E700F076F8DDE70000700100205F
:10118000840200207C02002030B52DED028B83B05C
:101190000020009001909FED0E8A0F4C0D4D05210F
:1011A00094ED030AD5ED2B0A0C4838EE000A03F043
:1011B00057FD94ED040AD5ED2A0A03B038EE000A73
:1011C000BDEC028B0521BDE83040054803F048BD69
:1011D00000000000380600207C020020D807002014
:1011E0001809002010B52DED028B0521174C9FED3D
:1011F000188ADFED188A94ED1B0A174820EE080ABA
:10120000C0EE280A90ED070A503803F029FD94ED4E
:101210001A0A1248052120EE080AC0EE280A90EDAD
:10122000070A503803F01CFD94ED1C0A0C480521F8
:1012300020EE080AC0EE280A90ED070A5038BDECEF
:10124000028BBDE8104003F00BBD00003806002003
:1012500000003443DB0F4940D80700201809002064
:101260007808002010B53B4C012020703B499FEDD1
:101270003A0A81ED130A503981ED130AF03981EDF4
:10128000130A503981ED130AF03181ED130A5039F8
:1012900081ED130A01F5C87181ED130A503981ED12
:1012A000130A606042F20F71002003F07BF942F2F2
:1012B0000F71012003F076F942F20F71022003F062
:1012C00071F942F20F71032003F06CF9322006F03D
:1012D000DDFF0021084603F065F90021012003F03D
:1012E00061F90021022003F05DF90021032003F0E1
:1012F00059F94FF4967006F0C9FF41F28831002089
:1013000003F050F941F28831012003F04BF941F22A
:101310008831022003F046F941F28831032003F0BE
:1013200041F9322006F0B2FF0021084603F03AF9F5
:101330000021012003F036F90021022003F032F9E8
:101340000021032003F02EF94FF49670A0600320D3
:10135000207010BD7C020020000000001809002051
:10136000014800F0C1B900009404002001680A4B54
:10137000CAB2103AA3FB02321209084B9B5C4365C8
:10138000032A04D96FF30901091D016502E06FF317
:1013900009010165006D7047ABAAAAAAFC9100087B
:1013A00010B4D0F800C0DCF8004024F48024CCF85D
:1013B0000040D0F800C0CCF804308368402B05D042
:1013C000036899600068C26010BC704703689A6047
:1013D0000068C16010BC7047022000F0E9BA00004C
:1013E00038B44FF0000CCDF800C090F83C20012A32
:1013F0001BD0012280F83C200A680724092A17D94B
:101400000368DD680A3A02EB420204FA02F225EAB6
:101410000202DA600A788B680A3A02EB42029340D1
:101420000268D4682343D36014E038BC02207047BC
:1014300003681D6902EB420204FA02F225EA020285
:101440001A610A788B6802EB4202934002681469C1
:10145000234313614A681F24072A15D203685D6B72
:10146000521E02EB820204FA02F225EA02025A63D9
:101470000A8893B20A79521E02EB820293400268F4
:10148000546B234353632CE00D2A15D203681D6B64
:10149000D21F02EB820204FA02F225EA02021A6368
:1014A0000A8893B20A79D21F02EB82029340026843
:1014B000146B2343136314E00368DD6A0D3A02EBF7
:1014C000820204FA02F225EA0202DA620A8893B280
:1014D0000A790D3A02EB820293400268D46A2343F0
:1014E000D3621A4B02689A4208D10A68122A05D1BF
:1014F000D3F8042342F48002C3F8042302689A421A
:101500001FD1134C0A68A24201D0112A19D1D3F875
:10151000042342F40002C3F804230968A14210D155
:101520000C490D4A0968B1FBF2F101EB8101490058
:101530000091009929B10099491E00910099002954
:10154000F9D180F83CC038BC002070470020014031
:1015500012000010F402002040420F007047704754
:10156000704770B50446002C04D094F83D00002567
:1015700010B106E0012070BD84F83C50204600F018
:101580000FF8022084F83D002046FFF78BFA25640F
:10159000012084F83D0084F83C50002070BD00001C
:1015A00070B586B005462868A0F18041B1F590314C
:1015B00030D11948016841F480710160006800F47D
:1015C00080700090F020019003240294002603967E
:1015D00001A9124800F0F8F9012001900294039645
:1015E00001A90F4800F0F0F90F4C0E48206066602A
:1015F000A660E66000152061400060618000A06187
:101600004011E061400220626662204600F05CF911
:10161000AC63A56306B070BD4438024000000240D0
:1016200000040240106402409404002038B50446CF
:101630008C460025009594F83C00012828D0012014
:1016400084F83C002068416841F080614160206876
:10165000816841F480718160A16B1E48C863A16BF1
:101660001D480864A16B1D4888642068134600F17A
:101670004C016246A06B00F071F9122084F83D0025
:1016800084F83C502068816811F0010F02D015E009
:10169000022038BD816841F0010181601048114984
:1016A0000068B0FBF1F000EB40000090009828B11A
:1016B0000098401E009000980028F9D120688168A9
:1016C00011F0405F03D1816841F0804181600020CA
:1016D00038BD0000610A0008990A0008810A000864
:1016E000F402002040420F002DE9F0410446256D30
:1016F000286894F85420082101FA02F210424FF0B1
:1017000004074FF0000619D02068026812F0040F99
:1017100014D0026822F00402026094F8540001FA26
:1017200000F0A860E06C40F00100E06484F83570DF
:1017300084F83460A16C09B120468847286894F881
:1017400054205F4901FA02F2104219D02068426920
:1017500012F0800F14D0426922F08002426194F8A6
:10176000540001FA00F0A860E06C40F00200E06470
:1017700084F8357084F83460A16C09B1204688473C
:10178000286894F854204F4901FA02F2104219D007
:101790002068026812F0020F14D0026822F00202E0
:1017A000026094F8540001FA00F0A860E06C40F088
:1017B0000400E06484F8357084F83460A16C09B1E9
:1017C00020468847286894F85410102202FA01F144
:1017D00008422ED02068036813F0080F29D0036850
:1017E00013F4802F4FF0310310D0A96020680168F6
:1017F00011F4002F07D0006810F4002F15D04120FD
:1018000084F8350011E084F835300EE0016811F4F9
:10181000807F03D1016821F00801016094F8540031
:1018200002FA00F0A86084F83530216C09B1204636
:101830008847286894F85410202202FA01F10842DF
:101840003BD02068036813F0100F36D0036813F400
:10185000802F17D0A9602068016811F4002F0AD0EA
:10186000006810F4002F28D0E16B002925D0204615
:10187000BDE8F0410847616C00291ED02046BDE854
:10188000F0410847016811F4807F03D1016821F01D
:101890001001016094F8540002FA00F0A860E06CB6
:1018A000E064112084F8350084F83460E16B00298D
:1018B00003D02046BDE8F0410847BDE8F0810000B4
:1018C000010080000400800070B50446002C27D081
:1018D000616A022084F83500226810681E4B1840A7
:1018E000D4F808C06368256943EA0C03D4F80CC037
:1018F0004CEA050C43EA0C03D4F814C043EA0C0389
:10190000D4F818C043EA0C03D4F81CC043EA0C0313
:10191000D4F820C043EA0C031843042902D005E0A0
:10192000012070BD236BE16A1943084310602268EF
:10193000506920F00700616A0843042901D1A16AB7
:10194000084350612046FFF711FD0020E0640120AC
:1019500084F83500002070BD3F8010F010B50446BB
:1019600094F83400012820D0012084F834000220AB
:1019700084F835002068D0F800C02CF0010CC0F8C5
:1019800000C02046FFF70CFD2068016841F01E01F1
:1019900001602068416941F080014161206801686F
:1019A00041F001010160002010BD022010BD704710
:1019B00010B504490A68024202D00860FFF7F7FF39
:1019C00010BD0000143C01402DE9F84F0022DFF863
:1019D000C491DFF8BC814FF0030E0F2709F1040A10
:1019E000012303FA02F50B682B40AB427ED1D1F8FC
:1019F00004C0BCF1020F02D0BCF1120F12D14FEAA9
:101A0000D20C00EB8C0CDCF820605407E40E07FAD3
:101A100004FB26EA0B06D1F810B00BFA04F43443A9
:101A2000CCF8204006684FEA420C0EFA0CF4A643AC
:101A300091F804B00BF0030B0BFA0CFB4BEA060613
:101A400006604E68012E05D0022E03D0112E01D063
:101A5000122E11D18668A643D1F80CB00BFA0CFBFC
:101A60004BEA06068660466826EA05050E79C6F347
:101A70000016964035434560C56825EA04048D6824
:101A800005FA0CFC4CEA040CC0F80CC0D1F804C0F8
:101A90001CF0805F66D0D8F800C04CF4804CC8F8C9
:101AA00000C0D8F800C00CF4804CCDF800C022F083
:101AB000030C0CF1804505F59835D5F808C8940756
:101AC000240F07FA04F62CEA0606A0F1804CBCF5B8
:101AD000003C4DD0BCF5806C4DD0BCF5806C4DD039
:101AE000BCF5806C4DD0BCF5806C00E03AE04BD08A
:101AF0004FF0050C0CFA04FC4CEA060CC5F808C8BB
:101B0000D9F800C02CEA030C4C6814F4803F01D0D3
:101B10004CEA030CC9F800C0DAF800C02CEA030C48
:101B20004C6814F4003F01D04CEA030CCAF800C022
:101B3000194CD4F800C02CEA030C4D6815F4801F32
:101B400001D04CEA030CC4F800C0144CD4F800C017
:101B50002CEA030C4D6815F4001F01D04CEA030C6D
:101B6000C4F800C0521C102AFFF43AAFBDE8F88F49
:101B70004FF0000CBEE74FF0010CBBE74FF0020C3A
:101B8000B8E74FF0030CB5E74FF0040CB2E70000E4
:101B900044380240003C0140083C01400C3C0140FC
:101BA0004269514041617047002A01D0816170470C
:101BB0000904816170470000014800687047000017
:101BC000F002002002480168491C016070470000D3
:101BD000F002002010B50B48016841F4007101606B
:101BE000016841F480610160016841F48071016025
:101BF000032000F065F8002000F006F800F015F86A
:101C0000002010BD003C024010B5044600F0AAF9C7
:101C10004FF47A72B0FBF2F001F012F80022214684
:101C2000501E00F019F8002010BD10B5032000F080
:101C300047F80022BDE810401146501E00F00CB8D5
:101C400000F01F01012202FA01F14009800000F1B9
:101C5000E020C0F80011704710B4184B1B68C3F3A4
:101C60000223C3F1070CBCF1040F01D94FF0040C9F
:101C70001C1D072C01D2002300E0DB1E012404FA06
:101C80000CFCACF1010C0CEA0101994004FA03F3DD
:101C90005B1E1A401143002808DA00F00F0000F123
:101CA000E020090180F8141D10BC704700F1E0200D
:101CB000090180F8001410BC704700000CED00E032
:101CC00000F00700064A11684FF6FF03194041EA89
:101CD000002040F0FD7040F0806010607047000010
:101CE0000CED00E02DE9F04704460E46DFF868A24F
:101CF000DAF80000994900F00F00994F06F0FF094B
:101D000041F28838B04270D28AF80090DAF80000C8
:101D100000F00F00B04202D00120BDE8F08720782B
:101D200010F0020F05D03868A26820F0F0001043D0
:101D30003860207810F0010F49D06068012808D081
:101D400002280DD003280BD0096811F0020F29D00A
:101D50000AE0096811F4003F06D10120BDE8F087D0
:101D6000096811F0007F1AD0396821F00301084397
:101D70003860FFF721FF05466068012815D002286A
:101D800026D003283BD0386810F00C0F1FD0FFF787
:101D900013FF401B404539D90320BDE8F0870120DF
:101DA000BDE8F0870120BDE8F087386800F00C003E
:101DB00004280CD0FFF700FF401B404502D9032048
:101DC000BDE8F087386800F00C000428F2D1A8E0E4
:101DD000386800F00C00082870D0FFF7EDFE401BBB
:101DE000404503D90320BDE8F08714E0386800F0CF
:101DF0000C000828F1D194E00320BDE8F087386892
:101E0000FFF7DAFE401B4045F9D9F5E7386810F0D6
:101E10000C0FBCD185E0207810F0020F05D0386897
:101E2000A26820F0F00010433860207810F0010F15
:101E30006CD06068012808D002280DD003280BD090
:101E4000096811F0020F29D00AE0096811F4003F77
:101E500006D10120BDE8F087096811F0007F1AD093
:101E6000396821F0030108433860FFF7A5FE0546F5
:101E70006068012815D0022827D003283BD0386895
:101E800010F00C0F42D0FFF797FE401B404539D9A8
:101E90000320BDE8F0870120BDE8F0870120BDE800
:101EA000F087386800F00C0004282FD0FFF784FE7C
:101EB000401B404503D90320BDE8F08731E0386876
:101EC00000F00C000428F1D120E0386800F00C008C
:101ED00008281BD0FFF770FE401B404502D90320A5
:101EE000BDE8F087386800F00C000828F2D10DE05A
:101EF0000320BDE8F0873868FFF75EFE401B4045D1
:101F0000F9D9F5E7386810F00C0FBCD18AF80090C9
:101F1000DAF8000000F00F00B04202D00120BDE866
:101F2000F087207810F0040F05D03868E16820F4BD
:101F3000E05008433860207810F0080F06D0386869
:101F4000216920F4604040EAC10038600020FFF7BA
:101F50005BFE0020BDE8F087003C024000380240F4
:101F60000838024010B500F043F808490968F0222B
:101F700092FAA2F201F0F001B2FA82F2D140044AE0
:101F8000515CC8400349086010BD00000838024099
:101F900004920008F402002010B5FFF7E3FF0749A0
:101FA00009684FF4E05292FAA2F201F4E051B2FA59
:101FB00082F2D140024A515CC84010BD083802404C
:101FC0000492000810B5FFF7CDFF074909684FF4E8
:101FD000604292FAA2F201F46041B2FA82F2D14078
:101FE000024A515CC84010BD083802400492000803
:101FF00010B41F48006810F00C011E481BD04FEAB7
:10200000600C042916D0082915D11B4A116801F06B
:102010003F01136813F4800F47F6C0730DD0BCFB6B
:10202000F1F01168194093FAA3F3B3FA83F3D9409E
:1020300048430CE0604610BC7047B0FBF1F01168FB
:10204000194093FAA3F3B3FA83F3D94048431168D4
:102050004FF4403292FAA2F201F44031B2FA82F225
:10206000D140491C4900B0FBF1F010BC70470000A2
:10207000083802400024F400043802402DE9F84FEB
:102080000446DFF8E8B32078F94D10F0010F4FF067
:10209000000741F2883660D0DBF8000000F00C0049
:1020A00004280AD0DBF8000000F00C0008280DD14D
:1020B000281D006810F4800F08D0286810F4003F35
:1020C0004BD0606878BB0120BDE8F88FDFF8A4939F
:1020D00089F80070FFF770FD8046286810F4003F13
:1020E0000CD0FFF769FDA0EB0800B04202D9032035
:1020F000BDE8F88F286810F4003FF2D1207989F804
:1021000000006068A8B1FFF757FD8046286810F40A
:10211000003F22D1FFF750FDA0EB0800B04203D9E9
:102120000320BDE8F88F18E0286810F4003FF1D0D4
:1021300013E0FFF741FD8046286810F4003F0CD003
:10214000FFF73AFDA0EB0800B04202D90320BDE83A
:10215000F88F286810F4003FF2D12078DFF8188358
:1021600010F0020F64D0DBF800004FF0F80A10F016
:102170000C0F17D0DBF8000000F00C00082804D189
:10218000BE48006810F4800F0CD0E068C8B301208E
:10219000C8F80000FFF710FD8146286810F0020F14
:1021A00016D022E0286810F0020F05D0E068012860
:1021B00002D00120BDE8F88F28689AFAAAF22169B6
:1021C000B2FA82F220F0F8009140084328602FE034
:1021D000FFF7F2FCA0EB0900642802D90320BDE858
:1021E000F88F286810F0020FF2D028689AFAAAF245
:1021F0002169B2FA82F220F0F80091400843286089
:1022000016E0FFE7C8F80070FFF7D6FC81462868A3
:1022100010F0020F0CD0FFF7CFFCA0EB09006428F0
:1022200002D90320BDE8F88F286810F0020FF2D120
:10223000207810F0080F34D09148DFF848A2616987
:10224000C1B101210160FFF7B7FC8146DAF8000057
:1022500010F0020F25D1FFF7AFFCA0EB09006428B6
:1022600002D90320BDE8F88FDAF8000010F0020F61
:10227000F1D016E00760FFF79FFC8146DAF8000016
:1022800010F0020F0DD0FFF797FCA0EB09006428B7
:1022900002D90320BDE8F88FDAF8000010F0020F31
:1022A000F1D1207810F0040F72D07748016841F026
:1022B00080510160006800F080500090DFF8CCA1F0
:1022C000DAF8000040F48070CAF80000FFF774FCF0
:1022D0008146DAF8000010F4807F0DD1FFF76CFC26
:1022E000A0EB0900642802D90320BDE8F88FDAF8D2
:1022F000000010F4807FF1D0DFF894A18AF800701C
:10230000FFF75AFC8146DAF8000010F0020F0DD0FA
:10231000FFF752FCA0EB0900B04202D90320BDE850
:10232000F88FDAF8000010F0020FF1D1207A8AF865
:102330000000A068B0B1FFF73FFC8146DAF800006A
:1023400010F0020F24D1FFF737FCA0EB0900B042D8
:1023500002D90320BDE8F88FDAF8000010F0020F70
:10236000F1D015E0FFF728FC8146DAF8000010F004
:10237000020F0DD0FFF720FCA0EB0900B04202D9FC
:102380000320BDE8F88FDAF8000010F0020FF1D159
:10239000A069E8B3DBF8001001F00C01082979D03E
:1023A000022810D0C8F86070FFF706FC04462868C1
:1023B00010F0007F74D0FFF7FFFB001B64286BD97F
:1023C0000320BDE8F88FC8F86070FFF7F5FB0646FC
:1023D000286810F0007F0BD0FFF7EEFB801B64280D
:1023E00002D90320BDE8F88F286810F0007FF3D1F0
:1023F000216AE069626A014347F6C07090FAA0F072
:10240000B0FA80F002FA00F04FF0FF33A26A00E069
:1024100046E003EB52024FF4403393FAA3F3B3FACE
:1024200083F39A40104308434FF0706292FAA2F28D
:10243000E16AB2FA82F29140014310480160012042
:10244000C8F86000FFF7B8FB0446286810F0007F6A
:1024500026D1FFF7B1FB001B642802D90320BDE899
:10246000F88F286810F0007FF3D019E00838024098
:10247000003802400238024000004742043802405F
:10248000800E4742743802404038024000700040DD
:102490007038024007E0FFE7286810F0007F8AD11B
:1024A0000020BDE8F88F0120BDE8F88F70B5044624
:1024B000002C04D094F85100002510B106E0012052
:1024C00070BD84F85050204600F034F8022084F8A3
:1024D00051002068016821F040010160A168606836
:1024E00022690843E1681143084361690843218B6D
:1024F00001F400710843E1690843216A0843A16AB5
:10250000084321680860A069042101EA1040616A5B
:102510000843216848602168E06A08612068C16951
:1025200021F40061C1616565012084F8510000203B
:1025300070BD000000B587B00068A0F18041B1F522
:10254000605117D10C48016841F480410160006876
:1025500000F4804001904FF460400290022003900C
:1025600001200490032005900520069002A903484D
:10257000FFF72AFA07B000BD4038024000040240CD
:10258000F0B583B004461F4694F85100012802D0EC
:1025900003B00220F0BDC1B1BAB194F850000128D7
:1025A00016D0012684F85060222084F851000025BE
:1025B0006565A163A287E287A564E564A586E586D3
:1025C000A068B0F5004F06D00AE003B00120F0BDCE
:1025D00003B00220F0BD2068036823F48043036049
:1025E000A06AB0F5005F09D12068036823F40053A6
:1025F00003602068036843F4005303606068B0F52B
:10260000827F01D1A06828B12068016811F0400FD5
:102610000AD00DE084F8505013460A462046009731
:1026200000F081F903B0F0BD016841F040010160A4
:10263000E06860B1E08F012839D93B4600220121D2
:10264000204602F053FC28B303B00320F0BDE08F16
:10265000012815D93B4600220121204602F046FC04
:1026600010B103B00320F0BD2068C168A06B421C0C
:10267000A2630170E08F401E80B2E0870128E9D894
:10268000A06AB0F5005F1BD12068016841F4805159
:10269000016015E02068C068A16B0880A06B801CF9
:1026A000A063E08F401E80B2E0870128C5D8A06AF1
:1026B000B0F5005F04D12068016841F480510160E9
:1026C0003B4600220121204602F010FC10B103B06D
:1026D0000320F0BDE06870B12068C068A16B08807D
:1026E000A06B801CA063E08F401EE087A06AB0F55D
:1026F000005F07D019E02068C168A06B421CA2638C
:102700000170F0E73B4600220121204602F0EEFB7B
:1027100030B1606D40F00200606503B00320F0BD91
:102720002068C0680290BDF808006068B0F5827F3C
:102730000BD1A068B0F5004F02D0B0F5806F04D186
:102740002068016821F04001016084F85160206830
:102750008168C1F30011A26AB2F5005F12D189B19C
:10276000616D41F002016165016821F40051016071
:102770002068016841F40051016084F8505003B0B2
:102780000120F0BD84F8505003B00020F0BDF8B532
:1027900004461F4694F85100012801D00220F8BDDC
:1027A000C1B1BAB194F85000012815D0012684F8BF
:1027B0005060122084F85100002565652163A286CF
:1027C000E286E564A564A587E587A06AB0F5005FA9
:1027D00004D00DE00120F8BD0220F8BD206801689A
:1027E00021F4005101602068016841F4005101604A
:1027F000A068B0F5004F04D12068016841F4804121
:1028000001602068016811F0400F03D1016841F0B8
:1028100040010160E06828B1606890B3E08E012853
:1028200030D039E0606810B1E08E012808D1206B0B
:10283000411C216321680078C860E08E401EE0865C
:10284000E08EA0B13B4600220221204602F04EFB62
:1028500008B10320F8BD206B411C2163216800787A
:10286000C860E08E401E80B2E0860028EAD1A06AEF
:10287000B0F5005F31D12068016841F480510160FA
:102880002BE0FFE7206B21680088C860206B801C6C
:102890002063E08E401EE086E08EA8B13B46002219
:1028A0000221204602F022FB08B10320F8BD206B74
:1028B00021680088C860206B801C2063E08E401E69
:1028C00080B2E0860028E9D1A06AB0F5005F04D1AB
:1028D0002068016841F4805101603B4600220221DA
:1028E000204602F003FB28B1606D40F020006065D7
:1028F0000320F8BD3B4601228021204602F0F6FA73
:1029000028B1606D40F0200060650320F8BDA0682C
:1029100018B92068C1688068009084F8516084F814
:1029200050500020F8BDF8B50446069F94F85100B9
:10293000012803D0222801D00220F8BD69B162B17C
:102940005BB194F85000012809D0012684F850604A
:1029500094F85100012804D006E00120F8BD0220BF
:10296000F8BD322084F8510000256565A263A38775
:10297000E3872163A386E386A564E564A06AB0F5D6
:10298000005F09D12068016821F4005101602068CE
:10299000016841F4005101602068016811F0400FA6
:1029A00003D1016841F040010160E068B0F5006FBB
:1029B00006D06068002875D0B0F5827F7FD08AE0AD
:1029C000606828B1B0F5827F0CD1E08E012809D172
:1029D000206B21680088C860206B801C2063E08E1B
:1029E000401EE086E08EE8B9A06AB0F5005F04D131
:1029F0002068016841F4805101603B4600220121BA
:102A0000204602F073FA08B10320F8BD2068C068C0
:102A1000A16B0880A06B801CA063E08F401EE08744
:102A200000F0BCB83B4600220221204602F05EFACC
:102A300008B10320F8BD206B21680088C860206BB6
:102A4000801C2063E08E401E80B2E08640B9A06A00
:102A5000B0F5005F04D12068016841F48051016045
:102A60003B4600220121204602F040FA08B1032033
:102A7000F8BD2068C068A16B0880A06B801CA063B3
:102A8000E08F401EE087E08E0028CBD160680028F0
:102A90007AD13B4600220121204602F027FA18B1E4
:102AA0000320F8BD0EE00AE02068C068A16B088032
:102AB000A06B801CA063E08F401EE0876EE0E08E7C
:102AC000012808D1206B411C216321680078C8606F
:102AD000E08E401EE086E08EC8B9A06AB0F5005FC7
:102AE00004D12068016841F4805101603B46002216
:102AF0000121204602F0FAF908B10320F8BD206850
:102B0000C068A16B0870E08F401EE08746E03B463E
:102B100000220221204602F0E9F908B10320F8BDA5
:102B2000206B411C216321680078C860E08E401E44
:102B300080B2E08640B9A06AB0F5005F04D1206899
:102B4000016841F4805101603B460022012120468A
:102B500002F0CCF908B10320F8BD2068C168A06B71
:102B6000421CA2630170E08F401EE087E08E0028C7
:102B7000CDD1606840B93B4600220121204602F0D9
:102B8000B5F910B10320F8BD08E02068C168A06B5A
:102B9000421CA2630170E08F401EE087A06AB0F57E
:102BA000005F11D13B4600220121204602F09EF930
:102BB00028B1606D40F0020060650320F8BD206818
:102BC000C0680090BDF800003B46012280212046ED
:102BD00002F08CF928B1606D40F0200060650320A0
:102BE000F8BD84F8516020688168C1F30011A26AC1
:102BF000B2F5005F11D181B1616D41F002016165F3
:102C0000016821F4005101602068016841F400511D
:102C1000016084F850500120F8BD84F85050002025
:102C2000F8BD4FF0E021042804D0086920F004002A
:102C300008617047086940F00400086170470000AF
:102C4000401EB0F1807F01D3012070474FF0E0219A
:102C50004861044AF0201070002088610720086154
:102C60000020704723ED00E010B490F83820012ACE
:102C700025D0012280F83820022380F83930D1F89D
:102C800004C00B68CC6843EA0C03D1F808C04CEAD6
:102C9000040C43EA0C03D1F810C043EA0C03D1F84A
:102CA00014C0896943EA0C0319430368596480F826
:102CB0003920002180F8381010BC0020704710BC6B
:102CC0000220704710B490F83820012A2AD001233E
:102CD00080F83830022280F839200268D2F804C027
:102CE0002CF0700CC2F804C00268D2F804C00C6862
:102CF0004CEA040CC2F804C00268D2F808C02CF0F8
:102D0000800CC2F808C00268D2F808C049684CEAD2
:102D10000101916080F83930002180F8381010BC32
:102D20000020704710BC0220704710B50446002CEC
:102D300003D094F8390010B107E0012010BD002045
:102D400084F83800204600F00DF8022084F839009D
:102D5000211D206802F0AAFB012084F83900002020
:102D600010BD000010B586B00168002202231B4888
:102D7000A1F180444FF0010CB4F5803417D0B1F1CB
:102D8000804F12D116490C6844F001040C600968A8
:102D900001F0010100910F2101910293039204922D
:102DA000CDF814C001A9FEF70FFE06B010BD0D4905
:102DB0000C6844F001040C60096801F00101009105
:102DC0004FF470610191029303920492CDF814C004
:102DD00001A9FEF7F9FD06B010BD00000000024099
:102DE000403802404438024070B5044694F8380038
:102DF000012818D0012584F83850022084F83900C1
:102E00002068826822F0770222F47F42826008689C
:102E100050283AD00EDC20285FD006DC002852D0A3
:102E2000102863D154E0022070BD30285AD04028C9
:102E30005CD13EE0602832D070280CD0B0F5805FC5
:102E400003D0B0F5005F51D113E02068816821F014
:102E5000070181604AE0CB684A688968206802F00F
:102E60007AFB2068816821F0770141F07701816069
:102E70003CE0CB684A688968206802F06CFB2068F7
:102E8000816841F48041816030E0CA684968206807
:102E900002F030FC5021206802F068FB26E0CA688E
:102EA0004968206802F039FC6021206802F05EFB6E
:102EB0001CE0CA684968206802F01CFC40212068B8
:102EC00002F054FB12E00021206802F04FFB0DE0FD
:102ED0001021206802F04AFB08E02021206802F05F
:102EE00045FB03E03021206802F040FB84F83950B4
:102EF000002084F8380070BD70B504460D4694F883
:102F0000380001280DD0012684F83860022084F8AA
:102F1000390042B1042A1AD0082A2DD00C2A53D1E4
:102F20003EE0022070BD2946206802F027FB2068A1
:102F3000816941F0080181612068816921F0040103
:102F40008161206881692A69114381613CE02946D9
:102F5000206802F042FB2068816941F400618161D0
:102F60002068816921F480618161206881692A6912
:102F700041EA0221816127E02946206802F060FBD6
:102F80002068C16941F00801C1612068C16921F070
:102F90000401C1612068C1692A691143C16113E05C
:102FA0002946206802F07FFB2068C16941F4006176
:102FB000C1612068C16921F48061C1612068C16973
:102FC0002A6941EA0221C16184F83960002084F84D
:102FD000380070BD10B50446002C03D094F83900B9
:102FE00010B107E0012010BD002084F83800204611
:102FF00000F00CF8022084F83900211D206802F04E
:1030000055FA012084F83900002010BD00B587B0C2
:103010000068A0F18041B1F5006115D10B4801684D
:1030200041F004010160006800F0040001904FF4D9
:1030300000700290022003900021049105910690F7
:1030400002A90348FEF7C0FC07B000BD40380240AB
:103050000004024010B504460122206802F06EFA16
:103060002068A0F18041B1F5803103D1416C41F479
:10307000004141642068016841F0010101600020C5
:1030800010BD70B50446002C04D094F8390000251A
:1030900010B106E0012070BD84F83850204600F0E1
:1030A00021F8022084F839002068C16821F4005119
:1030B000C160204602F044FB2068016921F4904180
:1030C00001612068416921F02A0141612068C168DD
:1030D00041F40051C160E563012084F8390000200B
:1030E00070BD000000B587B00068A0F18041B1F567
:1030F00088311ED11048016841F01001016000685C
:1031000000F010000190C0200290022003900120E6
:103110000490032005900720069002A90748FEF7B7
:1031200053FC002207212520FEF796FD2520FEF7FF
:1031300087FD07B000BD0000443802400004024093
:1031400090F83930012B03D0122B01D002207047A8
:1031500031B32AB390F83830012B23D0012380F803
:10316000383081628285C2850022C26390F83910AE
:10317000122919D0222180F839100168CB6843F454
:103180008073CB6001684B6943F001034B6180F8A9
:1031900038200068C16841F02001C16000207047FC
:1031A0000120704702207047322180F83910E4E78F
:1031B00070B5F94DF94E2978032905D17078307032
:1031C000B0787070F078B070F5484068C0B2705454
:1031D00000F01EFB307801280BD17078022808D14E
:1031E000B078032805D1F078042802D12878401C53
:1031F0002870287809287DD1307948B101280FD16D
:103200007079B179000400EB0120F179441807E0EE
:103210007079B179000400EB0120F179084444424F
:10322000307A9FEDE00A552800F0CF8221DCA0F132
:103230002000352880F0DE82DFE800F062768AF434
:10324000F4F4A0B4C8F3F2F1F0EFEEF4F4F4F4F413
:10325000F4EDECF4F4F4F4F4F4F4F4F4F4F4F4F43D
:10326000F4EBEAE9E8E7E6E5E4E3E2E1E0DFDEDD0E
:10327000DC00CD49EC2800F02D8223DCE22800F0B0
:10328000B98214DC602877D00BDC562800F0A682C7
:10329000C649572800F0AB82582840F0AB8200F0B6
:1032A000A8BA612869D0642840F0A48219E0E33804
:1032B000092880F09F82DFE800F0B5B5EEEDECEB79
:1032C000EAE9E800ED38122880F09482DFE800F0A7
:1032D000F1F0AAABEFEEC9D3F2FCEBEAE9E8E7E6DE
:1032E000E5E4BFF34F8FB2480168B24A01F4E061F0
:1032F000114300E080E20160BFF34F8F00BFFDE7A4
:1033000000EE904AAC48F8EEE00A60EE800AC0EDAC
:10331000000A00EE904AA948F8EEE00A20EE800A82
:1033200080ED000A00F066BA00EE904AA248F8EE7E
:10333000E00A60EE800AC0ED010A00EE904A9F4864
:10334000F8EEE00A20EE800A80ED010A00F052BAA1
:1033500000EE904A9848F8EEE00A60EE800AC0ED70
:10336000020A00EE904A9548F8EEE00A20EE800A44
:1033700080ED020A00F03EBA5FE068E000EE904A9D
:103380008F48F8EEE00A60EE800AC0ED000A00EE19
:10339000904A8C48F8EEE00A20EE800A80ED000AA0
:1033A00000F028BA00EE904A8548F8EEE00A60EE98
:1033B000800AC0ED010A00EE904A8248F8EEE00A69
:1033C00020EE800A80ED010A00F014BA00EE904A67
:1033D0007B48F8EEE00A60EE800AC0ED020A00EEDB
:1033E000904A7848F8EEE00A20EE800A80ED020A62
:1033F00000F000BAE0E1D6E1CBE1C0E1B5E1ABE13C
:10340000A1E197E18DE183E179E107E1FFE0F7E0F8
:10341000EFE0E7E00DE108E1B0E0A8E0A0E098E02F
:1034200090E088E0E6E100EE904AF8EEE00A20EE57
:10343000800A81ED000A00F0DDB900EE904AF8EE56
:10344000E00A20EE800A81ED010A00F0D3B900EE17
:10345000904AF8EEE00A20EE800A81ED020A00F0C0
:10346000C9B900EE904AF8EEE00A20EE800A85ED38
:10347000010A00F0BFB900EE904AF8EEE00A20EE33
:10348000800A85ED020A00F0B5B91CE114E10CE1F7
:1034900002E1F8E0DCE0D2E09DE095E075E041E09B
:1034A00037E02DE023E019E00EE003E0E2E0D8E0B1
:1034B0001EE116E100EE904AF8EEE00A20EE800AE6
:1034C00085ED030A00F096B900EE904AF8EEE00AA6
:1034D00020EE800A85ED040A00F08CB900EE904AD7
:1034E000F8EEE00A20EE800A85ED050A82E100EEA2
:1034F000904AF8EEE00A20EE800A85ED060A79E1AE
:1035000000EE904AF8EEE00A20EE800A85ED070A08
:1035100070E100EE904AF8EEE00A20EE800A85EDB8
:10352000080A67E100EE904AF8EEE00A20EE800A11
:1035300085ED090A5EE100EE104AB8EEC00A85ED9D
:10354000160A57E100EE104AB8EEC00A85ED170AD8
:1035500050E100EE104AB8EEC00A85ED180A49E1C4
:1035600000EE104AB8EEC00A85ED190A42E100EEFD
:10357000104AB8EEC00A85ED1A0A3BE100EE104A87
:10358000B8EEC00A85ED1B0A34E100EE104AB8EE31
:10359000C00A85ED1C0A2DE1B0000020280700209C
:1035A000001001400000803AB80900208402002089
:1035B0000CED00E00400FA0588070020C808002090
:1035C000D80700201809002000EE104AB8EEC00A03
:1035D00085ED1D0A0EE100EE104AB8EEC00A85ED39
:1035E0001E0A07E100EE104AB8EEC00A85ED1F0A78
:1035F00000E100EE104AB8EEC00A85ED200AF9E0BD
:1036000000EE104AB8EEC00A85ED210AF2E000EEA5
:10361000104AB8EEC00A85ED220AEBE000EE104A2F
:10362000B8EEC00A85ED230AE4E074490120087071
:10363000E0E073490020086070490870DAE000EEAD
:10364000904AF8EEE00A20EE800A85ED0A0AD1E001
:1036500000EE904AF8EEE00A20EE800A85ED0B0AB3
:10366000C8E000EE904AF8EEE00A20EE800A85ED10
:103670000C0ABFE000EE904AF8EEE00A20EE800A65
:1036800085ED0D0AB6E000EE904AF8EEE00A20EE75
:10369000800A85ED0E0AADE000EE904AF8EEE00AF1
:1036A00020EE800A85ED0F0AA4E000EE104AB8EE85
:1036B000C00A85ED100A9DE000EE104AB8EEC00A7F
:1036C00085ED110A96E000EE104AB8EEC00A85EDCD
:1036D000120A8FE000EE104AB8EEC00A85ED130A18
:1036E00088E000EE104AB8EEC00A85ED140A81E0C9
:1036F00000EE104AB8EEC00A85ED150A7AE000EE39
:10370000904AF8EEE00A20EE800A85ED240A71E086
:1037100000EE904AF8EEE00A20EE800A85ED250AD8
:1037200068E000EE904AF8EEE00A20EE800A85EDAF
:10373000260A5FE000EE904AF8EEE00A20EE800AEA
:1037400085ED270A56E000EE904AF8EEE00A20EEFA
:10375000800A85ED280A4DE000EE904AF8EEE00A76
:1037600020EE800A85ED290A44E000EE904A2548C3
:10377000F8EEE00A20EE800A80ED000A3AE000EE62
:10378000904A2148F8EEE00A20EE800A80ED000A17
:1037900030E000EE904A1D48F8EEE00A20EE800A84
:1037A00080ED000A26E000EE904AF8EEE00A20EEF6
:1037B000800A85ED2A0A1DE000EE904AF8EEE00A44
:1037C00020EE800A85ED2B0A14E000EE904AF8EE18
:1037D000E00A20EE800A85ED2C0A0BE000EE904A0C
:1037E000F8EEE00A20EE800A85ED2D0A02E00C607A
:1037F00000E00C600320287070BD00007C020020F7
:103800008002002070020020740200207802002054
:1038100038B5374DD5F8B810491CC5F8B8106978D7
:1038200005F1CC04022903D162782270A27862707B
:1038300060542078AA2804D16078852801D1481CDA
:1038400068706878082851D1D5F8BC00401CC5F8CC
:10385000BC00FEF7B1F9C5F8C00020798DF803006F
:1038600060798DF80200A0798DF80100E0798DF87B
:103870000000E07810B1012810D035E0A0781728BA
:1038800032D1BFF34F8F1B4801681B4A01F4E0613E
:1038900011430160BFF34F8F00BFFDE7A0789FED9C
:1038A000170A20B1012816D002281DD109E0DDED4C
:1038B000000A1348F8EEE00A80EE801A80ED001A44
:1038C00012E0DDED000A0F48F8EEE00A80EE801A03
:1038D00080ED001A08E0DDED000A0B48F8EEE00A82
:1038E00080EE801A80ED001A0220687038BD00005A
:1038F000B00000200CED00E00400FA0500007A445E
:10390000880200208C02002090020020FEE70000C8
:103910002DE9F0412DED048B96B0002613961496F8
:1039200015968A4890E80E10D0E906780469456932
:10393000CDE90DC4CDF8448010970F950C930B92F0
:103940000A91006A129007960896099604960596C1
:10395000069601960296039604F07CFC05467C4F81
:10396000DFED7C8AB86A48B1281A00EE100AB8EE7A
:10397000400ADFED790A80EE208A01E0B0EE688A25
:10398000BD6201F035FA754C607800287CD094ED6A
:103990001A0AD4ED110A30EE600AD4ED1B0A94ED38
:1039A000121A70EEC10A94ED1C1AD4ED131A31EEFE
:1039B000611AD4ED141AF1EE611A94ED152AB1EEE4
:1039C000422AD4ED162AF1EE622A9DED034ADDED7E
:1039D000023A9DED013AF1EE622AB1EE422AF1EE91
:1039E000611AF0EE485A9FED5E5AF7EE004A00F079
:1039F000D9FED7ED0C2A97ED103AD7ED133A97ED93
:103A0000154A32EE830A30EE630A30EE449A97ED9F
:103A1000030A97ED041AD7ED021A97ED052A60EE16
:103A2000010AF0EE004A41EE820A60EEA49A60EECE
:103A3000020A41EEC10A60EEA48A72EEC30A21EEC8
:103A4000021A01EE801A21EE240A70EEE30A70EEEB
:103A5000840A02F0B9FAB0EE408AB0EE680A01F0CA
:103A6000B9FFF1EE408AF0EE490AB0EE690A02F0C1
:103A7000ABFA84ED2D8AC4ED2E8A84ED2F0ADFED9A
:103A8000390A68EE201A00E016E09FED371A81EE41
:103A9000812A84ED2A2A68EEA01A81EE812A84ED1B
:103AA0002B2A20EE200AC0EE010AC4ED2C0A16B023
:103AB000BDEC048BBDE8F081F86A00B9FD622B48CB
:103AC000D4ED080A90ED000A30EE200A80ED000ADD
:103AD000D0ED010A94ED091A70EE810AC0ED010AD9
:103AE00090ED021AD4ED0A1A31EE211A80ED021A75
:103AF000F988491C89B2F980FA6A02F5371202F591
:103B0000D8629542D3D901EE901AF8EE611A80EE90
:103B1000212A84ED112A00EE101AB8EE400AC0EEF8
:103B2000801AC4ED121A00EE101AB8EE400AC1EE67
:103B3000000AC4ED130AFE80C0ED008AC0ED018AC0
:103B4000C0ED028A01206070FE62B0E7D8910008E3
:103B500058000020000000000024744938060020AE
:103B6000CDCC4C3D00003443DB0F49401C07002006
:103B7000FF2901DDFF2102E0002900DA00214FF0DA
:103B8000804238B1012807D0022807D0032800D18D
:103B90005163704791637047D163704711647047F8
:103BA0001D49D1ED000AF5EEC00AF1EE10FA32D946
:103BB00091ED061AD1ED011AF0EE400A91ED022ABC
:103BC00041EE610AD1ED071A41EEC20A10EE900AE9
:103BD00020F00040C0F1FF40C00F50B910EE900A35
:103BE0004FF07F42B2EB400F01D1012000E00020F6
:103BF00008B1F0EE400A91ED030A91ED042A20EE9F
:103C0000800A01EE020A91ED052A01EE820A81ED99
:103C1000071AC1ED060A7047B00100201D49D1ED19
:103C2000080AF5EEC00AF1EE10FA32D991ED0E1A3B
:103C3000D1ED091AF0EE400A91ED0A2A41EE610A2F
:103C4000D1ED0F1A41EEC20A10EE900A20F00040AA
:103C5000C0F1FF40C00F50B910EE900A4FF07F4204
:103C6000B2EB400F01D1012000E0002008B1F0EEDE
:103C7000400A91ED0B0A91ED0C2A20EE800A01EE2C
:103C8000020A91ED0D2A01EE820A81ED0F1AC1EDB3
:103C90000E0A7047B00100201D49D1ED100AF5EE63
:103CA000C00AF1EE10FA32D991ED161AD1ED111ABF
:103CB000F0EE400A91ED122A41EE610AD1ED171A99
:103CC00041EEC20A10EE900A20F00040C0F1FF4021
:103CD000C00F50B910EE900A4FF07F42B2EB400F88
:103CE00001D1012000E0002008B1F0EE400A91ED82
:103CF000130A91ED142A20EE800A01EE020A91EDDA
:103D0000152A01EE820A81ED171AC1ED160A7047D5
:103D1000B00100201D49D1ED180AF5EEC00AF1EE00
:103D200010FA32D991ED1E1AD1ED191AF0EE400AAF
:103D300091ED1A2A41EE610AD1ED1F1A41EEC20A35
:103D400010EE900A20F00040C0F1FF40C00F50B9C3
:103D500010EE900A4FF07F42B2EB400F01D10120EC
:103D600000E0002008B1F0EE400A91ED1B0A91ED51
:103D70001C2A20EE800A01EE020A91ED1D2A01EEB6
:103D8000820A81ED1F1AC1ED1E0A7047B0010020A2
:103D90001D49D1ED200AF5EEC00AF1EE10FA32D934
:103DA00091ED261AD1ED211AF0EE400A91ED222A6A
:103DB00041EE610AD1ED271A41EEC20A10EE900AD7
:103DC00020F00040C0F1FF40C00F50B910EE900A43
:103DD0004FF07F42B2EB400F01D1012000E0002004
:103DE00008B1F0EE400A91ED230A91ED242A20EE6D
:103DF000800A01EE020A91ED252A01EE820A81ED88
:103E0000271AC1ED260A7047B00100201D49D1EDE7
:103E1000280AF5EEC00AF1EE10FA32D991ED2E1A09
:103E2000D1ED291AF0EE400A91ED2A2A41EE610AFD
:103E3000D1ED2F1A41EEC20A10EE900A20F0004098
:103E4000C0F1FF40C00F50B910EE900A4FF07F4212
:103E5000B2EB400F01D1012000E0002008B1F0EEEC
:103E6000400A91ED2B0A91ED2C2A20EE800A01EEFA
:103E7000020A91ED2D2A01EE820A81ED2F1AC1ED81
:103E80002E0A7047B001002038B5012400200090B0
:103E90006946752000F046F99DF80000712800D0B1
:103EA0000024002000F030F80090482800D00024C2
:103EB000204638BD30B587B00024124890E80E1077
:103EC00005694069CDE904C501910393029206900A
:103ED00001AD05EB440015F81410407800F05EF9D0
:103EE0000A2004F02BFD601CC4B20B2CF1D304F0AB
:103EF000E9F8642004F022FD07B0BDE83040FFF788
:103F0000C3BF0000B891000830B583B00546002259
:103F1000029201924FF480749821312000F03EF912
:103F20000A2004F00BFD2946322000F037F90A2060
:103F300004F004FD8021342000F030F90A2004F060
:103F4000FDFC02A9362000F0EDF80A2004F0F6FC92
:103F50009DF8080010F0400F01D1641EF1D201A9B4
:103F6000352000F0DFF89DF8040003B030BDF8B54F
:103F700005460E46002200924FF48074182131202D
:103F800000F00CF90A2004F0D9FC2946322000F098
:103F900005F90A2004F0D2FC3146332000F0FEF887
:103FA0000A2004F0CBFC8021342000F0F7F80A202E
:103FB00004F0C4FC6946362000F0B4F80A2004F08E
:103FC000BDFC9DF8000010F0400F01D1641EF1D23D
:103FD000F8BD000000B587B0162201A93B2000F013
:103FE000BFF89DF805009DF8041040EA01214948FA
:103FF00001809DF807109DF8062041EA02214180CA
:104000009DF809109DF8082041EA022181809DF861
:104010000B109DF80A2041EA02213F4A1288891AB2
:10402000C1809DF80D109DF80C2041EA022101810C
:104030009DF80F109DF80E2041EA022141819DF864
:1040400011109DF8102041EA022181819DF8131082
:104050009DF81420B6EE001A41EA022109B200EEE2
:10406000101A2E49F7EE002AF8EEC01A0A78DFED92
:104070002C0A803A00EE102AB8EEC00A20EE012A7F
:10408000B0EE620A02EE200A61EE801AFDEEE11A3D
:1040900011EE902AC2819DF815209DF81630B0EEE1
:1040A000620A42EA032212B201EE902A4A78B8EE7E
:1040B000E12A803A01EE902AF8EEE11A61EE811AC7
:1040C00001EEA00A62EE001AFDEEE11A11EE902A4E
:1040D00002829DF817209DF81830897842EA032261
:1040E00012B201EE902A8039B0EE620AB8EEE12AEF
:1040F00001EE901AF8EEE11A21EE811A01EE200A83
:1041000022EE000ABDEEC00A10EE101A418207B07E
:1041100000BD0000FC020020380000203A00002012
:104120000000003C38B50D4640F0800000900A4C7D
:10413000002020804FF47A73012269460748FEF779
:1041400026FB4FF47A73012229460448FEF718FA39
:104150000120208038BD0000A8824042E0050020F8
:10416000F8B50D46164640F080000090094C00203E
:1041700020804FF47A73012269460748FEF707FB57
:104180004FF47A73324629460348FEF7F9F90120C5
:104190002080F8BDA8824042E005002038B58DF8A7
:1041A00000008DF80110064C002020804FF47A7337
:1041B000022269460348FEF7EAFA0120208038BD52
:1041C000A8824042E005002030B585B01E481D4958
:1041D00001604FF44031416000218160012404619D
:1041E000846141620163C16005250562C46141616A
:1041F000FDF7B7F900950194072402946946124827
:10420000FDF7EEF8062000900220019069460E4866
:10421000FDF7E6F800940320019069460A48FDF78F
:10422000DFF8082000900424019469460648FDF751
:10423000D7F80094019569460348FDF7D1F805B019
:1042400030BD0000002001405004002008B509489E
:10425000016841F480010160006800F48000009072
:10426000002205213820FDF7F7FCBDE80840382082
:10427000FDF7E6BC3038024030B5A3B0324CD4F87C
:1042800010C0A36862682168E068CDF888C02093F8
:104290001F921E91219000211EA804F00EF82B4DB4
:1042A000286004F1140090E80F101B92CDE91C3C2B
:1042B0001A911990002119A803F0FFFF686004F11A
:1042C000280090E80F10CDE9173C16921591149034
:1042D000002114A803F0F1FFA86004F13C0090E86D
:1042E0000F101192CDE9123C10910F9000210FA8F0
:1042F00003F0E3FFE86004F1500090E80F10CDE90F
:104300000D3C0C920B910A9000210AA803F0D5FFF6
:10431000286104F1640090E80F100792CDE9083C91
:1043200006910590002105A803F0C7FF6861783465
:10433000B4E80F108DE80F100021684603F0BDFFB0
:10434000A86123B030BD00002C91000800000020BF
:1043500070B586B02048016841F0800101600168B5
:1043600001F080010091016841F0010101600168E4
:1043700001F001010091016841F002010160006853
:1043800000F00200009002200190144802900024E6
:104390000394134E01A93046FDF716FB4FF4A851C4
:1043A0000191012502950394049401A93046FDF77B
:1043B0000BFB2803019002950394049401A909487A
:1043C000FDF702FB002205210720FDF745FC072031
:1043D000FDF736FC06B070BD303802400000111009
:1043E00000040240000002400C480B4901604FF4F9
:1043F0008271416000218160C1600222026101225C
:104400004261520282610822C2610162416281629C
:104410000721C162FEF74AB800380040E0050020DD
:1044200010B594B02448234901600024446084609E
:1044300042F20F71C16004614461FEF776FC4FF4F3
:104440008050109010A91C48FEF7CEFC1A48FEF7C9
:10445000C1FD0E940F940EA91748FEF733FC079484
:10446000089409940A940B944FF400500C900D9406
:1044700007A91148FEF7F8FB602000900194029410
:104480000394049405940694002269460A48FEF7B2
:1044900033FD042269460848FEF72EFD08226946CE
:1044A0000548FEF729FD0C2269460348FEF724FD66
:1044B00014B010BD00000140EC04002010B58EB017
:1044C0001B484FF0804101606321416000248460FB
:1044D000FF21C1600461FEF728FC4FF480500A9070
:1044E0000AA91348FEF780FC1148FEF773FD0894F3
:1044F000099408A90E48FEF7E5FB6020019002949C
:1045000003940594002201A90948FEF7F5FC042252
:1045100001A90748FEF7F0FC082201A90448FEF7AC
:10452000EBFC0C2201A90248FEF7E6FC0EB010BD20
:104530002805002010B58AB00F480E49016063219C
:10454000416000248460FF21C1600461FEF742FDE8
:104550000894099408A90848FEF7B4FB602001906C
:104560000294039405940C2201A90348FEF7C4FCAD
:104570000AB010BD00080040640500200848074943
:1045800001604FF4E131416000218160C16001614F
:104590000C2242618161C161FEF773BD00100140D0
:1045A000A005002042F21072914201DD114602E0A6
:1045B000642900DA0021084A38B1012807D002280E
:1045C00007D0032800D1116470475163704791638D
:1045D0007047D163704700000000014010B52DED19
:1045E0000A8BB0EE40BAF0EE60BAF0EE619AF0EEEF
:1045F000428AB0EE629AB1EE418A18EE100AFCF7D8
:104600001CF841EC1A0BB1EE6B0A10EE100AFCF725
:1046100014F841EC100BB0EE4A1AF0EE6A1A01F0F1
:10462000DBFB51EC100BFCF71BF80AEE900A18EEBE
:10463000100AFCF702F841EC1C0B1BEE100AFBF70A
:10464000FCFF41EC100BB0EE4C1AF0EE6C1A01F0CE
:10465000C3FB51EC100BFCF703F80BEE100AB0EEA5
:104660006A0A01F03DFEB0EE408AB0EE6A0A02F03E
:1046700007FDB0EE40AAB0EE4B0A01F031FEF0EEBD
:1046800040BAB0EE4B0A02F0FBFC69EEAB0A28EE32
:104690008A1A41EE000A29EE081A41EE000A28EEB5
:1046A000880A09EE4A0AB1EE400A01F08DFCF0EEEC
:1046B00040BAB6EE00CA2AEE8C0AB0EE408A01F08B
:1046C0000FFEF0EE408AB0EE480A02F0D9FCF0EEA0
:1046D000409A2BEE0C0AB0EE408A01F001FEB0EEDB
:1046E00040AAB0EE480A02F0CBFCB0EE409A2BEEA6
:1046F0008C0AF0EE40AA01F0F3FDB0EE408AB0EE75
:104700006A0A02F0BDFC68EE8A2A29EE892A24484A
:1047100062EE880A42EE000AC0ED020A29EE8A3AE9
:1047200068EE891A23EE081A01EEC01A80ED031A0A
:1047300061EE881A43EE001AC0ED041A22EE800AD8
:1047400002EE480A80ED050A20EEA02A80ED0C2A30
:1047500020EE812A80ED0D2A20EEA12A80ED0E2A7E
:1047600060EE800AC0ED0F0A61EE010AC0ED100A8A
:1047700061EE210AC0ED110A61EE000AC0ED120AD5
:1047800061EEA10AC0ED130A61EE800AC0ED140AC1
:1047900020EE000A80ED150ABDEC0A8B10BD00006A
:1047A0005800002010B52DED108B82B0B0EE408A7D
:1047B000F0EE608AB0EE419AF0EE61EAB0EE42DAD5
:1047C000F0EE62DAF0EE43BAB0EE63CAF0EE44CA3D
:1047D000B0EE64FAB0EE45EAB0EE65BADFEDF59AF8
:1047E000B0EE69AAF0EE69AAF34C207800280FD148
:1047F000F0EE6C2AB0EE4C2AF0EE6B1AB0EE6D1AA9
:10480000F0EE4D0AB0EE6E0AFFF7E8FE01202070D0
:10481000F5EEC0BAF6EE00FAF1EE10FA09D1B5EEF7
:10482000C0CAF1EE10FA04D1F5EEC0CAF1EE10FAEA
:104830007ED02BEEAB0A0CEE0C0A0CEEAC0A03F0A9
:10484000ADFC6BEE80BA2CEE00CA6CEE80CAD4EDE3
:10485000133A94ED152AD4ED111A3FEEE30AD4ED84
:104860000F0A94ED0E1A30EE420A60EE2B2A31EE5A
:10487000E00A4CEE002A94ED120A30EE013A4CEEBA
:10488000832AB0EE003A22EE834A71EEA00AD4EDFC
:10489000101A7FEEE12A60EEAB0A72EEC21A94EDB6
:1048A0000D2A4CEE210AD4ED141A71EEC24A4CEED8
:1048B000A40A60EE830A6BEE834A30EE410A2CEEC6
:1048C000031A71EE821A24EE800A01EE210A2CEE00
:1048D000831A72EEE31A01EE210A8DED010A24EE2D
:1048E000040A00EEA00A10EE100AFBF7A6FE41EC47
:1048F000100B02F08DFC51EC100BFBF7B1FE00EE3B
:10490000900A9DED010A94ED132AD4ED151AD4ED09
:10491000122A3FEEC21A94ED0E3A31EE611A72EE8F
:10492000C31A21EE201A00EE211AD4ED111A00E06C
:104930002BE0D4ED0F3A94ED144A71EEE31AD4ED66
:104940000D3A61EEA01A73EE843A40EE231A73EE2C
:10495000222A62EEA00AD4ED102A7FEEE22A32EE7D
:10496000C22A40EE020A2CEE200A0CEEE10A70EE9A
:10497000299A2CEE810A0BEEE00A30EE0AAA2BEE01
:10498000A10A0CEE410A70EE2AAAF5EEC0EAF1EE99
:1049900010FA09D1B5EEC0DAF1EE10FA04D1F5EE55
:1049A000C0DAF1EE10FA33D02EEEAE0A0DEE0D0A9B
:1049B0000DEEAD0A03F0F2FB2EEE802A6DEE000A3A
:1049C0006DEE801A94ED120A94ED0E1A30EE410A43
:1049D00094ED0D1AD4ED142A31EE221AD4ED0C2ADE
:1049E00094ED153A72EEEF2A72EE832A20EEA23A87
:1049F00001EEC13A73EE299A61EE801A42EE621A14
:104A000031EE8AAA22EE011A00EEC01A71EE2AAA2D
:104A1000F5EEC09AF1EE10FA3CD0B5EEC0AAF1EE78
:104A200010FA37D0F5EEC0AAF1EE10FA32D0B5EE9A
:104A3000C0EA6248F1EE10FA1EDD6EEE290A90ED32
:104A4000000A00EE8B0A80ED000A2EEE0A1AD0ED65
:104A5000010A41EE0B0AC0ED010A6EEE2A1A90ED32
:104A6000021A01EE8B1A80ED021A30EE088A70EEFF
:104A7000A88A31EE099A07E09FED4E0A80ED000A00
:104A800080ED010A80ED020A0FEE298A4FEE0A8AB4
:104A90000FEE2A9AD4ED030A94ED041AD4ED051A08
:104AA000B1EE600A20EE080A01EE680A01EEC90ABA
:104AB00060EE2F2AC4ED062A94ED020A20EE082AA1
:104AC00001EE092A01EEE82A22EE2F3A84ED073A98
:104AD00020EE282A00EEC92A01EE882A22EE2F2A8B
:104AE00084ED082A60EE093A40EEA83A41EE483AD1
:104AF00063EEAF3AC4ED093A0BEE220A84ED020AE6
:104B00004BEE030AC4ED030A0BEE021A84ED041AFD
:104B10004BEE231AC4ED051A20EE000A00EEA00A9F
:104B200001EE010A01EEA10A03F038FBD4ED020AFE
:104B300060EE800AC4ED020A94ED031A21EE001A19
:104B400084ED031AD4ED041A61EE801AC4ED041A40
:104B500094ED052A22EE000A84ED050A20EEA02A33
:104B600084ED0C2A20EE812A84ED0D2A20EEA12A64
:104B700084ED0E2A60EE800AC4ED0F0A61EE010A90
:104B8000C4ED100A61EE210AC4ED110A61EE000ABB
:104B9000C4ED120A61EEA10AC4ED130A61EE800AA7
:104BA000C4ED140A20EE000A84ED150A02B0BDEC33
:104BB000108B10BD0000000058000020F8060020F7
:104BC00000F002F8FCE700002DED028B1F4C20499D
:104BD0006068A1FB001040096060002803D19FEDD0
:104BE0001D0A84ED030A0025DFED1B8A9FED1B8A59
:104BF00003F030FE04F09EF800EE100A2061B8EEDB
:104C0000400A20EE280A84ED050A2068A06025608D
:104C100003F040FE94ED020AF8EE400A94ED010A1A
:104C2000B8EE401A80EE810A38EE400A84ED030A9D
:104C3000B5EEC00AF1EE10FA01DAB1EE400A84EDE9
:104C4000030A4FF47A7003F079FED1E720000020C8
:104C50001F85EB51000000000000803A0000C842B0
:104C600010B504462DED048BB0EE408AB0EE609A8C
:104C70000846DFED4D8AFBF7A3FC9FED4D2B53EC6F
:104C8000122BFBF72EFCFBF7EBFC01EE100A84ED78
:104C90000A8A78EE491AC4ED0D1A84ED109A94ED43
:104CA000000A20EE213A94ED010A61EE800A94EDAB
:104CB000130A00EE810A84ED130A10EE100A3E4931
:104CC000884204DD9FED3D0A84ED130A08E010EEF2
:104CD000100A3B49884203D99FED3A0A84ED130A32
:104CE00094ED030AB5EEC00AF1EE10FA02D1D4ED4C
:104CF000138A0DE0F4EEC01AF1EE10FA08D8B1EE06
:104D0000400AF4EEC01AF1EE10FA01DBD4ED138A7A
:104D1000206994ED020AD4ED0F0A94ED0C2A30B10B
:104D200079EE603AC3EE812A20EE220A05E071EEA8
:104D3000C23AC3EE812A20EE220AD4ED092A38EEC7
:104D4000624AC4EE013A94ED114A63EE843AF0EE01
:104D5000004AB0EE484A02EEE44AD4ED084A34EE86
:104D6000244AC4EE014A94ED121A24EE811A33EE5D
:104D7000283A33EE000A30EE230A30EE010A84EDC1
:104D8000070A84ED050AC4ED082A84ED098A84ED3A
:104D90000B2AC4ED0C1AC4ED0E0A84ED0F9ABDEC7B
:104DA000048B10BD000000000000000000000000A7
:104DB0000000000000408F4000007A4400007A4468
:104DC00000007AC400007AC45021FBF766BA80ED77
:104DD000000AC0ED010A80ED021AC0ED031ABDEE13
:104DE000C20A80ED040AC0ED122A80ED113A704724
:104DF00010B5FFF7EFF83648364C018861804188DE
:104E0000A1808188E1800189218141896181808936
:104E1000A08100209FED301A9FED300ADFED300AAF
:104E2000DFED301A9FED302A04EB4001B1F902208A
:104E300002EE902A04EB8002F8EEE22A62EE812A6A
:104E400062EE802AC2ED052AB1F9081002EE901A2E
:104E5000F8EEE22A62EEA02A62EEA12A82EE823AFF
:104E600082ED083A401CC0B20328DDD394ED050A58
:104E7000D4ED0E0A30EE600AFEF792FE84ED140ABD
:104E800094ED060AD4ED0F0A30EE600AFEF7C6FE76
:104E900084ED150A94ED070AD4ED100A30EE600A8D
:104EA000FEF7FAFE84ED160A94ED080AFEF732FFCB
:104EB00084ED1A0A94ED090AFEF76AFF84ED1B0AD5
:104EC00094ED0A0AFEF7A2FF84ED1C0A10BD000053
:104ED000FC02002038060020000080390AE81C414E
:104EE00000007A3DDB0F4940000034432DE9F047D4
:104EF00004460E4692461D46FCF75EFE07464FF0FE
:104F000000084FF00109BAF1000F05D02068806851
:104F100036EA000033D05FE02068806836EA00009F
:104F20005AD0B5F1FF3F24D025B1FCF745FEC01B98
:104F3000A8421ED92068416821F0E0014160206844
:104F4000016821F040010160A06AB0F5005F09D15D
:104F50002068016821F4005101602068016841F473
:104F60000051016084F8519084F850800320BDE81E
:104F7000F0872068806836EA0000D2D12CE0B5F1D5
:104F8000FF3F24D025B1FCF717FEC01BA8421ED955
:104F90002068416821F0E00141602068016821F04B
:104FA00040010160A06AB0F5005F09D12068016886
:104FB00021F4005101602068016841F40051016052
:104FC00084F8519084F850800320BDE8F087206871
:104FD000806836EA0000D2D00020BDE8F0870000EB
:104FE0000548044901620549416205498162002082
:104FF00070470000530E000834070020490E0008D7
:10500000950E000882B003F0BDFF0190074C05210A
:1050100001A803F0CBFCE069401CE061FEF778FCDE
:10502000FBF7DEFDFBF738FFF1E700000000002092
:1050300082B003F0A7FF01900E4C282101A803F0D5
:10504000B5FC012211032046FCF7AEFD0A2003F057
:105050001DF90948FBF796FC00224FF480512046C9
:10506000FCF7A2FD192003F011F90348FBF7B6FC89
:10507000E3E7000000000240500400202DED068B05
:105080000027F0EE008A584CDFF860B1584DDFF889
:105090006481DFF864919FED59AA9FED599A594EAA
:1050A0009FED598ADFED599ADFED59AADFF864A127
:1050B000606803F09FFD206803F09CFDA06803F08A
:1050C00099FDE06803F096FD206903F093FD00224E
:1050D0004FF480515846FCF767FD03F0BBFB2F608F
:1050E00003F0D8FB4FF47A7003F028FC03F0B2FB16
:1050F0002868C8F8000003F0CDFB40F6B83003F094
:105100001DFCA0223C494448FCF790FAFF210020F6
:10511000FEF72EFDFF210120FEF72AFDFF210220D0
:10512000FEF726FDFF210320FEF722FD01223B4969
:105130003B48FEF705F800213A48FDF78BFF0421B4
:105140003848FDF787FF08213648FDF783FF0C211B
:105150003448FDF77FFF00213348FDF77BFF042132
:105160003148FDF777FF08212F48FDF773FF0C2129
:105170002D48FDF76FFF0C212C48FDF76BFFFBF767
:1051800025FEFEF797FEFBF7E7FDB9F8080000EEF5
:10519000100AB8EE400A20EE280A20EE0A0A20EE95
:1051A000090A86ED000A70EE480A80EEA90A20EE90
:1051B0002A0A8AED000AFBF7F3FE206803F0A4FC3C
:1051C000606803F0A1FCA06803F09EFCE06803F0B7
:1051D0009BFC206903F098FC606903F095FC0020BB
:1051E00003F03EFC64E700000000002000000240E5
:1051F000200000202400002010030020000080393F
:10520000333353404C000020CDCC6C406866E63E02
:105210000000C84240000020500400208D01002002
:10522000A0050020EC0400202805002064050020D3
:1052300082B00024012600250520019000270F20C0
:105240000090012211025748FCF7AEFCDFF858919C
:10525000DFF85881DFF858A1DFF858B1D8F800001E
:1052600048450BDAFCF7A8FCB84215D94FF4807119
:105270004C48FCF795FC07F596770DE0504506DBAA
:1052800000224FF480714748FCF78EFC04E00122B5
:1052900011024448FCF788FC9BF80000002851D01C
:1052A000FCF78AFCA842D9D9FF210020FEF760FC58
:1052B000FF210120FEF75CFCFF210220FEF758FCD5
:1052C000FF210320FEF754FC322002F0DFFF002113
:1052D0000846FEF74DFC00210120FEF749FC0021A5
:1052E0000220FEF745FC00210320FEF741FC32209E
:1052F00002F0CCFFFF210020FEF73AFCFF21012045
:10530000FEF736FCFF210220FEF732FCFF210320CE
:10531000FEF72EFC322002F0B9FF00210846FEF70E
:1053200027FC00210120FEF723FC00210220FEF7CC
:105330001FFC00210320FEF71BFCFCF73DFC00F5E1
:10534000FA658BE7FCF738FCA84226D93EB1641C0D
:10535000502C00DD0026019802F098FF05E0641E45
:1053600000D10126009802F091FF21460020FEF7AF
:10537000FFFB21460120FEF7FBFB21460220FEF742
:10538000F7FB21460320FEF7F3FB002C7FF466AF0A
:10539000FCF712FC00F5FA6560E7642002F076FF86
:1053A0005CE7000000040240000070414000002063
:1053B0000000C6427C02002010B5FCF703FCBDE8EB
:1053C000104002F070BF000010B592B01F48016895
:1053D00041F080510160006800F0805000901C484E
:1053E000016841F440410160006800F440400090D1
:1053F00001200690079002240C9480050D90042053
:105400000E9064210F911094119006A8FCF736FEBF
:1054100005200190029400200390E1020491059080
:10542000032101A8FCF75EFCFCF79CFD4FF47A71A8
:10543000B0FBF1F0FDF704FC0420FDF7F2FB0022C5
:105440001146501EFCF708FC12B010BD4038024057
:10545000007000400F48016841F4700101600E487F
:10546000016841F0010101600C4A002111600268ED
:1054700022F4102222F080720260031D084A1A6092
:10548000026822F48022026006480160064958063C
:105490000860704788ED00E000380240083802409C
:1054A000103000240C38024008ED00E070B40268AF
:1054B0001E4BDFF87CC01F4C1F4D984208D0B0F146
:1054C000804F05D0604503D0A04201D0A84203D14F
:1054D00022F070024E683243984213D0B0F1804FF0
:1054E00010D060450ED0A0420CD0A8420AD0A0F146
:1054F000804CBCF5A03C05D0BCF5806C02D0BCF55E
:10550000806C05D122F44072D1F80CC04CEA020242
:1055100002608A68C2620A688262984201D109699F
:1055200001630121416170BC70470000000001402F
:105530000004004000080040000C004001238B40A4
:10554000D0F820C02CEA03030362036A02FA01F1D7
:10555000194301627047D0F808C02CF47F4C42EA2E
:105560000322114341EA0C0181607047826822F0F6
:105570007002114341F007018160704710B4026A64
:1055800022F001020262036A4268D0F818C02CF0CF
:10559000700C2CF0030C0C6844EA0C0C23F0020392
:1055A0008C682343A0F18044B4F580340DD123F0FE
:1055B0000803CC68234323F0040322F4807222F40E
:1055C00000724C6922438C6922434260C0F818C0C3
:1055D00049684163036210BC704710B4026A22F04C
:1055E00010020262036A4268D0F818C02CF4E04C42
:1055F0002CF4407C0C684CEA042C23F020038C68CB
:1056000043EA0413A0F18044B4F5803410D123F0B0
:105610008003CC6843EA041323F0400322F4806241
:1056200022F400624C6942EA84028C6942EA8402F4
:105630004260C0F818C049688163036210BC7047BB
:1056400010B4026A22F480720262036A4268D0F8DF
:105650001CC02CF0700C2CF0030C0C6844EA0C0CF1
:1056600023F400738C6843EA0423A0F18044B4F56A
:10567000803410D123F40063CC6843EA042323F47C
:10568000806322F4805222F400524C6942EA0412F0
:105690008C6942EA04124260C0F81CC04968C163C8
:1056A000036210BC704710B4026A22F48052026296
:1056B000036A4268D0F81CC02CF4E04C2CF4407C07
:1056C0000C684CEA042C23F400538C6843EA04333E
:1056D000A0F18044B4F5803404D122F480424C69B6
:1056E00042EA84124260C0F81CC049680164036247
:1056F00010BC7047036AD0F820C02CF0010CC0F831
:1057000020C0D0F818C02CF0F00C4CEA021223F0A4
:105710000A031943826101627047036A23F0100390
:105720000362D0F818C0036A2CF4704C4CEA0232C1
:1057300023F0A00343EA0111826101627047000077
:105740002DE9F04104462068016921F44051E268E6
:10575000114301612068C16821F4037121F41441EF
:105760002369A268D4F81CC01A43636943EA0C0396
:105770001A431143C1602068416921F44071A26954
:1057800011434161E069714A7149724D3226B0F5A9
:10579000004F38D02068884201D090427ED1FCF77B
:1057A00011FC00EBC00101EB001061688900B0FB47
:1057B000F1F0A5FB00104709FCF704FC00EBC00169
:1057C00001EB001061688900B0FBF1F8FCF7FAFB0F
:1057D00000EBC00101EB001061688900B0FBF1F043
:1057E000A5FB001040096FF01801484308EB80004A
:1057F00006EB0010A5FB00102168400967F31F109D
:105800008860BDE8F0812068884201D0904233D1A1
:10581000FCF7D8FB00EBC00101EB00106168490008
:10582000B0FBF1F0A5FB00104709FCF7CBFB00EB48
:10583000C00101EB001061684900B0FBF1F8FCF712
:10584000C1FB00EBC00101EB001061684900B0FB37
:10585000F1F0A5FB001040096FF01801484308EB78
:10586000800006EB0010A5FB00102168400967F3DB
:105870001F108860BDE8F081FCF78EFB00EBC001D3
:1058800001EB001061684900B0FBF1F0A5FB0010CE
:105890004709FCF781FB00EBC00100E022E001EBCF
:1058A000001061684900B0FBF1F8FCF775FB00EBF4
:1058B000C00101EB001061684900B0FBF1F0A5FBED
:1058C000001040096FF01801484308EB800006EB18
:1058D0000010A5FB00102168400967F31F108860C5
:1058E000BDE8F081FCF758FB00EBC00101EB0010B4
:1058F00061688900B0FBF1F0A5FB00104709FCF7D7
:105900004BFB00EBC00101EB001061688900B0FBAC
:10591000F1F8FCF741FB00EBC00101EB00106168FE
:105920008900B0FBF1F0A5FB001040096FF01801F1
:10593000484308EB800006EB0010A5FB001021682F
:10594000400967F31F108860BDE8F0810014014032
:10595000001001401F85EB5105480068016811F0F7
:10596000200F03D000680248FDF722BC70470000FA
:10597000A0050020142002F089FCFBE703B4019885
:105980004100009850EAC12018BF04204A0D18BFFA
:1059900040F0010040F2FF72B2EB515F08BF40F0EF
:1059A0000200012808BF052002B07047410008022C
:1059B00018BF04200A0E18BF40F001004FF07F42CC
:1059C00032EA010108BF40F00200012808BF0520AB
:1059D0007047000010B54FF00E402DED028BB0EE79
:1059E000408A18EE104A00EB4400B0F1506F4AD8DC
:1059F0004FF0FC40B0EB440F22D2B0EEC80AF7EEF5
:105A0000000A30EEC00AF6EE000A60EE208A18EEB8
:105A1000900A02F0A8FE01EE100A14F0004F1DBF1C
:105A2000DFED2D0A9FED2D0AB1EE411ADFED2C0AB4
:105A300008BF9FED2C0AF8EE001A21EE218A05E03E
:105A4000DFED290A68EE088AB0EE600A9FED271A9A
:105A5000DFED271A30EE080A48EE811A9FED251A6D
:105A600008EEA11ADFED241A48EE811A9FED231AE1
:105A700008EEA11A68EE281ABDEC028B01EE810A2D
:105A800030EE200A10BD4FF0E440B0EB440F0CD9CB
:105A900018EE100AFFF78AFF042808BF02F04AF840
:105AA000B0EE480ABDEC028B10BD4FF07F40B0EB6A
:105AB000440F07D2B0EE480ABDEC028BBDE810409F
:105AC00002F02AB8012002F0F7F8BDEC028BBDE825
:105AD000104002F027B800000000C9BF22AAFDB99B
